{
  "_format": "hh-sol-artifact-1",
  "contractName": "RealEstateManager",
  "sourceName": "contracts/RealEstateManager.sol",
  "abi": [
    {
      "inputs": [
        {
          "internalType": "address",
          "name": "_utilityToken",
          "type": "address"
        }
      ],
      "stateMutability": "nonpayable",
      "type": "constructor"
    },
    {
      "inputs": [],
      "name": "ReentrancyGuardReentrantCall",
      "type": "error"
    },
    {
      "anonymous": false,
      "inputs": [
        {
          "indexed": true,
          "internalType": "uint256",
          "name": "_propertyId",
          "type": "uint256"
        },
        {
          "indexed": true,
          "internalType": "address",
          "name": "_currentOwner",
          "type": "address"
        },
        {
          "indexed": false,
          "internalType": "string",
          "name": "propertyName",
          "type": "string"
        }
      ],
      "name": "PropertyAdded",
      "type": "event"
    },
    {
      "anonymous": false,
      "inputs": [
        {
          "indexed": true,
          "internalType": "uint256",
          "name": "_propertyId",
          "type": "uint256"
        }
      ],
      "name": "PropertyDeleted",
      "type": "event"
    },
    {
      "anonymous": false,
      "inputs": [
        {
          "indexed": true,
          "internalType": "uint256",
          "name": "propertyId",
          "type": "uint256"
        },
        {
          "indexed": false,
          "internalType": "string",
          "name": "newPropertyName",
          "type": "string"
        },
        {
          "indexed": false,
          "internalType": "string",
          "name": "newLocation",
          "type": "string"
        },
        {
          "indexed": false,
          "internalType": "uint256",
          "name": "newValue",
          "type": "uint256"
        }
      ],
      "name": "PropertyDetailsUpdated",
      "type": "event"
    },
    {
      "anonymous": false,
      "inputs": [
        {
          "indexed": true,
          "internalType": "uint256",
          "name": "_propertyId",
          "type": "uint256"
        },
        {
          "indexed": true,
          "internalType": "address",
          "name": "oldOwner",
          "type": "address"
        },
        {
          "indexed": true,
          "internalType": "address",
          "name": "newOwner",
          "type": "address"
        },
        {
          "indexed": false,
          "internalType": "uint256",
          "name": "tokenAmount",
          "type": "uint256"
        }
      ],
      "name": "PropertyOwnershipTransferred",
      "type": "event"
    },
    {
      "anonymous": false,
      "inputs": [
        {
          "indexed": true,
          "internalType": "uint256",
          "name": "propertyId",
          "type": "uint256"
        },
        {
          "indexed": true,
          "internalType": "address",
          "name": "owner",
          "type": "address"
        },
        {
          "indexed": false,
          "internalType": "uint256",
          "name": "tokenAmount",
          "type": "uint256"
        }
      ],
      "name": "PropertyTokenized",
      "type": "event"
    },
    {
      "anonymous": false,
      "inputs": [
        {
          "indexed": true,
          "internalType": "uint256",
          "name": "_propertyId",
          "type": "uint256"
        },
        {
          "indexed": true,
          "internalType": "address",
          "name": "unverifier",
          "type": "address"
        }
      ],
      "name": "PropertyUnverified",
      "type": "event"
    },
    {
      "anonymous": false,
      "inputs": [
        {
          "indexed": true,
          "internalType": "uint256",
          "name": "_propertyId",
          "type": "uint256"
        },
        {
          "indexed": true,
          "internalType": "address",
          "name": "verifier",
          "type": "address"
        }
      ],
      "name": "PropertyVerified",
      "type": "event"
    },
    {
      "inputs": [
        {
          "internalType": "string",
          "name": "_location",
          "type": "string"
        },
        {
          "internalType": "string",
          "name": "_propertyName",
          "type": "string"
        },
        {
          "internalType": "uint256",
          "name": "_value",
          "type": "uint256"
        },
        {
          "internalType": "address",
          "name": "_currentOwner",
          "type": "address"
        }
      ],
      "name": "addProperty",
      "outputs": [
        {
          "internalType": "uint256",
          "name": "",
          "type": "uint256"
        }
      ],
      "stateMutability": "nonpayable",
      "type": "function"
    },
    {
      "inputs": [],
      "name": "admin",
      "outputs": [
        {
          "internalType": "address",
          "name": "",
          "type": "address"
        }
      ],
      "stateMutability": "view",
      "type": "function"
    },
    {
      "inputs": [
        {
          "internalType": "uint256",
          "name": "_propertyId",
          "type": "uint256"
        }
      ],
      "name": "deleteProperty",
      "outputs": [],
      "stateMutability": "nonpayable",
      "type": "function"
    },
    {
      "inputs": [
        {
          "internalType": "uint256",
          "name": "_propertyId",
          "type": "uint256"
        }
      ],
      "name": "getPropertyDetails",
      "outputs": [
        {
          "internalType": "uint256",
          "name": "",
          "type": "uint256"
        },
        {
          "internalType": "string",
          "name": "",
          "type": "string"
        },
        {
          "internalType": "string",
          "name": "",
          "type": "string"
        },
        {
          "internalType": "uint256",
          "name": "",
          "type": "uint256"
        },
        {
          "internalType": "address",
          "name": "",
          "type": "address"
        },
        {
          "internalType": "bool",
          "name": "",
          "type": "bool"
        },
        {
          "internalType": "bool",
          "name": "",
          "type": "bool"
        },
        {
          "internalType": "address",
          "name": "",
          "type": "address"
        }
      ],
      "stateMutability": "view",
      "type": "function"
    },
    {
      "inputs": [
        {
          "internalType": "uint256",
          "name": "_propertyId",
          "type": "uint256"
        }
      ],
      "name": "getTokenizedPropertyDetails",
      "outputs": [
        {
          "internalType": "uint256",
          "name": "",
          "type": "uint256"
        },
        {
          "internalType": "uint256",
          "name": "",
          "type": "uint256"
        },
        {
          "internalType": "bool",
          "name": "",
          "type": "bool"
        },
        {
          "internalType": "address",
          "name": "",
          "type": "address"
        }
      ],
      "stateMutability": "view",
      "type": "function"
    },
    {
      "inputs": [
        {
          "internalType": "address",
          "name": "_user",
          "type": "address"
        }
      ],
      "name": "getUserProperties",
      "outputs": [
        {
          "internalType": "uint256[]",
          "name": "",
          "type": "uint256[]"
        }
      ],
      "stateMutability": "view",
      "type": "function"
    },
    {
      "inputs": [
        {
          "internalType": "uint256",
          "name": "_propertyId",
          "type": "uint256"
        }
      ],
      "name": "isPropertyTokenized",
      "outputs": [
        {
          "internalType": "bool",
          "name": "",
          "type": "bool"
        }
      ],
      "stateMutability": "view",
      "type": "function"
    },
    {
      "inputs": [
        {
          "internalType": "uint256",
          "name": "_propertyId",
          "type": "uint256"
        }
      ],
      "name": "isPropertyVerified",
      "outputs": [
        {
          "internalType": "bool",
          "name": "",
          "type": "bool"
        }
      ],
      "stateMutability": "view",
      "type": "function"
    },
    {
      "inputs": [],
      "name": "marketplace",
      "outputs": [
        {
          "internalType": "address",
          "name": "",
          "type": "address"
        }
      ],
      "stateMutability": "view",
      "type": "function"
    },
    {
      "inputs": [
        {
          "internalType": "uint256",
          "name": "",
          "type": "uint256"
        }
      ],
      "name": "properties",
      "outputs": [
        {
          "internalType": "uint256",
          "name": "propertyId",
          "type": "uint256"
        },
        {
          "internalType": "string",
          "name": "propertyName",
          "type": "string"
        },
        {
          "internalType": "string",
          "name": "location",
          "type": "string"
        },
        {
          "internalType": "uint256",
          "name": "value",
          "type": "uint256"
        },
        {
          "internalType": "address",
          "name": "currentOwner",
          "type": "address"
        },
        {
          "internalType": "bool",
          "name": "isTokenized",
          "type": "bool"
        },
        {
          "internalType": "bool",
          "name": "isVerified",
          "type": "bool"
        },
        {
          "internalType": "address",
          "name": "verifiedBy",
          "type": "address"
        },
        {
          "internalType": "uint256",
          "name": "tokenAmount",
          "type": "uint256"
        }
      ],
      "stateMutability": "view",
      "type": "function"
    },
    {
      "inputs": [],
      "name": "propertyCount",
      "outputs": [
        {
          "internalType": "uint256",
          "name": "",
          "type": "uint256"
        }
      ],
      "stateMutability": "view",
      "type": "function"
    },
    {
      "inputs": [],
      "name": "rentalContract",
      "outputs": [
        {
          "internalType": "address",
          "name": "",
          "type": "address"
        }
      ],
      "stateMutability": "view",
      "type": "function"
    },
    {
      "inputs": [
        {
          "internalType": "address",
          "name": "_marketplace",
          "type": "address"
        }
      ],
      "name": "setMarketplace",
      "outputs": [],
      "stateMutability": "nonpayable",
      "type": "function"
    },
    {
      "inputs": [
        {
          "internalType": "address",
          "name": "_rentalContract",
          "type": "address"
        }
      ],
      "name": "setRentalContract",
      "outputs": [],
      "stateMutability": "nonpayable",
      "type": "function"
    },
    {
      "inputs": [
        {
          "internalType": "address",
          "name": "_utilityToken",
          "type": "address"
        }
      ],
      "name": "setUtilityToken",
      "outputs": [],
      "stateMutability": "nonpayable",
      "type": "function"
    },
    {
      "inputs": [
        {
          "internalType": "uint256",
          "name": "_propertyId",
          "type": "uint256"
        },
        {
          "internalType": "uint256",
          "name": "_tokenAmount",
          "type": "uint256"
        }
      ],
      "name": "tokenizeProperty",
      "outputs": [],
      "stateMutability": "nonpayable",
      "type": "function"
    },
    {
      "inputs": [
        {
          "internalType": "uint256",
          "name": "_propertyId",
          "type": "uint256"
        },
        {
          "internalType": "address",
          "name": "_newOwner",
          "type": "address"
        }
      ],
      "name": "transferPropertyOwnership",
      "outputs": [],
      "stateMutability": "nonpayable",
      "type": "function"
    },
    {
      "inputs": [
        {
          "internalType": "uint256",
          "name": "_propertyId",
          "type": "uint256"
        },
        {
          "internalType": "address",
          "name": "_newOwner",
          "type": "address"
        }
      ],
      "name": "transferPropertyOwnershipByMarketplace",
      "outputs": [],
      "stateMutability": "nonpayable",
      "type": "function"
    },
    {
      "inputs": [
        {
          "internalType": "uint256",
          "name": "_propertyId",
          "type": "uint256"
        }
      ],
      "name": "unverifyProperty",
      "outputs": [],
      "stateMutability": "nonpayable",
      "type": "function"
    },
    {
      "inputs": [
        {
          "internalType": "uint256",
          "name": "_propertyId",
          "type": "uint256"
        },
        {
          "internalType": "string",
          "name": "_propertyName",
          "type": "string"
        },
        {
          "internalType": "string",
          "name": "_location",
          "type": "string"
        },
        {
          "internalType": "uint256",
          "name": "_value",
          "type": "uint256"
        }
      ],
      "name": "updatePropertyDetails",
      "outputs": [],
      "stateMutability": "nonpayable",
      "type": "function"
    },
    {
      "inputs": [
        {
          "internalType": "address",
          "name": "",
          "type": "address"
        },
        {
          "internalType": "uint256",
          "name": "",
          "type": "uint256"
        }
      ],
      "name": "userProperties",
      "outputs": [
        {
          "internalType": "uint256",
          "name": "",
          "type": "uint256"
        }
      ],
      "stateMutability": "view",
      "type": "function"
    },
    {
      "inputs": [
        {
          "internalType": "address",
          "name": "",
          "type": "address"
        },
        {
          "internalType": "uint256",
          "name": "",
          "type": "uint256"
        }
      ],
      "name": "userPropertyIndices",
      "outputs": [
        {
          "internalType": "uint256",
          "name": "",
          "type": "uint256"
        }
      ],
      "stateMutability": "view",
      "type": "function"
    },
    {
      "inputs": [],
      "name": "utilityToken",
      "outputs": [
        {
          "internalType": "contract IERC20",
          "name": "",
          "type": "address"
        }
      ],
      "stateMutability": "view",
      "type": "function"
    },
    {
      "inputs": [
        {
          "internalType": "uint256",
          "name": "_propertyId",
          "type": "uint256"
        }
      ],
      "name": "verifyProperty",
      "outputs": [],
      "stateMutability": "nonpayable",
      "type": "function"
    },
    {
      "inputs": [],
      "name": "withdrawETH",
      "outputs": [],
      "stateMutability": "nonpayable",
      "type": "function"
    }
  ],
  "bytecode": "0x608060405234801561001057600080fd5b506040516154ea3803806154ea83398181016040528101906100329190610194565b6001600081905550600073ffffffffffffffffffffffffffffffffffffffff168173ffffffffffffffffffffffffffffffffffffffff16036100a9576040517f08c379a00000000000000000000000000000000000000000000000000000000081526004016100a09061021e565b60405180910390fd5b33600160006101000a81548173ffffffffffffffffffffffffffffffffffffffff021916908373ffffffffffffffffffffffffffffffffffffffff16021790555080600560006101000a81548173ffffffffffffffffffffffffffffffffffffffff021916908373ffffffffffffffffffffffffffffffffffffffff1602179055505061023e565b600080fd5b600073ffffffffffffffffffffffffffffffffffffffff82169050919050565b600061016182610136565b9050919050565b61017181610156565b811461017c57600080fd5b50565b60008151905061018e81610168565b92915050565b6000602082840312156101aa576101a9610131565b5b60006101b88482850161017f565b91505092915050565b600082825260208201905092915050565b7f496e76616c6964205574696c697479546f6b656e206164647265737300000000600082015250565b6000610208601c836101c1565b9150610213826101d2565b602082019050919050565b60006020820190508181036000830152610237816101fb565b9050919050565b61529d8061024d6000396000f3fe608060405234801561001057600080fd5b50600436106101735760003560e01c80639013ae08116100de578063c36b985511610097578063e2271c9f11610071578063e2271c9f1461044e578063e8f4e9d41461047e578063f7b108081461049c578063f851a440146104d457610173565b8063c36b98551461040c578063d40bd04c14610428578063e086e5ec1461044457610173565b80639013ae081461035e578063abc8c7af1461037a578063ae86ed8914610398578063b5257e2d146103b6578063b98dbbbc146103d2578063c361a335146103ee57610173565b80633f6cf06d116101305780633f6cf06d146102775780634212a8ae146102a75780635a63427e146102c35780636250a2e9146102df57806373ad6c2d146103125780638ba825d91461032e57610173565b8063060a3e611461017857806307192622146101a85780630af7dced146101d8578063126dbe43146101f4578063170140f11461022b5780633db406d214610247575b600080fd5b610192600480360381019061018d9190613851565b6104f2565b60405161019f9190613946565b60405180910390f35b6101c260048036038101906101bd9190613994565b610589565b6040516101cf91906139dc565b60405180910390f35b6101f260048036038101906101ed91906139f7565b6105b6565b005b61020e60048036038101906102099190613994565b6108f3565b604051610222989796959493929190613ae5565b60405180910390f35b61024560048036038101906102409190613994565b610b8a565b005b610261600480360381019061025c9190613ca6565b6113c0565b60405161026e9190613d45565b60405180910390f35b610291600480360381019061028c9190613994565b611872565b60405161029e91906139dc565b60405180910390f35b6102c160048036038101906102bc9190613994565b61189f565b005b6102dd60048036038101906102d89190613851565b611a87565b005b6102f960048036038101906102f49190613994565b611c5b565b6040516103099493929190613d60565b60405180910390f35b61032c60048036038101906103279190613851565b611ecd565b005b61034860048036038101906103439190613da5565b6120a1565b6040516103559190613d45565b60405180910390f35b61037860048036038101906103739190613851565b6120c6565b005b610382612209565b60405161038f9190613de5565b60405180910390f35b6103a061222f565b6040516103ad9190613e5f565b60405180910390f35b6103d060048036038101906103cb9190613e7a565b612255565b005b6103ec60048036038101906103e79190613f19565b61240d565b005b6103f6612796565b6040516104039190613d45565b60405180910390f35b61042660048036038101906104219190613994565b61279c565b005b610442600480360381019061043d9190613f19565b612984565b005b61044c612d0b565b005b61046860048036038101906104639190613da5565b612eb5565b6040516104759190613d45565b60405180910390f35b610486612ee6565b6040516104939190613de5565b60405180910390f35b6104b660048036038101906104b19190613994565b612f0c565b6040516104cb99989796959493929190613f59565b60405180910390f35b6104dc6130c4565b6040516104e99190613de5565b60405180910390f35b6060600860008373ffffffffffffffffffffffffffffffffffffffff1673ffffffffffffffffffffffffffffffffffffffff16815260200190815260200160002080548060200260200160405190810160405280929190818152602001828054801561057d57602002820191906000526020600020905b815481526020019060010190808311610569575b50505050509050919050565b60006006600083815260200190815260200160002060040160159054906101000a900460ff169050919050565b600160009054906101000a900473ffffffffffffffffffffffffffffffffffffffff1673ffffffffffffffffffffffffffffffffffffffff163373ffffffffffffffffffffffffffffffffffffffff1614610646576040517f08c379a000000000000000000000000000000000000000000000000000000000815260040161063d90614066565b60405180910390fd5b61064e6130ea565b6000600660008481526020019081526020016000209050600082116106a8576040517f08c379a000000000000000000000000000000000000000000000000000000000815260040161069f906140f8565b60405180910390fd5b8060040160149054906101000a900460ff16156106fa576040517f08c379a00000000000000000000000000000000000000000000000000000000081526004016106f190614164565b60405180910390fd5b8060040160159054906101000a900460ff1661074b576040517f08c379a0000000000000000000000000000000000000000000000000000000008152600401610742906141d0565b60405180910390fd5b6000816000015403610792576040517f08c379a00000000000000000000000000000000000000000000000000000000081526004016107899061423c565b60405180910390fd5b6000829050600560009054906101000a900473ffffffffffffffffffffffffffffffffffffffff1673ffffffffffffffffffffffffffffffffffffffff1663ac40c8d0858460040160009054906101000a900473ffffffffffffffffffffffffffffffffffffffff16846040518463ffffffff1660e01b815260040161081a9392919061425c565b600060405180830381600087803b15801561083457600080fd5b505af1158015610848573d6000803e3d6000fd5b5050505060018260040160146101000a81548160ff0219169083151502179055508082600601819055508160040160009054906101000a900473ffffffffffffffffffffffffffffffffffffffff1673ffffffffffffffffffffffffffffffffffffffff16847fd601ec042b20cd6b7e64d0ae03dd10376bddce25a059eb2fea159f6de2f33fd4836040516108dd9190613d45565b60405180910390a350506108ef613130565b5050565b6000606080600080600080600080600660008b8152602001908152602001600020604051806101200160405290816000820154815260200160018201805461093a906142c2565b80601f0160208091040260200160405190810160405280929190818152602001828054610966906142c2565b80156109b35780601f10610988576101008083540402835291602001916109b3565b820191906000526020600020905b81548152906001019060200180831161099657829003601f168201915b505050505081526020016002820180546109cc906142c2565b80601f01602080910402602001604051908101604052809291908181526020018280546109f8906142c2565b8015610a455780601f10610a1a57610100808354040283529160200191610a45565b820191906000526020600020905b815481529060010190602001808311610a2857829003601f168201915b50505050508152602001600382015481526020016004820160009054906101000a900473ffffffffffffffffffffffffffffffffffffffff1673ffffffffffffffffffffffffffffffffffffffff1673ffffffffffffffffffffffffffffffffffffffff1681526020016004820160149054906101000a900460ff161515151581526020016004820160159054906101000a900460ff161515151581526020016005820160009054906101000a900473ffffffffffffffffffffffffffffffffffffffff1673ffffffffffffffffffffffffffffffffffffffff1673ffffffffffffffffffffffffffffffffffffffff1681526020016006820154815250509050806000015181602001518260400151836060015184608001518560a001518660c001518760e001519850985098509850985098509850985050919395975091939597565b600160009054906101000a900473ffffffffffffffffffffffffffffffffffffffff1673ffffffffffffffffffffffffffffffffffffffff163373ffffffffffffffffffffffffffffffffffffffff1614610c1a576040517f08c379a0000000000000000000000000000000000000000000000000000000008152600401610c1190614066565b60405180910390fd5b610c226130ea565b6000600660008381526020019081526020016000206040518061012001604052908160008201548152602001600182018054610c5d906142c2565b80601f0160208091040260200160405190810160405280929190818152602001828054610c89906142c2565b8015610cd65780601f10610cab57610100808354040283529160200191610cd6565b820191906000526020600020905b815481529060010190602001808311610cb957829003601f168201915b50505050508152602001600282018054610cef906142c2565b80601f0160208091040260200160405190810160405280929190818152602001828054610d1b906142c2565b8015610d685780601f10610d3d57610100808354040283529160200191610d68565b820191906000526020600020905b815481529060010190602001808311610d4b57829003601f168201915b50505050508152602001600382015481526020016004820160009054906101000a900473ffffffffffffffffffffffffffffffffffffffff1673ffffffffffffffffffffffffffffffffffffffff1673ffffffffffffffffffffffffffffffffffffffff1681526020016004820160149054906101000a900460ff161515151581526020016004820160159054906101000a900460ff161515151581526020016005820160009054906101000a900473ffffffffffffffffffffffffffffffffffffffff1673ffffffffffffffffffffffffffffffffffffffff1673ffffffffffffffffffffffffffffffffffffffff16815260200160068201548152505090506000816000015103610eb0576040517f08c379a0000000000000000000000000000000000000000000000000000000008152600401610ea79061423c565b60405180910390fd5b600073ffffffffffffffffffffffffffffffffffffffff16600360009054906101000a900473ffffffffffffffffffffffffffffffffffffffff1673ffffffffffffffffffffffffffffffffffffffff1614610ff3576000600360009054906101000a900473ffffffffffffffffffffffffffffffffffffffff16905060008173ffffffffffffffffffffffffffffffffffffffff1663ac06b0d8856040518263ffffffff1660e01b8152600401610f689190613d45565b60e060405180830381865afa158015610f85573d6000803e3d6000fd5b505050506040513d601f19601f82011682018060405250810190610fa99190614402565b90508060c0015115610ff0576040517f08c379a0000000000000000000000000000000000000000000000000000000008152600401610fe79061447b565b60405180910390fd5b50505b600073ffffffffffffffffffffffffffffffffffffffff16600260009054906101000a900473ffffffffffffffffffffffffffffffffffffffff1673ffffffffffffffffffffffffffffffffffffffff161461112f576000600260009054906101000a900473ffffffffffffffffffffffffffffffffffffffff1673ffffffffffffffffffffffffffffffffffffffff1663db4f319e846040518263ffffffff1660e01b81526004016110a69190613d45565b608060405180830381865afa1580156110c3573d6000803e3d6000fd5b505050506040513d601f19601f820116820180604052508101906110e7919061449b565b9350505050801561112d576040517f08c379a00000000000000000000000000000000000000000000000000000000081526004016111249061454e565b60405180910390fd5b505b8060a00151156112af57806101000151600560009054906101000a900473ffffffffffffffffffffffffffffffffffffffff1673ffffffffffffffffffffffffffffffffffffffff166370a08231306040518263ffffffff1660e01b815260040161119a9190613de5565b602060405180830381865afa1580156111b7573d6000803e3d6000fd5b505050506040513d601f19601f820116820180604052508101906111db919061456e565b101561121c576040517f08c379a0000000000000000000000000000000000000000000000000000000008152600401611213906145e7565b60405180910390fd5b600560009054906101000a900473ffffffffffffffffffffffffffffffffffffffff1673ffffffffffffffffffffffffffffffffffffffff166342966c688261010001516040518263ffffffff1660e01b815260040161127c9190613d45565b600060405180830381600087803b15801561129657600080fd5b505af11580156112aa573d6000803e3d6000fd5b505050505b600081608001519050600660008481526020019081526020016000206000808201600090556001820160006112e49190613782565b6002820160006112f49190613782565b60038201600090556004820160006101000a81549073ffffffffffffffffffffffffffffffffffffffff02191690556004820160146101000a81549060ff02191690556004820160156101000a81549060ff02191690556005820160006101000a81549073ffffffffffffffffffffffffffffffffffffffff021916905560068201600090555050611386818461313a565b827f7156884be24ff0be75b08b7bf2034f16982585fcfc7fc22c70716ad234e9267360405160405180910390a250506113bd613130565b50565b6000600160009054906101000a900473ffffffffffffffffffffffffffffffffffffffff1673ffffffffffffffffffffffffffffffffffffffff163373ffffffffffffffffffffffffffffffffffffffff1614611452576040517f08c379a000000000000000000000000000000000000000000000000000000000815260040161144990614066565b60405180910390fd5b6000855111611496576040517f08c379a000000000000000000000000000000000000000000000000000000000815260040161148d90614679565b60405180910390fd5b600083116114d9576040517f08c379a00000000000000000000000000000000000000000000000000000000081526004016114d09061470b565b60405180910390fd5b600084511161151d576040517f08c379a000000000000000000000000000000000000000000000000000000000815260040161151490614777565b60405180910390fd5b600073ffffffffffffffffffffffffffffffffffffffff168273ffffffffffffffffffffffffffffffffffffffff160361158c576040517f08c379a0000000000000000000000000000000000000000000000000000000008152600401611583906147e3565b60405180910390fd5b6004600081548092919061159f90614832565b919050555060405180610120016040528060045481526020018581526020018681526020018481526020018373ffffffffffffffffffffffffffffffffffffffff168152602001600015158152602001600015158152602001600073ffffffffffffffffffffffffffffffffffffffff168152602001600081525060066000600454815260200190815260200160002060008201518160000155602082015181600101908161164e9190614a1c565b5060408201518160020190816116649190614a1c565b506060820151816003015560808201518160040160006101000a81548173ffffffffffffffffffffffffffffffffffffffff021916908373ffffffffffffffffffffffffffffffffffffffff16021790555060a08201518160040160146101000a81548160ff02191690831515021790555060c08201518160040160156101000a81548160ff02191690831515021790555060e08201518160050160006101000a81548173ffffffffffffffffffffffffffffffffffffffff021916908373ffffffffffffffffffffffffffffffffffffffff16021790555061010082015181600601559050506000600860008473ffffffffffffffffffffffffffffffffffffffff1673ffffffffffffffffffffffffffffffffffffffff16815260200190815260200160002090508080549050600760008573ffffffffffffffffffffffffffffffffffffffff1673ffffffffffffffffffffffffffffffffffffffff16815260200190815260200160002060006004548152602001908152602001600020819055508060045490806001815401808255809150506001900390600052602060002001600090919091909150558273ffffffffffffffffffffffffffffffffffffffff166004547f92f2b8d9ae69a40be928a502c6bcc369ce8a0b2e902151bb63909295f4ce749e8760405161185c9190614aee565b60405180910390a3600454915050949350505050565b60006006600083815260200190815260200160002060040160149054906101000a900460ff169050919050565b600160009054906101000a900473ffffffffffffffffffffffffffffffffffffffff1673ffffffffffffffffffffffffffffffffffffffff163373ffffffffffffffffffffffffffffffffffffffff161461192f576040517f08c379a000000000000000000000000000000000000000000000000000000000815260040161192690614066565b60405180910390fd5b6000600660008381526020019081526020016000209050600081600001540361198d576040517f08c379a00000000000000000000000000000000000000000000000000000000081526004016119849061423c565b60405180910390fd5b8060040160159054906101000a900460ff16156119df576040517f08c379a00000000000000000000000000000000000000000000000000000000081526004016119d690614b5c565b60405180910390fd5b60018160040160156101000a81548160ff021916908315150217905550338160050160006101000a81548173ffffffffffffffffffffffffffffffffffffffff021916908373ffffffffffffffffffffffffffffffffffffffff1602179055503373ffffffffffffffffffffffffffffffffffffffff16827f791049df3faadbda0c00ec3e469ce592f100f0d6664511fa7ac1ab33bf0aafda60405160405180910390a35050565b600160009054906101000a900473ffffffffffffffffffffffffffffffffffffffff1673ffffffffffffffffffffffffffffffffffffffff163373ffffffffffffffffffffffffffffffffffffffff1614611b17576040517f08c379a0000000000000000000000000000000000000000000000000000000008152600401611b0e90614066565b60405180910390fd5b600073ffffffffffffffffffffffffffffffffffffffff168173ffffffffffffffffffffffffffffffffffffffff1603611b86576040517f08c379a0000000000000000000000000000000000000000000000000000000008152600401611b7d90614bee565b60405180910390fd5b600073ffffffffffffffffffffffffffffffffffffffff16600360009054906101000a900473ffffffffffffffffffffffffffffffffffffffff1673ffffffffffffffffffffffffffffffffffffffff1614611c17576040517f08c379a0000000000000000000000000000000000000000000000000000000008152600401611c0e90614c80565b60405180910390fd5b80600360006101000a81548173ffffffffffffffffffffffffffffffffffffffff021916908373ffffffffffffffffffffffffffffffffffffffff16021790555050565b6000806000806000600660008781526020019081526020016000206040518061012001604052908160008201548152602001600182018054611c9c906142c2565b80601f0160208091040260200160405190810160405280929190818152602001828054611cc8906142c2565b8015611d155780601f10611cea57610100808354040283529160200191611d15565b820191906000526020600020905b815481529060010190602001808311611cf857829003601f168201915b50505050508152602001600282018054611d2e906142c2565b80601f0160208091040260200160405190810160405280929190818152602001828054611d5a906142c2565b8015611da75780601f10611d7c57610100808354040283529160200191611da7565b820191906000526020600020905b815481529060010190602001808311611d8a57829003601f168201915b50505050508152602001600382015481526020016004820160009054906101000a900473ffffffffffffffffffffffffffffffffffffffff1673ffffffffffffffffffffffffffffffffffffffff1673ffffffffffffffffffffffffffffffffffffffff1681526020016004820160149054906101000a900460ff161515151581526020016004820160159054906101000a900460ff161515151581526020016005820160009054906101000a900473ffffffffffffffffffffffffffffffffffffffff1673ffffffffffffffffffffffffffffffffffffffff1673ffffffffffffffffffffffffffffffffffffffff168152602001600682015481525050905080600001518161010001518260a0015183608001519450945094509450509193509193565b600160009054906101000a900473ffffffffffffffffffffffffffffffffffffffff1673ffffffffffffffffffffffffffffffffffffffff163373ffffffffffffffffffffffffffffffffffffffff1614611f5d576040517f08c379a0000000000000000000000000000000000000000000000000000000008152600401611f5490614066565b60405180910390fd5b600073ffffffffffffffffffffffffffffffffffffffff168173ffffffffffffffffffffffffffffffffffffffff1603611fcc576040517f08c379a0000000000000000000000000000000000000000000000000000000008152600401611fc390614d12565b60405180910390fd5b600073ffffffffffffffffffffffffffffffffffffffff16600260009054906101000a900473ffffffffffffffffffffffffffffffffffffffff1673ffffffffffffffffffffffffffffffffffffffff161461205d576040517f08c379a000000000000000000000000000000000000000000000000000000000815260040161205490614d7e565b60405180910390fd5b80600260006101000a81548173ffffffffffffffffffffffffffffffffffffffff021916908373ffffffffffffffffffffffffffffffffffffffff16021790555050565b6007602052816000526040600020602052806000526040600020600091509150505481565b600160009054906101000a900473ffffffffffffffffffffffffffffffffffffffff1673ffffffffffffffffffffffffffffffffffffffff163373ffffffffffffffffffffffffffffffffffffffff1614612156576040517f08c379a000000000000000000000000000000000000000000000000000000000815260040161214d90614066565b60405180910390fd5b600073ffffffffffffffffffffffffffffffffffffffff168173ffffffffffffffffffffffffffffffffffffffff16036121c5576040517f08c379a00000000000000000000000000000000000000000000000000000000081526004016121bc90614e10565b60405180910390fd5b80600560006101000a81548173ffffffffffffffffffffffffffffffffffffffff021916908373ffffffffffffffffffffffffffffffffffffffff16021790555050565b600260009054906101000a900473ffffffffffffffffffffffffffffffffffffffff1681565b600560009054906101000a900473ffffffffffffffffffffffffffffffffffffffff1681565b600060066000868152602001908152602001600020905060008160000154036122b3576040517f08c379a00000000000000000000000000000000000000000000000000000000081526004016122aa9061423c565b60405180910390fd5b3373ffffffffffffffffffffffffffffffffffffffff168160040160009054906101000a900473ffffffffffffffffffffffffffffffffffffffff1673ffffffffffffffffffffffffffffffffffffffff16148061235e5750600160009054906101000a900473ffffffffffffffffffffffffffffffffffffffff1673ffffffffffffffffffffffffffffffffffffffff163373ffffffffffffffffffffffffffffffffffffffff16145b61239d576040517f08c379a000000000000000000000000000000000000000000000000000000000815260040161239490614e7c565b60405180910390fd5b838160010190816123ae9190614a1c565b50828160020190816123c09190614a1c565b50818160030181905550847f654ac6225ec8b31d886f6fcc6e9af842134f69f7836e08423597338e23845c3c8585856040516123fe93929190614e9c565b60405180910390a25050505050565b6000600660008481526020019081526020016000209050600081600001540361246b576040517f08c379a00000000000000000000000000000000000000000000000000000000081526004016124629061423c565b60405180910390fd5b3373ffffffffffffffffffffffffffffffffffffffff168160040160009054906101000a900473ffffffffffffffffffffffffffffffffffffffff1673ffffffffffffffffffffffffffffffffffffffff16146124fd576040517f08c379a00000000000000000000000000000000000000000000000000000000081526004016124f490614f2d565b60405180910390fd5b600073ffffffffffffffffffffffffffffffffffffffff168273ffffffffffffffffffffffffffffffffffffffff160361256c576040517f08c379a000000000000000000000000000000000000000000000000000000000815260040161256390614f99565b60405180910390fd5b600073ffffffffffffffffffffffffffffffffffffffff16600360009054906101000a900473ffffffffffffffffffffffffffffffffffffffff1673ffffffffffffffffffffffffffffffffffffffff16146126af576000600360009054906101000a900473ffffffffffffffffffffffffffffffffffffffff16905060008173ffffffffffffffffffffffffffffffffffffffff1663ac06b0d8866040518263ffffffff1660e01b81526004016126249190613d45565b60e060405180830381865afa158015612641573d6000803e3d6000fd5b505050506040513d601f19601f820116820180604052508101906126659190614402565b90508060c00151156126ac576040517f08c379a00000000000000000000000000000000000000000000000000000000081526004016126a39061447b565b60405180910390fd5b50505b60008160040160009054906101000a900473ffffffffffffffffffffffffffffffffffffffff169050828260040160006101000a81548173ffffffffffffffffffffffffffffffffffffffff021916908373ffffffffffffffffffffffffffffffffffffffff160217905550612726818486613349565b8273ffffffffffffffffffffffffffffffffffffffff168173ffffffffffffffffffffffffffffffffffffffff16857fa734cb2f19bf4f0a57c6774e43592bf13c4f40e7e647c19534ef0037ec22809385600601546040516127889190613d45565b60405180910390a450505050565b60045481565b600160009054906101000a900473ffffffffffffffffffffffffffffffffffffffff1673ffffffffffffffffffffffffffffffffffffffff163373ffffffffffffffffffffffffffffffffffffffff161461282c576040517f08c379a000000000000000000000000000000000000000000000000000000000815260040161282390614066565b60405180910390fd5b6000600660008381526020019081526020016000209050600081600001540361288a576040517f08c379a00000000000000000000000000000000000000000000000000000000081526004016128819061423c565b60405180910390fd5b8060040160159054906101000a900460ff166128db576040517f08c379a00000000000000000000000000000000000000000000000000000000081526004016128d290615005565b60405180910390fd5b60008160040160156101000a81548160ff02191690831515021790555060008160050160006101000a81548173ffffffffffffffffffffffffffffffffffffffff021916908373ffffffffffffffffffffffffffffffffffffffff1602179055503373ffffffffffffffffffffffffffffffffffffffff16827f13e58c5297535abb7dd19208f08aecd1d5e5f82bfc3a8ce7ff527b8a71bdc1ce60405160405180910390a35050565b600260009054906101000a900473ffffffffffffffffffffffffffffffffffffffff1673ffffffffffffffffffffffffffffffffffffffff163373ffffffffffffffffffffffffffffffffffffffff1614612a14576040517f08c379a0000000000000000000000000000000000000000000000000000000008152600401612a0b90615097565b60405180910390fd5b60006006600084815260200190815260200160002090506000816000015403612a72576040517f08c379a0000000000000000000000000000000000000000000000000000000008152600401612a699061423c565b60405180910390fd5b600073ffffffffffffffffffffffffffffffffffffffff168273ffffffffffffffffffffffffffffffffffffffff1603612ae1576040517f08c379a0000000000000000000000000000000000000000000000000000000008152600401612ad890614f99565b60405180910390fd5b600073ffffffffffffffffffffffffffffffffffffffff16600360009054906101000a900473ffffffffffffffffffffffffffffffffffffffff1673ffffffffffffffffffffffffffffffffffffffff1614612c24576000600360009054906101000a900473ffffffffffffffffffffffffffffffffffffffff16905060008173ffffffffffffffffffffffffffffffffffffffff1663ac06b0d8866040518263ffffffff1660e01b8152600401612b999190613d45565b60e060405180830381865afa158015612bb6573d6000803e3d6000fd5b505050506040513d601f19601f82011682018060405250810190612bda9190614402565b90508060c0015115612c21576040517f08c379a0000000000000000000000000000000000000000000000000000000008152600401612c189061447b565b60405180910390fd5b50505b60008160040160009054906101000a900473ffffffffffffffffffffffffffffffffffffffff169050828260040160006101000a81548173ffffffffffffffffffffffffffffffffffffffff021916908373ffffffffffffffffffffffffffffffffffffffff160217905550612c9b818486613349565b8273ffffffffffffffffffffffffffffffffffffffff168173ffffffffffffffffffffffffffffffffffffffff16857fa734cb2f19bf4f0a57c6774e43592bf13c4f40e7e647c19534ef0037ec2280938560060154604051612cfd9190613d45565b60405180910390a450505050565b600160009054906101000a900473ffffffffffffffffffffffffffffffffffffffff1673ffffffffffffffffffffffffffffffffffffffff163373ffffffffffffffffffffffffffffffffffffffff1614612d9b576040517f08c379a0000000000000000000000000000000000000000000000000000000008152600401612d9290614066565b60405180910390fd5b600047905060008111612de3576040517f08c379a0000000000000000000000000000000000000000000000000000000008152600401612dda90615103565b60405180910390fd5b6000600160009054906101000a900473ffffffffffffffffffffffffffffffffffffffff1673ffffffffffffffffffffffffffffffffffffffff1682604051612e2b90615154565b60006040518083038185875af1925050503d8060008114612e68576040519150601f19603f3d011682016040523d82523d6000602084013e612e6d565b606091505b5050905080612eb1576040517f08c379a0000000000000000000000000000000000000000000000000000000008152600401612ea8906151b5565b60405180910390fd5b5050565b60086020528160005260406000208181548110612ed157600080fd5b90600052602060002001600091509150505481565b600360009054906101000a900473ffffffffffffffffffffffffffffffffffffffff1681565b6006602052806000526040600020600091509050806000015490806001018054612f35906142c2565b80601f0160208091040260200160405190810160405280929190818152602001828054612f61906142c2565b8015612fae5780601f10612f8357610100808354040283529160200191612fae565b820191906000526020600020905b815481529060010190602001808311612f9157829003601f168201915b505050505090806002018054612fc3906142c2565b80601f0160208091040260200160405190810160405280929190818152602001828054612fef906142c2565b801561303c5780601f106130115761010080835404028352916020019161303c565b820191906000526020600020905b81548152906001019060200180831161301f57829003601f168201915b5050505050908060030154908060040160009054906101000a900473ffffffffffffffffffffffffffffffffffffffff16908060040160149054906101000a900460ff16908060040160159054906101000a900460ff16908060050160009054906101000a900473ffffffffffffffffffffffffffffffffffffffff16908060060154905089565b600160009054906101000a900473ffffffffffffffffffffffffffffffffffffffff1681565b600260005403613126576040517f3ee5aeb500000000000000000000000000000000000000000000000000000000815260040160405180910390fd5b6002600081905550565b6001600081905550565b6000600860008473ffffffffffffffffffffffffffffffffffffffff1673ffffffffffffffffffffffffffffffffffffffff16815260200190815260200160002090506000600760008573ffffffffffffffffffffffffffffffffffffffff1673ffffffffffffffffffffffffffffffffffffffff16815260200190815260200160002060008481526020019081526020016000205490508180549050811080156132015750828282815481106131f4576131f36151d5565b5b9060005260206000200154145b156133435781600183805490506132189190615204565b81548110613229576132286151d5565b5b9060005260206000200154828281548110613247576132466151d5565b5b906000526020600020018190555080600760008673ffffffffffffffffffffffffffffffffffffffff1673ffffffffffffffffffffffffffffffffffffffff16815260200190815260200160002060008484815481106132aa576132a96151d5565b5b9060005260206000200154815260200190815260200160002081905550818054806132d8576132d7615238565b5b60019003818190600052602060002001600090559055600760008573ffffffffffffffffffffffffffffffffffffffff1673ffffffffffffffffffffffffffffffffffffffff1681526020019081526020016000206000848152602001908152602001600020600090555b50505050565b6000600860008573ffffffffffffffffffffffffffffffffffffffff1673ffffffffffffffffffffffffffffffffffffffff16815260200190815260200160002090506000600760008673ffffffffffffffffffffffffffffffffffffffff1673ffffffffffffffffffffffffffffffffffffffff1681526020019081526020016000206000848152602001908152602001600020549050818054905081108015613410575082828281548110613403576134026151d5565b5b9060005260206000200154145b156135525781600183805490506134279190615204565b81548110613438576134376151d5565b5b9060005260206000200154828281548110613456576134556151d5565b5b906000526020600020018190555080600760008773ffffffffffffffffffffffffffffffffffffffff1673ffffffffffffffffffffffffffffffffffffffff16815260200190815260200160002060008484815481106134b9576134b86151d5565b5b9060005260206000200154815260200190815260200160002081905550818054806134e7576134e6615238565b5b60019003818190600052602060002001600090559055600760008673ffffffffffffffffffffffffffffffffffffffff1673ffffffffffffffffffffffffffffffffffffffff1681526020019081526020016000206000848152602001908152602001600020600090555b6000600860008673ffffffffffffffffffffffffffffffffffffffff1673ffffffffffffffffffffffffffffffffffffffff168152602001908152602001600020905061359f858561362d565b613625578080549050600760008773ffffffffffffffffffffffffffffffffffffffff1673ffffffffffffffffffffffffffffffffffffffff168152602001908152602001600020600086815260200190815260200160002081905550808490806001815401808255809150506001900390600052602060002001600090919091909150555b505050505050565b6000600860008473ffffffffffffffffffffffffffffffffffffffff1673ffffffffffffffffffffffffffffffffffffffff16815260200190815260200160002080549050600760008573ffffffffffffffffffffffffffffffffffffffff1673ffffffffffffffffffffffffffffffffffffffff16815260200190815260200160002060008481526020019081526020016000205410801561377a575081600860008573ffffffffffffffffffffffffffffffffffffffff1673ffffffffffffffffffffffffffffffffffffffff168152602001908152602001600020600760008673ffffffffffffffffffffffffffffffffffffffff1673ffffffffffffffffffffffffffffffffffffffff1681526020019081526020016000206000858152602001908152602001600020548154811061376d5761376c6151d5565b5b9060005260206000200154145b905092915050565b50805461378e906142c2565b6000825580601f106137a057506137bf565b601f0160209004906000526020600020908101906137be91906137c2565b5b50565b5b808211156137db5760008160009055506001016137c3565b5090565b6000604051905090565b600080fd5b600080fd5b600073ffffffffffffffffffffffffffffffffffffffff82169050919050565b600061381e826137f3565b9050919050565b61382e81613813565b811461383957600080fd5b50565b60008135905061384b81613825565b92915050565b600060208284031215613867576138666137e9565b5b60006138758482850161383c565b91505092915050565b600081519050919050565b600082825260208201905092915050565b6000819050602082019050919050565b6000819050919050565b6138bd816138aa565b82525050565b60006138cf83836138b4565b60208301905092915050565b6000602082019050919050565b60006138f38261387e565b6138fd8185613889565b93506139088361389a565b8060005b8381101561393957815161392088826138c3565b975061392b836138db565b92505060018101905061390c565b5085935050505092915050565b6000602082019050818103600083015261396081846138e8565b905092915050565b613971816138aa565b811461397c57600080fd5b50565b60008135905061398e81613968565b92915050565b6000602082840312156139aa576139a96137e9565b5b60006139b88482850161397f565b91505092915050565b60008115159050919050565b6139d6816139c1565b82525050565b60006020820190506139f160008301846139cd565b92915050565b60008060408385031215613a0e57613a0d6137e9565b5b6000613a1c8582860161397f565b9250506020613a2d8582860161397f565b9150509250929050565b613a40816138aa565b82525050565b600081519050919050565b600082825260208201905092915050565b60005b83811015613a80578082015181840152602081019050613a65565b60008484015250505050565b6000601f19601f8301169050919050565b6000613aa882613a46565b613ab28185613a51565b9350613ac2818560208601613a62565b613acb81613a8c565b840191505092915050565b613adf81613813565b82525050565b600061010082019050613afb600083018b613a37565b8181036020830152613b0d818a613a9d565b90508181036040830152613b218189613a9d565b9050613b306060830188613a37565b613b3d6080830187613ad6565b613b4a60a08301866139cd565b613b5760c08301856139cd565b613b6460e0830184613ad6565b9998505050505050505050565b600080fd5b600080fd5b7f4e487b7100000000000000000000000000000000000000000000000000000000600052604160045260246000fd5b613bb382613a8c565b810181811067ffffffffffffffff82111715613bd257613bd1613b7b565b5b80604052505050565b6000613be56137df565b9050613bf18282613baa565b919050565b600067ffffffffffffffff821115613c1157613c10613b7b565b5b613c1a82613a8c565b9050602081019050919050565b82818337600083830152505050565b6000613c49613c4484613bf6565b613bdb565b905082815260208101848484011115613c6557613c64613b76565b5b613c70848285613c27565b509392505050565b600082601f830112613c8d57613c8c613b71565b5b8135613c9d848260208601613c36565b91505092915050565b60008060008060808587031215613cc057613cbf6137e9565b5b600085013567ffffffffffffffff811115613cde57613cdd6137ee565b5b613cea87828801613c78565b945050602085013567ffffffffffffffff811115613d0b57613d0a6137ee565b5b613d1787828801613c78565b9350506040613d288782880161397f565b9250506060613d398782880161383c565b91505092959194509250565b6000602082019050613d5a6000830184613a37565b92915050565b6000608082019050613d756000830187613a37565b613d826020830186613a37565b613d8f60408301856139cd565b613d9c6060830184613ad6565b95945050505050565b60008060408385031215613dbc57613dbb6137e9565b5b6000613dca8582860161383c565b9250506020613ddb8582860161397f565b9150509250929050565b6000602082019050613dfa6000830184613ad6565b92915050565b6000819050919050565b6000613e25613e20613e1b846137f3565b613e00565b6137f3565b9050919050565b6000613e3782613e0a565b9050919050565b6000613e4982613e2c565b9050919050565b613e5981613e3e565b82525050565b6000602082019050613e746000830184613e50565b92915050565b60008060008060808587031215613e9457613e936137e9565b5b6000613ea28782880161397f565b945050602085013567ffffffffffffffff811115613ec357613ec26137ee565b5b613ecf87828801613c78565b935050604085013567ffffffffffffffff811115613ef057613eef6137ee565b5b613efc87828801613c78565b9250506060613f0d8782880161397f565b91505092959194509250565b60008060408385031215613f3057613f2f6137e9565b5b6000613f3e8582860161397f565b9250506020613f4f8582860161383c565b9150509250929050565b600061012082019050613f6f600083018c613a37565b8181036020830152613f81818b613a9d565b90508181036040830152613f95818a613a9d565b9050613fa46060830189613a37565b613fb16080830188613ad6565b613fbe60a08301876139cd565b613fcb60c08301866139cd565b613fd860e0830185613ad6565b613fe6610100830184613a37565b9a9950505050505050505050565b7f4f6e6c792061646d696e2063616e20706572666f726d2074686973206163746960008201527f6f6e000000000000000000000000000000000000000000000000000000000000602082015250565b6000614050602283613a51565b915061405b82613ff4565b604082019050919050565b6000602082019050818103600083015261407f81614043565b9050919050565b7f546f6b656e20616d6f756e74206d75737420626520677265617465722074686160008201527f6e207a65726f0000000000000000000000000000000000000000000000000000602082015250565b60006140e2602683613a51565b91506140ed82614086565b604082019050919050565b60006020820190508181036000830152614111816140d5565b9050919050565b7f50726f706572747920697320616c726561647920746f6b656e697a6564000000600082015250565b600061414e601d83613a51565b915061415982614118565b602082019050919050565b6000602082019050818103600083015261417d81614141565b9050919050565b7f50726f7065727479206d75737420626520766572696669656400000000000000600082015250565b60006141ba601983613a51565b91506141c582614184565b602082019050919050565b600060208201905081810360008301526141e9816141ad565b9050919050565b7f50726f706572747920646f6573206e6f74206578697374000000000000000000600082015250565b6000614226601783613a51565b9150614231826141f0565b602082019050919050565b6000602082019050818103600083015261425581614219565b9050919050565b60006060820190506142716000830186613a37565b61427e6020830185613ad6565b61428b6040830184613a37565b949350505050565b7f4e487b7100000000000000000000000000000000000000000000000000000000600052602260045260246000fd5b600060028204905060018216806142da57607f821691505b6020821081036142ed576142ec614293565b5b50919050565b600080fd5b60008151905061430781613968565b92915050565b60008151905061431c81613825565b92915050565b61432b816139c1565b811461433657600080fd5b50565b60008151905061434881614322565b92915050565b600060e08284031215614364576143636142f3565b5b61436e60e0613bdb565b9050600061437e848285016142f8565b6000830152506020614392848285016142f8565b60208301525060406143a68482850161430d565b60408301525060606143ba8482850161430d565b60608301525060806143ce848285016142f8565b60808301525060a06143e2848285016142f8565b60a08301525060c06143f684828501614339565b60c08301525092915050565b600060e08284031215614418576144176137e9565b5b60006144268482850161434e565b91505092915050565b7f50726f70657274792069732063757272656e746c792072656e74656400000000600082015250565b6000614465601c83613a51565b91506144708261442f565b602082019050919050565b6000602082019050818103600083015261449481614458565b9050919050565b600080600080608085870312156144b5576144b46137e9565b5b60006144c3878288016142f8565b94505060206144d4878288016142f8565b93505060406144e58782880161430d565b92505060606144f687828801614339565b91505092959194509250565b7f50726f7065727479206973206c697374656420666f722073616c650000000000600082015250565b6000614538601b83613a51565b915061454382614502565b602082019050919050565b600060208201905081810360008301526145678161452b565b9050919050565b600060208284031215614584576145836137e9565b5b6000614592848285016142f8565b91505092915050565b7f496e73756666696369656e7420746f6b656e7320746f206275726e0000000000600082015250565b60006145d1601b83613a51565b91506145dc8261459b565b602082019050919050565b60006020820190508181036000830152614600816145c4565b9050919050565b7f50726f7065727479206c6f636174696f6e2063616e6e6f7420626520656d707460008201527f7900000000000000000000000000000000000000000000000000000000000000602082015250565b6000614663602183613a51565b915061466e82614607565b604082019050919050565b6000602082019050818103600083015261469281614656565b9050919050565b7f50726f70657274792076616c7565206d7573742062652067726561746572207460008201527f68616e207a65726f000000000000000000000000000000000000000000000000602082015250565b60006146f5602883613a51565b915061470082614699565b604082019050919050565b60006020820190508181036000830152614724816146e8565b9050919050565b7f50726f7065727479204e616d652063616e6e6f7420626520656d707479000000600082015250565b6000614761601d83613a51565b915061476c8261472b565b602082019050919050565b6000602082019050818103600083015261479081614754565b9050919050565b7f496e76616c6964206f776e657220616464726573730000000000000000000000600082015250565b60006147cd601583613a51565b91506147d882614797565b602082019050919050565b600060208201905081810360008301526147fc816147c0565b9050919050565b7f4e487b7100000000000000000000000000000000000000000000000000000000600052601160045260246000fd5b600061483d826138aa565b91507fffffffffffffffffffffffffffffffffffffffffffffffffffffffffffffffff820361486f5761486e614803565b5b600182019050919050565b60008190508160005260206000209050919050565b60006020601f8301049050919050565b600082821b905092915050565b6000600883026148dc7fffffffffffffffffffffffffffffffffffffffffffffffffffffffffffffffff8261489f565b6148e6868361489f565b95508019841693508086168417925050509392505050565b600061491961491461490f846138aa565b613e00565b6138aa565b9050919050565b6000819050919050565b614933836148fe565b61494761493f82614920565b8484546148ac565b825550505050565b600090565b61495c61494f565b61496781848461492a565b505050565b5b8181101561498b57614980600082614954565b60018101905061496d565b5050565b601f8211156149d0576149a18161487a565b6149aa8461488f565b810160208510156149b9578190505b6149cd6149c58561488f565b83018261496c565b50505b505050565b600082821c905092915050565b60006149f3600019846008026149d5565b1980831691505092915050565b6000614a0c83836149e2565b9150826002028217905092915050565b614a2582613a46565b67ffffffffffffffff811115614a3e57614a3d613b7b565b5b614a4882546142c2565b614a5382828561498f565b600060209050601f831160018114614a865760008415614a74578287015190505b614a7e8582614a00565b865550614ae6565b601f198416614a948661487a565b60005b82811015614abc57848901518255600182019150602085019450602081019050614a97565b86831015614ad95784890151614ad5601f8916826149e2565b8355505b6001600288020188555050505b505050505050565b60006020820190508181036000830152614b088184613a9d565b905092915050565b7f50726f706572747920697320616c726561647920766572696669656400000000600082015250565b6000614b46601c83613a51565b9150614b5182614b10565b602082019050919050565b60006020820190508181036000830152614b7581614b39565b9050919050565b7f52656e74616c436f6e747261637420616464726573732063616e6e6f7420626560008201527f207a65726f000000000000000000000000000000000000000000000000000000602082015250565b6000614bd8602583613a51565b9150614be382614b7c565b604082019050919050565b60006020820190508181036000830152614c0781614bcb565b9050919050565b7f52656e74616c436f6e7472616374206164647265737320616c7265616479207360008201527f6574000000000000000000000000000000000000000000000000000000000000602082015250565b6000614c6a602283613a51565b9150614c7582614c0e565b604082019050919050565b60006020820190508181036000830152614c9981614c5d565b9050919050565b7f4d61726b6574706c61636520616464726573732063616e6e6f74206265207a6560008201527f726f000000000000000000000000000000000000000000000000000000000000602082015250565b6000614cfc602283613a51565b9150614d0782614ca0565b604082019050919050565b60006020820190508181036000830152614d2b81614cef565b9050919050565b7f4d61726b6574706c616365206164647265737320616c72656164792073657400600082015250565b6000614d68601f83613a51565b9150614d7382614d32565b602082019050919050565b60006020820190508181036000830152614d9781614d5b565b9050919050565b7f5574696c697479546f6b656e20616464726573732063616e6e6f74206265207a60008201527f65726f0000000000000000000000000000000000000000000000000000000000602082015250565b6000614dfa602383613a51565b9150614e0582614d9e565b604082019050919050565b60006020820190508181036000830152614e2981614ded565b9050919050565b7f4f6e6c79206f776e6572206f722061646d696e2063616e207570646174650000600082015250565b6000614e66601e83613a51565b9150614e7182614e30565b602082019050919050565b60006020820190508181036000830152614e9581614e59565b9050919050565b60006060820190508181036000830152614eb68186613a9d565b90508181036020830152614eca8185613a9d565b9050614ed96040830184613a37565b949350505050565b7f4f6e6c792063757272656e74206f776e65722063616e207472616e7366657200600082015250565b6000614f17601f83613a51565b9150614f2282614ee1565b602082019050919050565b60006020820190508181036000830152614f4681614f0a565b9050919050565b7f4e6577206f776e65722063616e6e6f74206265207a65726f2061646472657373600082015250565b6000614f83602083613a51565b9150614f8e82614f4d565b602082019050919050565b60006020820190508181036000830152614fb281614f76565b9050919050565b7f50726f7065727479206973206e6f742076657269666965640000000000000000600082015250565b6000614fef601883613a51565b9150614ffa82614fb9565b602082019050919050565b6000602082019050818103600083015261501e81614fe2565b9050919050565b7f4f6e6c79206d61726b6574706c6163652063616e20706572666f726d2074686960008201527f7320616374696f6e000000000000000000000000000000000000000000000000602082015250565b6000615081602883613a51565b915061508c82615025565b604082019050919050565b600060208201905081810360008301526150b081615074565b9050919050565b7f4e6f2045544820746f2077697468647261770000000000000000000000000000600082015250565b60006150ed601283613a51565b91506150f8826150b7565b602082019050919050565b6000602082019050818103600083015261511c816150e0565b9050919050565b600081905092915050565b50565b600061513e600083615123565b91506151498261512e565b600082019050919050565b600061515f82615131565b9150819050919050565b7f455448207769746864726177616c206661696c65640000000000000000000000600082015250565b600061519f601583613a51565b91506151aa82615169565b602082019050919050565b600060208201905081810360008301526151ce81615192565b9050919050565b7f4e487b7100000000000000000000000000000000000000000000000000000000600052603260045260246000fd5b600061520f826138aa565b915061521a836138aa565b925082820390508181111561523257615231614803565b5b92915050565b7f4e487b7100000000000000000000000000000000000000000000000000000000600052603160045260246000fdfea2646970667358221220b41ed6f950535bd7fa6795763abc7294cf47f9c16d66682bc02b39a8a87b571464736f6c634300081b0033",
  "linkReferences": {},
  "deployedLinkReferences": {}
}