{
  "_format": "hh-sol-artifact-1",
  "contractName": "UtilityToken",
  "sourceName": "contracts/UtilityToken.sol",
  "abi": [
    {
      "inputs": [],
      "stateMutability": "nonpayable",
      "type": "constructor"
    },
    {
      "inputs": [
        {
          "internalType": "address",
          "name": "spender",
          "type": "address"
        },
        {
          "internalType": "uint256",
          "name": "allowance",
          "type": "uint256"
        },
        {
          "internalType": "uint256",
          "name": "needed",
          "type": "uint256"
        }
      ],
      "name": "ERC20InsufficientAllowance",
      "type": "error"
    },
    {
      "inputs": [
        {
          "internalType": "address",
          "name": "sender",
          "type": "address"
        },
        {
          "internalType": "uint256",
          "name": "balance",
          "type": "uint256"
        },
        {
          "internalType": "uint256",
          "name": "needed",
          "type": "uint256"
        }
      ],
      "name": "ERC20InsufficientBalance",
      "type": "error"
    },
    {
      "inputs": [
        {
          "internalType": "address",
          "name": "approver",
          "type": "address"
        }
      ],
      "name": "ERC20InvalidApprover",
      "type": "error"
    },
    {
      "inputs": [
        {
          "internalType": "address",
          "name": "receiver",
          "type": "address"
        }
      ],
      "name": "ERC20InvalidReceiver",
      "type": "error"
    },
    {
      "inputs": [
        {
          "internalType": "address",
          "name": "sender",
          "type": "address"
        }
      ],
      "name": "ERC20InvalidSender",
      "type": "error"
    },
    {
      "inputs": [
        {
          "internalType": "address",
          "name": "spender",
          "type": "address"
        }
      ],
      "name": "ERC20InvalidSpender",
      "type": "error"
    },
    {
      "inputs": [
        {
          "internalType": "address",
          "name": "owner",
          "type": "address"
        }
      ],
      "name": "OwnableInvalidOwner",
      "type": "error"
    },
    {
      "inputs": [
        {
          "internalType": "address",
          "name": "account",
          "type": "address"
        }
      ],
      "name": "OwnableUnauthorizedAccount",
      "type": "error"
    },
    {
      "inputs": [],
      "name": "ReentrancyGuardReentrantCall",
      "type": "error"
    },
    {
      "anonymous": false,
      "inputs": [
        {
          "indexed": true,
          "internalType": "address",
          "name": "owner",
          "type": "address"
        },
        {
          "indexed": true,
          "internalType": "address",
          "name": "spender",
          "type": "address"
        },
        {
          "indexed": false,
          "internalType": "uint256",
          "name": "value",
          "type": "uint256"
        }
      ],
      "name": "Approval",
      "type": "event"
    },
    {
      "anonymous": false,
      "inputs": [
        {
          "indexed": true,
          "internalType": "address",
          "name": "previousOwner",
          "type": "address"
        },
        {
          "indexed": true,
          "internalType": "address",
          "name": "newOwner",
          "type": "address"
        }
      ],
      "name": "OwnershipTransferred",
      "type": "event"
    },
    {
      "anonymous": false,
      "inputs": [
        {
          "indexed": true,
          "internalType": "uint256",
          "name": "propertyId",
          "type": "uint256"
        },
        {
          "indexed": true,
          "internalType": "address",
          "name": "oldOwner",
          "type": "address"
        },
        {
          "indexed": true,
          "internalType": "address",
          "name": "newOwner",
          "type": "address"
        }
      ],
      "name": "PropertyOwnershipTransferred",
      "type": "event"
    },
    {
      "anonymous": false,
      "inputs": [
        {
          "indexed": true,
          "internalType": "address",
          "name": "realEstateManager",
          "type": "address"
        }
      ],
      "name": "RealEstateManagerSet",
      "type": "event"
    },
    {
      "anonymous": false,
      "inputs": [
        {
          "indexed": true,
          "internalType": "uint256",
          "name": "propertyId",
          "type": "uint256"
        },
        {
          "indexed": true,
          "internalType": "address",
          "name": "to",
          "type": "address"
        },
        {
          "indexed": false,
          "internalType": "uint256",
          "name": "amount",
          "type": "uint256"
        }
      ],
      "name": "TokensMintedForProperty",
      "type": "event"
    },
    {
      "anonymous": false,
      "inputs": [
        {
          "indexed": true,
          "internalType": "address",
          "name": "from",
          "type": "address"
        },
        {
          "indexed": true,
          "internalType": "address",
          "name": "to",
          "type": "address"
        },
        {
          "indexed": false,
          "internalType": "uint256",
          "name": "value",
          "type": "uint256"
        }
      ],
      "name": "Transfer",
      "type": "event"
    },
    {
      "anonymous": false,
      "inputs": [
        {
          "indexed": true,
          "internalType": "uint256",
          "name": "propertyId",
          "type": "uint256"
        },
        {
          "indexed": false,
          "internalType": "uint256",
          "name": "amount",
          "type": "uint256"
        }
      ],
      "name": "YieldDistributed",
      "type": "event"
    },
    {
      "inputs": [],
      "name": "INITIAL_SUPPLY",
      "outputs": [
        {
          "internalType": "uint256",
          "name": "",
          "type": "uint256"
        }
      ],
      "stateMutability": "view",
      "type": "function"
    },
    {
      "inputs": [],
      "name": "TOKENS_PER_ETH",
      "outputs": [
        {
          "internalType": "uint256",
          "name": "",
          "type": "uint256"
        }
      ],
      "stateMutability": "view",
      "type": "function"
    },
    {
      "inputs": [],
      "name": "WEI_PER_TOKEN",
      "outputs": [
        {
          "internalType": "uint256",
          "name": "",
          "type": "uint256"
        }
      ],
      "stateMutability": "view",
      "type": "function"
    },
    {
      "inputs": [],
      "name": "admin",
      "outputs": [
        {
          "internalType": "address",
          "name": "",
          "type": "address"
        }
      ],
      "stateMutability": "view",
      "type": "function"
    },
    {
      "inputs": [
        {
          "internalType": "address",
          "name": "owner",
          "type": "address"
        },
        {
          "internalType": "address",
          "name": "spender",
          "type": "address"
        }
      ],
      "name": "allowance",
      "outputs": [
        {
          "internalType": "uint256",
          "name": "",
          "type": "uint256"
        }
      ],
      "stateMutability": "view",
      "type": "function"
    },
    {
      "inputs": [
        {
          "internalType": "address",
          "name": "spender",
          "type": "address"
        },
        {
          "internalType": "uint256",
          "name": "value",
          "type": "uint256"
        }
      ],
      "name": "approve",
      "outputs": [
        {
          "internalType": "bool",
          "name": "",
          "type": "bool"
        }
      ],
      "stateMutability": "nonpayable",
      "type": "function"
    },
    {
      "inputs": [
        {
          "internalType": "address",
          "name": "account",
          "type": "address"
        }
      ],
      "name": "balanceOf",
      "outputs": [
        {
          "internalType": "uint256",
          "name": "",
          "type": "uint256"
        }
      ],
      "stateMutability": "view",
      "type": "function"
    },
    {
      "inputs": [
        {
          "internalType": "uint256",
          "name": "amount",
          "type": "uint256"
        }
      ],
      "name": "burn",
      "outputs": [],
      "stateMutability": "nonpayable",
      "type": "function"
    },
    {
      "inputs": [
        {
          "internalType": "uint256",
          "name": "_amount",
          "type": "uint256"
        }
      ],
      "name": "buy",
      "outputs": [],
      "stateMutability": "payable",
      "type": "function"
    },
    {
      "inputs": [
        {
          "internalType": "uint256",
          "name": "_amount",
          "type": "uint256"
        }
      ],
      "name": "calculatePrice",
      "outputs": [
        {
          "internalType": "uint256",
          "name": "",
          "type": "uint256"
        }
      ],
      "stateMutability": "pure",
      "type": "function"
    },
    {
      "inputs": [],
      "name": "decimals",
      "outputs": [
        {
          "internalType": "uint8",
          "name": "",
          "type": "uint8"
        }
      ],
      "stateMutability": "view",
      "type": "function"
    },
    {
      "inputs": [
        {
          "internalType": "uint256",
          "name": "_propertyId",
          "type": "uint256"
        },
        {
          "internalType": "uint256",
          "name": "_totalYieldInTokens",
          "type": "uint256"
        }
      ],
      "name": "distributeYield",
      "outputs": [],
      "stateMutability": "nonpayable",
      "type": "function"
    },
    {
      "inputs": [
        {
          "internalType": "address",
          "name": "_user",
          "type": "address"
        }
      ],
      "name": "getPropertiesForUser",
      "outputs": [
        {
          "internalType": "uint256[]",
          "name": "",
          "type": "uint256[]"
        }
      ],
      "stateMutability": "view",
      "type": "function"
    },
    {
      "inputs": [],
      "name": "manager",
      "outputs": [
        {
          "internalType": "address",
          "name": "",
          "type": "address"
        }
      ],
      "stateMutability": "view",
      "type": "function"
    },
    {
      "inputs": [],
      "name": "marketplace",
      "outputs": [
        {
          "internalType": "address",
          "name": "",
          "type": "address"
        }
      ],
      "stateMutability": "view",
      "type": "function"
    },
    {
      "inputs": [
        {
          "internalType": "uint256",
          "name": "_propertyId",
          "type": "uint256"
        },
        {
          "internalType": "address",
          "name": "_to",
          "type": "address"
        },
        {
          "internalType": "uint256",
          "name": "_amount",
          "type": "uint256"
        }
      ],
      "name": "mintForProperty",
      "outputs": [],
      "stateMutability": "nonpayable",
      "type": "function"
    },
    {
      "inputs": [],
      "name": "name",
      "outputs": [
        {
          "internalType": "string",
          "name": "",
          "type": "string"
        }
      ],
      "stateMutability": "view",
      "type": "function"
    },
    {
      "inputs": [],
      "name": "owner",
      "outputs": [
        {
          "internalType": "address",
          "name": "",
          "type": "address"
        }
      ],
      "stateMutability": "view",
      "type": "function"
    },
    {
      "inputs": [
        {
          "internalType": "uint256",
          "name": "amount",
          "type": "uint256"
        },
        {
          "internalType": "address",
          "name": "_serviceProvider",
          "type": "address"
        }
      ],
      "name": "payForService",
      "outputs": [],
      "stateMutability": "nonpayable",
      "type": "function"
    },
    {
      "inputs": [
        {
          "internalType": "uint256",
          "name": "",
          "type": "uint256"
        }
      ],
      "name": "propertyOwners",
      "outputs": [
        {
          "internalType": "address",
          "name": "",
          "type": "address"
        }
      ],
      "stateMutability": "view",
      "type": "function"
    },
    {
      "inputs": [
        {
          "internalType": "uint256",
          "name": "",
          "type": "uint256"
        },
        {
          "internalType": "address",
          "name": "",
          "type": "address"
        }
      ],
      "name": "propertyTokenBalances",
      "outputs": [
        {
          "internalType": "uint256",
          "name": "",
          "type": "uint256"
        }
      ],
      "stateMutability": "view",
      "type": "function"
    },
    {
      "inputs": [
        {
          "internalType": "uint256",
          "name": "",
          "type": "uint256"
        },
        {
          "internalType": "address",
          "name": "",
          "type": "address"
        }
      ],
      "name": "propertyTokenHolderIndices",
      "outputs": [
        {
          "internalType": "uint256",
          "name": "",
          "type": "uint256"
        }
      ],
      "stateMutability": "view",
      "type": "function"
    },
    {
      "inputs": [
        {
          "internalType": "uint256",
          "name": "",
          "type": "uint256"
        },
        {
          "internalType": "uint256",
          "name": "",
          "type": "uint256"
        }
      ],
      "name": "propertyTokenHolders",
      "outputs": [
        {
          "internalType": "address",
          "name": "",
          "type": "address"
        }
      ],
      "stateMutability": "view",
      "type": "function"
    },
    {
      "inputs": [
        {
          "internalType": "uint256",
          "name": "",
          "type": "uint256"
        }
      ],
      "name": "propertyTotalTokens",
      "outputs": [
        {
          "internalType": "uint256",
          "name": "",
          "type": "uint256"
        }
      ],
      "stateMutability": "view",
      "type": "function"
    },
    {
      "inputs": [],
      "name": "realEstateManager",
      "outputs": [
        {
          "internalType": "address",
          "name": "",
          "type": "address"
        }
      ],
      "stateMutability": "view",
      "type": "function"
    },
    {
      "inputs": [],
      "name": "renounceOwnership",
      "outputs": [],
      "stateMutability": "nonpayable",
      "type": "function"
    },
    {
      "inputs": [],
      "name": "rentalContract",
      "outputs": [
        {
          "internalType": "address",
          "name": "",
          "type": "address"
        }
      ],
      "stateMutability": "view",
      "type": "function"
    },
    {
      "inputs": [
        {
          "internalType": "uint256",
          "name": "_amount",
          "type": "uint256"
        }
      ],
      "name": "sell",
      "outputs": [],
      "stateMutability": "nonpayable",
      "type": "function"
    },
    {
      "inputs": [
        {
          "internalType": "address",
          "name": "_marketplace",
          "type": "address"
        }
      ],
      "name": "setMarketplace",
      "outputs": [],
      "stateMutability": "nonpayable",
      "type": "function"
    },
    {
      "inputs": [
        {
          "internalType": "address",
          "name": "_realEstateManager",
          "type": "address"
        }
      ],
      "name": "setRealEstateManager",
      "outputs": [],
      "stateMutability": "nonpayable",
      "type": "function"
    },
    {
      "inputs": [
        {
          "internalType": "address",
          "name": "_rentalContract",
          "type": "address"
        }
      ],
      "name": "setRentalContract",
      "outputs": [],
      "stateMutability": "nonpayable",
      "type": "function"
    },
    {
      "inputs": [
        {
          "internalType": "uint256",
          "name": "amount",
          "type": "uint256"
        }
      ],
      "name": "stake",
      "outputs": [],
      "stateMutability": "nonpayable",
      "type": "function"
    },
    {
      "inputs": [],
      "name": "symbol",
      "outputs": [
        {
          "internalType": "string",
          "name": "",
          "type": "string"
        }
      ],
      "stateMutability": "view",
      "type": "function"
    },
    {
      "inputs": [],
      "name": "totalSupply",
      "outputs": [
        {
          "internalType": "uint256",
          "name": "",
          "type": "uint256"
        }
      ],
      "stateMutability": "view",
      "type": "function"
    },
    {
      "inputs": [
        {
          "internalType": "address",
          "name": "to",
          "type": "address"
        },
        {
          "internalType": "uint256",
          "name": "value",
          "type": "uint256"
        }
      ],
      "name": "transfer",
      "outputs": [
        {
          "internalType": "bool",
          "name": "",
          "type": "bool"
        }
      ],
      "stateMutability": "nonpayable",
      "type": "function"
    },
    {
      "inputs": [
        {
          "internalType": "address",
          "name": "from",
          "type": "address"
        },
        {
          "internalType": "address",
          "name": "to",
          "type": "address"
        },
        {
          "internalType": "uint256",
          "name": "value",
          "type": "uint256"
        }
      ],
      "name": "transferFrom",
      "outputs": [
        {
          "internalType": "bool",
          "name": "",
          "type": "bool"
        }
      ],
      "stateMutability": "nonpayable",
      "type": "function"
    },
    {
      "inputs": [
        {
          "internalType": "address",
          "name": "newOwner",
          "type": "address"
        }
      ],
      "name": "transferOwnership",
      "outputs": [],
      "stateMutability": "nonpayable",
      "type": "function"
    },
    {
      "inputs": [
        {
          "internalType": "uint256",
          "name": "_propertyId",
          "type": "uint256"
        },
        {
          "internalType": "address",
          "name": "_newOwner",
          "type": "address"
        }
      ],
      "name": "transferPropertyOwnership",
      "outputs": [],
      "stateMutability": "nonpayable",
      "type": "function"
    },
    {
      "inputs": [
        {
          "internalType": "uint256",
          "name": "amount",
          "type": "uint256"
        }
      ],
      "name": "unstake",
      "outputs": [],
      "stateMutability": "nonpayable",
      "type": "function"
    },
    {
      "inputs": [
        {
          "internalType": "address",
          "name": "",
          "type": "address"
        },
        {
          "internalType": "uint256",
          "name": "",
          "type": "uint256"
        }
      ],
      "name": "userProperties",
      "outputs": [
        {
          "internalType": "uint256",
          "name": "",
          "type": "uint256"
        }
      ],
      "stateMutability": "view",
      "type": "function"
    },
    {
      "stateMutability": "payable",
      "type": "receive"
    }
  ],
  "bytecode": "0x608060405234801561001057600080fd5b50336040518060400160405280600f81526020017f5265616c457374617465546f6b656e00000000000000000000000000000000008152506040518060400160405280600381526020017f5245540000000000000000000000000000000000000000000000000000000000815250816003908161008d9190610787565b50806004908161009d9190610787565b505050600073ffffffffffffffffffffffffffffffffffffffff168173ffffffffffffffffffffffffffffffffffffffff16036101125760006040517f1e4fbdf7000000000000000000000000000000000000000000000000000000008152600401610109919061089a565b60405180910390fd5b610121816101c460201b60201c565b50600160068190555033600860006101000a81548173ffffffffffffffffffffffffffffffffffffffff021916908373ffffffffffffffffffffffffffffffffffffffff16021790555033600760006101000a81548173ffffffffffffffffffffffffffffffffffffffff021916908373ffffffffffffffffffffffffffffffffffffffff1602179055506101bf336298968061028a60201b60201c565b610979565b6000600560009054906101000a900473ffffffffffffffffffffffffffffffffffffffff16905081600560006101000a81548173ffffffffffffffffffffffffffffffffffffffff021916908373ffffffffffffffffffffffffffffffffffffffff1602179055508173ffffffffffffffffffffffffffffffffffffffff168173ffffffffffffffffffffffffffffffffffffffff167f8be0079c531659141344cd1fd0a4f28419497f9722a3daafe3b4186f6b6457e060405160405180910390a35050565b600073ffffffffffffffffffffffffffffffffffffffff168273ffffffffffffffffffffffffffffffffffffffff16036102fc5760006040517fec442f050000000000000000000000000000000000000000000000000000000081526004016102f3919061089a565b60405180910390fd5b61030e6000838361031260201b60201c565b5050565b600073ffffffffffffffffffffffffffffffffffffffff168373ffffffffffffffffffffffffffffffffffffffff160361036457806002600082825461035891906108e4565b92505081905550610437565b60008060008573ffffffffffffffffffffffffffffffffffffffff1673ffffffffffffffffffffffffffffffffffffffff168152602001908152602001600020549050818110156103f0578381836040517fe450d38c0000000000000000000000000000000000000000000000000000000081526004016103e793929190610927565b60405180910390fd5b8181036000808673ffffffffffffffffffffffffffffffffffffffff1673ffffffffffffffffffffffffffffffffffffffff16815260200190815260200160002081905550505b600073ffffffffffffffffffffffffffffffffffffffff168273ffffffffffffffffffffffffffffffffffffffff160361048057806002600082825403925050819055506104cd565b806000808473ffffffffffffffffffffffffffffffffffffffff1673ffffffffffffffffffffffffffffffffffffffff168152602001908152602001600020600082825401925050819055505b8173ffffffffffffffffffffffffffffffffffffffff168373ffffffffffffffffffffffffffffffffffffffff167fddf252ad1be2c89b69c2b068fc378daa952ba7f163c4a11628f55a4df523b3ef8360405161052a919061095e565b60405180910390a3505050565b600081519050919050565b7f4e487b7100000000000000000000000000000000000000000000000000000000600052604160045260246000fd5b7f4e487b7100000000000000000000000000000000000000000000000000000000600052602260045260246000fd5b600060028204905060018216806105b857607f821691505b6020821081036105cb576105ca610571565b5b50919050565b60008190508160005260206000209050919050565b60006020601f8301049050919050565b600082821b905092915050565b6000600883026106337fffffffffffffffffffffffffffffffffffffffffffffffffffffffffffffffff826105f6565b61063d86836105f6565b95508019841693508086168417925050509392505050565b6000819050919050565b6000819050919050565b600061068461067f61067a84610655565b61065f565b610655565b9050919050565b6000819050919050565b61069e83610669565b6106b26106aa8261068b565b848454610603565b825550505050565b600090565b6106c76106ba565b6106d2818484610695565b505050565b5b818110156106f6576106eb6000826106bf565b6001810190506106d8565b5050565b601f82111561073b5761070c816105d1565b610715846105e6565b81016020851015610724578190505b610738610730856105e6565b8301826106d7565b50505b505050565b600082821c905092915050565b600061075e60001984600802610740565b1980831691505092915050565b6000610777838361074d565b9150826002028217905092915050565b61079082610537565b67ffffffffffffffff8111156107a9576107a8610542565b5b6107b382546105a0565b6107be8282856106fa565b600060209050601f8311600181146107f157600084156107df578287015190505b6107e9858261076b565b865550610851565b601f1984166107ff866105d1565b60005b8281101561082757848901518255600182019150602085019450602081019050610802565b868310156108445784890151610840601f89168261074d565b8355505b6001600288020188555050505b505050505050565b600073ffffffffffffffffffffffffffffffffffffffff82169050919050565b600061088482610859565b9050919050565b61089481610879565b82525050565b60006020820190506108af600083018461088b565b92915050565b7f4e487b7100000000000000000000000000000000000000000000000000000000600052601160045260246000fd5b60006108ef82610655565b91506108fa83610655565b9250828201905080821115610912576109116108b5565b5b92915050565b61092181610655565b82525050565b600060608201905061093c600083018661088b565b6109496020830185610918565b6109566040830184610918565b949350505050565b60006020820190506109736000830184610918565b92915050565b614cdb806109886000396000f3fe60806040526004361061023f5760003560e01c806373ad6c2d1161012e578063b98dbbbc116100ab578063e4849b321161006f578063e4849b32146108e1578063e8f4e9d41461090a578063f007e9d514610935578063f2fde38b1461095e578063f851a4401461098757610246565b8063b98dbbbc146107f7578063bc6e660414610820578063d96a094a1461084b578063dd62ed3e14610867578063e2271c9f146108a457610246565b8063a9059cbb116100f2578063a9059cbb146106fe578063abc8c7af1461073b578063ac40c8d014610766578063ae1042651461078f578063b041de6d146107cc57610246565b806373ad6c2d146106195780637f2af083146106425780638da5cb5b1461067f57806395d89b41146106aa578063a694fc3a146106d557610246565b80632e17de78116101bc578063481c6a7511610180578063481c6a75146105345780635a63427e1461055f5780635de32b041461058857806370a08231146105c5578063715018a61461060257610246565b80632e17de78146104635780632ff2e9dc1461048c578063313ce567146104b75780633782fded146104e257806342966c681461050b57610246565b8063211c849f11610203578063211c849f146103585780632293dbdb1461038157806323b872dd146103ac57806327b9d677146103e9578063292bdcce1461042657610246565b806301eb1fcb1461024b57806306fdde0314610288578063095ea7b3146102b357806318160ddd146102f057806318fd3a121461031b57610246565b3661024657005b600080fd5b34801561025757600080fd5b50610272600480360381019061026d91906135d6565b6109b2565b60405161027f9190613625565b60405180910390f35b34801561029457600080fd5b5061029d6109d7565b6040516102aa91906136d0565b60405180910390f35b3480156102bf57600080fd5b506102da60048036038101906102d591906136f2565b610a69565b6040516102e7919061374d565b60405180910390f35b3480156102fc57600080fd5b50610305610a8c565b6040516103129190613625565b60405180910390f35b34801561032757600080fd5b50610342600480360381019061033d9190613768565b610a96565b60405161034f9190613853565b60405180910390f35b34801561036457600080fd5b5061037f600480360381019061037a91906135d6565b610b2d565b005b34801561038d57600080fd5b50610396610c49565b6040516103a39190613625565b60405180910390f35b3480156103b857600080fd5b506103d360048036038101906103ce9190613875565b610c53565b6040516103e0919061374d565b60405180910390f35b3480156103f557600080fd5b50610410600480360381019061040b91906138c8565b610c82565b60405161041d9190613917565b60405180910390f35b34801561043257600080fd5b5061044d600480360381019061044891906135d6565b610cd0565b60405161045a9190613625565b60405180910390f35b34801561046f57600080fd5b5061048a60048036038101906104859190613932565b610cf5565b005b34801561049857600080fd5b506104a1610da1565b6040516104ae9190613625565b60405180910390f35b3480156104c357600080fd5b506104cc610da8565b6040516104d9919061397b565b60405180910390f35b3480156104ee57600080fd5b5061050960048036038101906105049190613768565b610db1565b005b34801561051757600080fd5b50610532600480360381019061052d9190613932565b610f40565b005b34801561054057600080fd5b50610549611030565b6040516105569190613917565b60405180910390f35b34801561056b57600080fd5b5061058660048036038101906105819190613768565b611056565b005b34801561059457600080fd5b506105af60048036038101906105aa9190613932565b6111a2565b6040516105bc9190613625565b60405180910390f35b3480156105d157600080fd5b506105ec60048036038101906105e79190613768565b6111ba565b6040516105f99190613625565b60405180910390f35b34801561060e57600080fd5b50610617611202565b005b34801561062557600080fd5b50610640600480360381019061063b9190613768565b611216565b005b34801561064e57600080fd5b5061066960048036038101906106649190613932565b611362565b6040516106769190613917565b60405180910390f35b34801561068b57600080fd5b50610694611395565b6040516106a19190613917565b60405180910390f35b3480156106b657600080fd5b506106bf6113bf565b6040516106cc91906136d0565b60405180910390f35b3480156106e157600080fd5b506106fc60048036038101906106f79190613932565b611451565b005b34801561070a57600080fd5b50610725600480360381019061072091906136f2565b6114fd565b604051610732919061374d565b60405180910390f35b34801561074757600080fd5b50610750611520565b60405161075d9190613917565b60405180910390f35b34801561077257600080fd5b5061078d60048036038101906107889190613996565b611546565b005b34801561079b57600080fd5b506107b660048036038101906107b19190613932565b6119d0565b6040516107c39190613625565b60405180910390f35b3480156107d857600080fd5b506107e16119eb565b6040516107ee9190613917565b60405180910390f35b34801561080357600080fd5b5061081e600480360381019061081991906135d6565b611a11565b005b34801561082c57600080fd5b50610835612402565b6040516108429190613625565b60405180910390f35b61086560048036038101906108609190613932565b612408565b005b34801561087357600080fd5b5061088e600480360381019061088991906139e9565b612512565b60405161089b9190613625565b60405180910390f35b3480156108b057600080fd5b506108cb60048036038101906108c691906136f2565b612599565b6040516108d89190613625565b60405180910390f35b3480156108ed57600080fd5b5061090860048036038101906109039190613932565b6125ca565b005b34801561091657600080fd5b5061091f612773565b60405161092c9190613917565b60405180910390f35b34801561094157600080fd5b5061095c600480360381019061095791906138c8565b612799565b005b34801561096a57600080fd5b5061098560048036038101906109809190613768565b612b29565b005b34801561099357600080fd5b5061099c612baf565b6040516109a99190613917565b60405180910390f35b600f602052816000526040600020602052806000526040600020600091509150505481565b6060600380546109e690613a58565b80601f0160208091040260200160405190810160405280929190818152602001828054610a1290613a58565b8015610a5f5780601f10610a3457610100808354040283529160200191610a5f565b820191906000526020600020905b815481529060010190602001808311610a4257829003601f168201915b5050505050905090565b600080610a74612bd5565b9050610a81818585612bdd565b600191505092915050565b6000600254905090565b6060600d60008373ffffffffffffffffffffffffffffffffffffffff1673ffffffffffffffffffffffffffffffffffffffff168152602001908152602001600020805480602002602001604051908101604052809291908181526020018280548015610b2157602002820191906000526020600020905b815481526020019060010190808311610b0d575b50505050509050919050565b610b35612bef565b81610b3f336111ba565b1015610b80576040517f08c379a0000000000000000000000000000000000000000000000000000000008152600401610b7790613afb565b60405180910390fd5b600073ffffffffffffffffffffffffffffffffffffffff168173ffffffffffffffffffffffffffffffffffffffff1603610bef576040517f08c379a0000000000000000000000000000000000000000000000000000000008152600401610be690613b67565b60405180910390fd5b60008211610c32576040517f08c379a0000000000000000000000000000000000000000000000000000000008152600401610c2990613bd3565b60405180910390fd5b610c3d338284612c35565b610c45612d29565b5050565b655af3107a400081565b600080610c5e612bd5565b9050610c6b858285612d33565b610c76858585612c35565b60019150509392505050565b60106020528160005260406000208181548110610c9e57600080fd5b906000526020600020016000915091509054906101000a900473ffffffffffffffffffffffffffffffffffffffff1681565b6011602052816000526040600020602052806000526040600020600091509150505481565b610cfd612bef565b80610d07306111ba565b1015610d48576040517f08c379a0000000000000000000000000000000000000000000000000000000008152600401610d3f90613c3f565b60405180910390fd5b60008111610d8b576040517f08c379a0000000000000000000000000000000000000000000000000000000008152600401610d8290613bd3565b60405180910390fd5b610d96303383612c35565b610d9e612d29565b50565b6298968081565b60006012905090565b610db9612dc8565b600073ffffffffffffffffffffffffffffffffffffffff16600960009054906101000a900473ffffffffffffffffffffffffffffffffffffffff1673ffffffffffffffffffffffffffffffffffffffff1614610e4a576040517f08c379a0000000000000000000000000000000000000000000000000000000008152600401610e4190613cd1565b60405180910390fd5b600073ffffffffffffffffffffffffffffffffffffffff168173ffffffffffffffffffffffffffffffffffffffff1603610eb9576040517f08c379a0000000000000000000000000000000000000000000000000000000008152600401610eb090613d63565b60405180910390fd5b80600960006101000a81548173ffffffffffffffffffffffffffffffffffffffff021916908373ffffffffffffffffffffffffffffffffffffffff1602179055508073ffffffffffffffffffffffffffffffffffffffff167fc01397589c90f5e1b3c67daa82eb1233806bd28530cf935fa30667bd70440fe860405160405180910390a250565b600960009054906101000a900473ffffffffffffffffffffffffffffffffffffffff1673ffffffffffffffffffffffffffffffffffffffff163373ffffffffffffffffffffffffffffffffffffffff1614610fd0576040517f08c379a0000000000000000000000000000000000000000000000000000000008152600401610fc790613df5565b60405180910390fd5b610fd8612bef565b6000811161101b576040517f08c379a000000000000000000000000000000000000000000000000000000000815260040161101290613bd3565b60405180910390fd5b6110253082612e4f565b61102d612d29565b50565b600860009054906101000a900473ffffffffffffffffffffffffffffffffffffffff1681565b61105e612dc8565b600073ffffffffffffffffffffffffffffffffffffffff168173ffffffffffffffffffffffffffffffffffffffff16036110cd576040517f08c379a00000000000000000000000000000000000000000000000000000000081526004016110c490613e87565b60405180910390fd5b600073ffffffffffffffffffffffffffffffffffffffff16600b60009054906101000a900473ffffffffffffffffffffffffffffffffffffffff1673ffffffffffffffffffffffffffffffffffffffff161461115e576040517f08c379a000000000000000000000000000000000000000000000000000000000815260040161115590613f19565b60405180910390fd5b80600b60006101000a81548173ffffffffffffffffffffffffffffffffffffffff021916908373ffffffffffffffffffffffffffffffffffffffff16021790555050565b600c6020528060005260406000206000915090505481565b60008060008373ffffffffffffffffffffffffffffffffffffffff1673ffffffffffffffffffffffffffffffffffffffff168152602001908152602001600020549050919050565b61120a612dc8565b6112146000612ed1565b565b61121e612dc8565b600073ffffffffffffffffffffffffffffffffffffffff168173ffffffffffffffffffffffffffffffffffffffff160361128d576040517f08c379a000000000000000000000000000000000000000000000000000000000815260040161128490613fab565b60405180910390fd5b600073ffffffffffffffffffffffffffffffffffffffff16600a60009054906101000a900473ffffffffffffffffffffffffffffffffffffffff1673ffffffffffffffffffffffffffffffffffffffff161461131e576040517f08c379a000000000000000000000000000000000000000000000000000000000815260040161131590614017565b60405180910390fd5b80600a60006101000a81548173ffffffffffffffffffffffffffffffffffffffff021916908373ffffffffffffffffffffffffffffffffffffffff16021790555050565b600e6020528060005260406000206000915054906101000a900473ffffffffffffffffffffffffffffffffffffffff1681565b6000600560009054906101000a900473ffffffffffffffffffffffffffffffffffffffff16905090565b6060600480546113ce90613a58565b80601f01602080910402602001604051908101604052809291908181526020018280546113fa90613a58565b80156114475780601f1061141c57610100808354040283529160200191611447565b820191906000526020600020905b81548152906001019060200180831161142a57829003601f168201915b5050505050905090565b611459612bef565b80611463336111ba565b10156114a4576040517f08c379a000000000000000000000000000000000000000000000000000000000815260040161149b906140a9565b60405180910390fd5b600081116114e7576040517f08c379a00000000000000000000000000000000000000000000000000000000081526004016114de90613bd3565b60405180910390fd5b6114f2333083612c35565b6114fa612d29565b50565b600080611508612bd5565b9050611515818585612c35565b600191505092915050565b600a60009054906101000a900473ffffffffffffffffffffffffffffffffffffffff1681565b600960009054906101000a900473ffffffffffffffffffffffffffffffffffffffff1673ffffffffffffffffffffffffffffffffffffffff163373ffffffffffffffffffffffffffffffffffffffff16146115d6576040517f08c379a00000000000000000000000000000000000000000000000000000000081526004016115cd90613df5565b60405180910390fd5b600073ffffffffffffffffffffffffffffffffffffffff168273ffffffffffffffffffffffffffffffffffffffff1603611645576040517f08c379a000000000000000000000000000000000000000000000000000000000815260040161163c90614115565b60405180910390fd5b60008111611688576040517f08c379a000000000000000000000000000000000000000000000000000000000815260040161167f906141a7565b60405180910390fd5b80611699611694611395565b6111ba565b10156116da576040517f08c379a00000000000000000000000000000000000000000000000000000000081526004016116d190614213565b60405180910390fd5b80600c600085815260200190815260200160002060008282546116fd9190614262565b925050819055506000600f600085815260200190815260200160002060008473ffffffffffffffffffffffffffffffffffffffff1673ffffffffffffffffffffffffffffffffffffffff168152602001908152602001600020540361183c5760106000848152602001908152602001600020805490506011600085815260200190815260200160002060008473ffffffffffffffffffffffffffffffffffffffff1673ffffffffffffffffffffffffffffffffffffffff1681526020019081526020016000208190555060106000848152602001908152602001600020829080600181540180825580915050600190039060005260206000200160009091909190916101000a81548173ffffffffffffffffffffffffffffffffffffffff021916908373ffffffffffffffffffffffffffffffffffffffff1602179055505b80600f600085815260200190815260200160002060008473ffffffffffffffffffffffffffffffffffffffff1673ffffffffffffffffffffffffffffffffffffffff168152602001908152602001600020600082825461189c9190614262565b925050819055506118ad8284612f97565b61191857600d60008373ffffffffffffffffffffffffffffffffffffffff1673ffffffffffffffffffffffffffffffffffffffff1681526020019081526020016000208390806001815401808255809150506001900390600052602060002001600090919091909150555b81600e600085815260200190815260200160002060006101000a81548173ffffffffffffffffffffffffffffffffffffffff021916908373ffffffffffffffffffffffffffffffffffffffff16021790555061197c611975611395565b8383612c35565b8173ffffffffffffffffffffffffffffffffffffffff16837f4cedf818ca04f81dda63491562c37a413e1d0812a98fb8ae8f6fd41865afe03c836040516119c39190613625565b60405180910390a3505050565b6000655af3107a4000826119e49190614296565b9050919050565b600960009054906101000a900473ffffffffffffffffffffffffffffffffffffffff1681565b611a19612bef565b600e600083815260200190815260200160002060009054906101000a900473ffffffffffffffffffffffffffffffffffffffff1673ffffffffffffffffffffffffffffffffffffffff163373ffffffffffffffffffffffffffffffffffffffff1614611aba576040517f08c379a0000000000000000000000000000000000000000000000000000000008152600401611ab19061434a565b60405180910390fd5b600073ffffffffffffffffffffffffffffffffffffffff168173ffffffffffffffffffffffffffffffffffffffff1603611b29576040517f08c379a0000000000000000000000000000000000000000000000000000000008152600401611b20906143b6565b60405180910390fd5b600073ffffffffffffffffffffffffffffffffffffffff16600a60009054906101000a900473ffffffffffffffffffffffffffffffffffffffff1673ffffffffffffffffffffffffffffffffffffffff1614611c65576000600a60009054906101000a900473ffffffffffffffffffffffffffffffffffffffff1673ffffffffffffffffffffffffffffffffffffffff1663db4f319e846040518263ffffffff1660e01b8152600401611bdc9190613625565b608060405180830381865afa158015611bf9573d6000803e3d6000fd5b505050506040513d601f19601f82011682018060405250810190611c1d919061442c565b93505050508015611c63576040517f08c379a0000000000000000000000000000000000000000000000000000000008152600401611c5a90614505565b60405180910390fd5b505b600073ffffffffffffffffffffffffffffffffffffffff16600b60009054906101000a900473ffffffffffffffffffffffffffffffffffffffff1673ffffffffffffffffffffffffffffffffffffffff1614611da8576000600b60009054906101000a900473ffffffffffffffffffffffffffffffffffffffff16905060008173ffffffffffffffffffffffffffffffffffffffff1663ac06b0d8856040518263ffffffff1660e01b8152600401611d1d9190613625565b60e060405180830381865afa158015611d3a573d6000803e3d6000fd5b505050506040513d601f19601f82011682018060405250810190611d5e9190614659565b90508060c0015115611da5576040517f08c379a0000000000000000000000000000000000000000000000000000000008152600401611d9c906146f8565b60405180910390fd5b50505b6000600e600084815260200190815260200160002060009054906101000a900473ffffffffffffffffffffffffffffffffffffffff1690506000600f600085815260200190815260200160002060008373ffffffffffffffffffffffffffffffffffffffff1673ffffffffffffffffffffffffffffffffffffffff16815260200190815260200160002054905060008111156122c8576000600f600086815260200190815260200160002060008473ffffffffffffffffffffffffffffffffffffffff1673ffffffffffffffffffffffffffffffffffffffff1681526020019081526020016000208190555080600f600086815260200190815260200160002060008573ffffffffffffffffffffffffffffffffffffffff1673ffffffffffffffffffffffffffffffffffffffff1681526020019081526020016000206000828254611ef49190614262565b925050819055506000600f600086815260200190815260200160002060008473ffffffffffffffffffffffffffffffffffffffff1673ffffffffffffffffffffffffffffffffffffffff16815260200190815260200160002054036121905760006011600086815260200190815260200160002060008473ffffffffffffffffffffffffffffffffffffffff1673ffffffffffffffffffffffffffffffffffffffff16815260200190815260200160002054905060006010600087815260200190815260200160002060016010600089815260200190815260200160002080549050611fe09190614718565b81548110611ff157611ff061474c565b5b9060005260206000200160009054906101000a900473ffffffffffffffffffffffffffffffffffffffff169050806010600088815260200190815260200160002083815481106120445761204361474c565b5b9060005260206000200160006101000a81548173ffffffffffffffffffffffffffffffffffffffff021916908373ffffffffffffffffffffffffffffffffffffffff160217905550816011600088815260200190815260200160002060008373ffffffffffffffffffffffffffffffffffffffff1673ffffffffffffffffffffffffffffffffffffffff16815260200190815260200160002081905550601060008781526020019081526020016000208054806121045761210361477b565b5b6001900381819060005260206000200160006101000a81549073ffffffffffffffffffffffffffffffffffffffff021916905590556011600087815260200190815260200160002060008573ffffffffffffffffffffffffffffffffffffffff1673ffffffffffffffffffffffffffffffffffffffff1681526020019081526020016000206000905550505b80600f600086815260200190815260200160002060008573ffffffffffffffffffffffffffffffffffffffff1673ffffffffffffffffffffffffffffffffffffffff16815260200190815260200160002054036122c75760106000858152602001908152602001600020805490506011600086815260200190815260200160002060008573ffffffffffffffffffffffffffffffffffffffff1673ffffffffffffffffffffffffffffffffffffffff1681526020019081526020016000208190555060106000858152602001908152602001600020839080600181540180825580915050600190039060005260206000200160009091909190916101000a81548173ffffffffffffffffffffffffffffffffffffffff021916908373ffffffffffffffffffffffffffffffffffffffff1602179055505b5b82600e600086815260200190815260200160002060006101000a81548173ffffffffffffffffffffffffffffffffffffffff021916908373ffffffffffffffffffffffffffffffffffffffff1602179055506123248285613033565b61232e8385612f97565b61239957600d60008473ffffffffffffffffffffffffffffffffffffffff1673ffffffffffffffffffffffffffffffffffffffff1681526020019081526020016000208490806001815401808255809150506001900390600052602060002001600090919091909150555b8273ffffffffffffffffffffffffffffffffffffffff168273ffffffffffffffffffffffffffffffffffffffff16857fa5c64c8204a6a698b47e944c0c3e6d9699f44cf150c89378d697fbf682d5b6e460405160405180910390a450506123fe612d29565b5050565b61271081565b612410612bef565b60008111612453576040517f08c379a000000000000000000000000000000000000000000000000000000000815260040161244a90613bd3565b60405180910390fd5b600061245e826119d0565b90508034146124a2576040517f08c379a0000000000000000000000000000000000000000000000000000000008152600401612499906147f6565b60405180910390fd5b816124b36124ae611395565b6111ba565b10156124f4576040517f08c379a00000000000000000000000000000000000000000000000000000000081526004016124eb90614213565b60405180910390fd5b6125066124ff611395565b3384612c35565b5061250f612d29565b50565b6000600160008473ffffffffffffffffffffffffffffffffffffffff1673ffffffffffffffffffffffffffffffffffffffff16815260200190815260200160002060008373ffffffffffffffffffffffffffffffffffffffff1673ffffffffffffffffffffffffffffffffffffffff16815260200190815260200160002054905092915050565b600d60205281600052604060002081815481106125b557600080fd5b90600052602060002001600091509150505481565b6125d2612bef565b806125dc336111ba565b101561261d576040517f08c379a000000000000000000000000000000000000000000000000000000000815260040161261490614862565b60405180910390fd5b60008111612660576040517f08c379a000000000000000000000000000000000000000000000000000000000815260040161265790613bd3565b60405180910390fd5b600061266b826119d0565b9050804710156126b0576040517f08c379a00000000000000000000000000000000000000000000000000000000081526004016126a7906148f4565b60405180910390fd5b6126ba3383612e4f565b60003373ffffffffffffffffffffffffffffffffffffffff16826040516126e090614945565b60006040518083038185875af1925050503d806000811461271d576040519150601f19603f3d011682016040523d82523d6000602084013e612722565b606091505b5050905080612766576040517f08c379a000000000000000000000000000000000000000000000000000000000815260040161275d906149a6565b60405180910390fd5b5050612770612d29565b50565b600b60009054906101000a900473ffffffffffffffffffffffffffffffffffffffff1681565b600b60009054906101000a900473ffffffffffffffffffffffffffffffffffffffff1673ffffffffffffffffffffffffffffffffffffffff163373ffffffffffffffffffffffffffffffffffffffff1614612829576040517f08c379a000000000000000000000000000000000000000000000000000000000815260040161282090614a38565b60405180910390fd5b612831612bef565b6000600c60008481526020019081526020016000205490506000811161288c576040517f08c379a000000000000000000000000000000000000000000000000000000000815260040161288390614aca565b60405180910390fd5b600082116128cf576040517f08c379a00000000000000000000000000000000000000000000000000000000081526004016128c690614b5c565b60405180910390fd5b816128d9306111ba565b101561291a576040517f08c379a000000000000000000000000000000000000000000000000000000000815260040161291190614bee565b60405180910390fd5b6000829050600080601060008781526020019081526020016000208054806020026020016040519081016040528092919081815260200182805480156129b557602002820191906000526020600020905b8160009054906101000a900473ffffffffffffffffffffffffffffffffffffffff1673ffffffffffffffffffffffffffffffffffffffff168152602001906001019080831161296b575b5050505050905060005b8151811015612ac45760008282815181106129dd576129dc61474c565b5b602002602001015190506000600f60008a815260200190815260200160002060008373ffffffffffffffffffffffffffffffffffffffff1673ffffffffffffffffffffffffffffffffffffffff1681526020019081526020016000205490506000811115612ab557600087828a612a549190614296565b612a5e9190614c3d565b90506000811115612ab357888187612a769190614262565b1115612a8b578589612a889190614718565b90505b612a96308483612c35565b8086612aa29190614262565b95508087612ab09190614718565b96505b505b505080806001019150506129bf565b506000831115612ae157612ae030612ada611395565b85612c35565b5b857ffe4996cd48c364c468cee70dd6b9061874ff01b05c5ea49311cbcabd9b9cb61586604051612b119190613625565b60405180910390a250505050612b25612d29565b5050565b612b31612dc8565b600073ffffffffffffffffffffffffffffffffffffffff168173ffffffffffffffffffffffffffffffffffffffff1603612ba35760006040517f1e4fbdf7000000000000000000000000000000000000000000000000000000008152600401612b9a9190613917565b60405180910390fd5b612bac81612ed1565b50565b600760009054906101000a900473ffffffffffffffffffffffffffffffffffffffff1681565b600033905090565b612bea8383836001613137565b505050565b600260065403612c2b576040517f3ee5aeb500000000000000000000000000000000000000000000000000000000815260040160405180910390fd5b6002600681905550565b600073ffffffffffffffffffffffffffffffffffffffff168373ffffffffffffffffffffffffffffffffffffffff1603612ca75760006040517f96c6fd1e000000000000000000000000000000000000000000000000000000008152600401612c9e9190613917565b60405180910390fd5b600073ffffffffffffffffffffffffffffffffffffffff168273ffffffffffffffffffffffffffffffffffffffff1603612d195760006040517fec442f05000000000000000000000000000000000000000000000000000000008152600401612d109190613917565b60405180910390fd5b612d2483838361330e565b505050565b6001600681905550565b6000612d3f8484612512565b90507fffffffffffffffffffffffffffffffffffffffffffffffffffffffffffffffff811015612dc25781811015612db2578281836040517ffb8f41b2000000000000000000000000000000000000000000000000000000008152600401612da993929190614c6e565b60405180910390fd5b612dc184848484036000613137565b5b50505050565b612dd0612bd5565b73ffffffffffffffffffffffffffffffffffffffff16612dee611395565b73ffffffffffffffffffffffffffffffffffffffff1614612e4d57612e11612bd5565b6040517f118cdaa7000000000000000000000000000000000000000000000000000000008152600401612e449190613917565b60405180910390fd5b565b600073ffffffffffffffffffffffffffffffffffffffff168273ffffffffffffffffffffffffffffffffffffffff1603612ec15760006040517f96c6fd1e000000000000000000000000000000000000000000000000000000008152600401612eb89190613917565b60405180910390fd5b612ecd8260008361330e565b5050565b6000600560009054906101000a900473ffffffffffffffffffffffffffffffffffffffff16905081600560006101000a81548173ffffffffffffffffffffffffffffffffffffffff021916908373ffffffffffffffffffffffffffffffffffffffff1602179055508173ffffffffffffffffffffffffffffffffffffffff168173ffffffffffffffffffffffffffffffffffffffff167f8be0079c531659141344cd1fd0a4f28419497f9722a3daafe3b4186f6b6457e060405160405180910390a35050565b600080600d60008573ffffffffffffffffffffffffffffffffffffffff1673ffffffffffffffffffffffffffffffffffffffff168152602001908152602001600020905060005b81805490508110156130265783828281548110612ffe57612ffd61474c565b5b9060005260206000200154036130195760019250505061302d565b8080600101915050612fde565b5060009150505b92915050565b6000600d60008473ffffffffffffffffffffffffffffffffffffffff1673ffffffffffffffffffffffffffffffffffffffff168152602001908152602001600020905060005b818054905081101561313157828282815481106130995761309861474c565b5b9060005260206000200154036131245781600183805490506130bb9190614718565b815481106130cc576130cb61474c565b5b90600052602060002001548282815481106130ea576130e961474c565b5b9060005260206000200181905550818054806131095761310861477b565b5b60019003818190600052602060002001600090559055613131565b8080600101915050613079565b50505050565b600073ffffffffffffffffffffffffffffffffffffffff168473ffffffffffffffffffffffffffffffffffffffff16036131a95760006040517fe602df050000000000000000000000000000000000000000000000000000000081526004016131a09190613917565b60405180910390fd5b600073ffffffffffffffffffffffffffffffffffffffff168373ffffffffffffffffffffffffffffffffffffffff160361321b5760006040517f94280d620000000000000000000000000000000000000000000000000000000081526004016132129190613917565b60405180910390fd5b81600160008673ffffffffffffffffffffffffffffffffffffffff1673ffffffffffffffffffffffffffffffffffffffff16815260200190815260200160002060008573ffffffffffffffffffffffffffffffffffffffff1673ffffffffffffffffffffffffffffffffffffffff168152602001908152602001600020819055508015613308578273ffffffffffffffffffffffffffffffffffffffff168473ffffffffffffffffffffffffffffffffffffffff167f8c5be1e5ebec7d5bd14f71427d1e84f3dd0314c0f7b2291e5b200ac8c7c3b925846040516132ff9190613625565b60405180910390a35b50505050565b600073ffffffffffffffffffffffffffffffffffffffff168373ffffffffffffffffffffffffffffffffffffffff16036133605780600260008282546133549190614262565b92505081905550613433565b60008060008573ffffffffffffffffffffffffffffffffffffffff1673ffffffffffffffffffffffffffffffffffffffff168152602001908152602001600020549050818110156133ec578381836040517fe450d38c0000000000000000000000000000000000000000000000000000000081526004016133e393929190614c6e565b60405180910390fd5b8181036000808673ffffffffffffffffffffffffffffffffffffffff1673ffffffffffffffffffffffffffffffffffffffff16815260200190815260200160002081905550505b600073ffffffffffffffffffffffffffffffffffffffff168273ffffffffffffffffffffffffffffffffffffffff160361347c57806002600082825403925050819055506134c9565b806000808473ffffffffffffffffffffffffffffffffffffffff1673ffffffffffffffffffffffffffffffffffffffff168152602001908152602001600020600082825401925050819055505b8173ffffffffffffffffffffffffffffffffffffffff168373ffffffffffffffffffffffffffffffffffffffff167fddf252ad1be2c89b69c2b068fc378daa952ba7f163c4a11628f55a4df523b3ef836040516135269190613625565b60405180910390a3505050565b6000604051905090565b600080fd5b6000819050919050565b61355581613542565b811461356057600080fd5b50565b6000813590506135728161354c565b92915050565b600073ffffffffffffffffffffffffffffffffffffffff82169050919050565b60006135a382613578565b9050919050565b6135b381613598565b81146135be57600080fd5b50565b6000813590506135d0816135aa565b92915050565b600080604083850312156135ed576135ec61353d565b5b60006135fb85828601613563565b925050602061360c858286016135c1565b9150509250929050565b61361f81613542565b82525050565b600060208201905061363a6000830184613616565b92915050565b600081519050919050565b600082825260208201905092915050565b60005b8381101561367a57808201518184015260208101905061365f565b60008484015250505050565b6000601f19601f8301169050919050565b60006136a282613640565b6136ac818561364b565b93506136bc81856020860161365c565b6136c581613686565b840191505092915050565b600060208201905081810360008301526136ea8184613697565b905092915050565b600080604083850312156137095761370861353d565b5b6000613717858286016135c1565b925050602061372885828601613563565b9150509250929050565b60008115159050919050565b61374781613732565b82525050565b6000602082019050613762600083018461373e565b92915050565b60006020828403121561377e5761377d61353d565b5b600061378c848285016135c1565b91505092915050565b600081519050919050565b600082825260208201905092915050565b6000819050602082019050919050565b6137ca81613542565b82525050565b60006137dc83836137c1565b60208301905092915050565b6000602082019050919050565b600061380082613795565b61380a81856137a0565b9350613815836137b1565b8060005b8381101561384657815161382d88826137d0565b9750613838836137e8565b925050600181019050613819565b5085935050505092915050565b6000602082019050818103600083015261386d81846137f5565b905092915050565b60008060006060848603121561388e5761388d61353d565b5b600061389c868287016135c1565b93505060206138ad868287016135c1565b92505060406138be86828701613563565b9150509250925092565b600080604083850312156138df576138de61353d565b5b60006138ed85828601613563565b92505060206138fe85828601613563565b9150509250929050565b61391181613598565b82525050565b600060208201905061392c6000830184613908565b92915050565b6000602082840312156139485761394761353d565b5b600061395684828501613563565b91505092915050565b600060ff82169050919050565b6139758161395f565b82525050565b6000602082019050613990600083018461396c565b92915050565b6000806000606084860312156139af576139ae61353d565b5b60006139bd86828701613563565b93505060206139ce868287016135c1565b92505060406139df86828701613563565b9150509250925092565b60008060408385031215613a00576139ff61353d565b5b6000613a0e858286016135c1565b9250506020613a1f858286016135c1565b9150509250929050565b7f4e487b7100000000000000000000000000000000000000000000000000000000600052602260045260246000fd5b60006002820490506001821680613a7057607f821691505b602082108103613a8357613a82613a29565b5b50919050565b7f496e73756666696369656e7420746f6b656e2062616c616e636520746f20706160008201527f7920666f72207365727669636500000000000000000000000000000000000000602082015250565b6000613ae5602d8361364b565b9150613af082613a89565b604082019050919050565b60006020820190508181036000830152613b1481613ad8565b9050919050565b7f416464726573732063616e6e6f742062652061207a65726f2061646472657373600082015250565b6000613b5160208361364b565b9150613b5c82613b1b565b602082019050919050565b60006020820190508181036000830152613b8081613b44565b9050919050565b7f416d6f756e74206d7573742062652067726561746572207468616e207a65726f600082015250565b6000613bbd60208361364b565b9150613bc882613b87565b602082019050919050565b60006020820190508181036000830152613bec81613bb0565b9050919050565b7f496e73756666696369656e74207374616b656420746f6b656e73000000000000600082015250565b6000613c29601a8361364b565b9150613c3482613bf3565b602082019050919050565b60006020820190508181036000830152613c5881613c1c565b9050919050565b7f5265616c4573746174654d616e61676572206164647265737320616c7265616460008201527f7920736574000000000000000000000000000000000000000000000000000000602082015250565b6000613cbb60258361364b565b9150613cc682613c5f565b604082019050919050565b60006020820190508181036000830152613cea81613cae565b9050919050565b7f5265616c4573746174654d616e6167657220616464726573732063616e6e6f7460008201527f206265207a65726f000000000000000000000000000000000000000000000000602082015250565b6000613d4d60288361364b565b9150613d5882613cf1565b604082019050919050565b60006020820190508181036000830152613d7c81613d40565b9050919050565b7f4f6e6c79205265616c4573746174654d616e616765722063616e2063616c6c2060008201527f746869732066756e6374696f6e00000000000000000000000000000000000000602082015250565b6000613ddf602d8361364b565b9150613dea82613d83565b604082019050919050565b60006020820190508181036000830152613e0e81613dd2565b9050919050565b7f52656e74616c436f6e747261637420616464726573732063616e6e6f7420626560008201527f207a65726f000000000000000000000000000000000000000000000000000000602082015250565b6000613e7160258361364b565b9150613e7c82613e15565b604082019050919050565b60006020820190508181036000830152613ea081613e64565b9050919050565b7f52656e74616c436f6e7472616374206164647265737320616c7265616479207360008201527f6574000000000000000000000000000000000000000000000000000000000000602082015250565b6000613f0360228361364b565b9150613f0e82613ea7565b604082019050919050565b60006020820190508181036000830152613f3281613ef6565b9050919050565b7f4d61726b6574706c61636520616464726573732063616e6e6f74206265207a6560008201527f726f000000000000000000000000000000000000000000000000000000000000602082015250565b6000613f9560228361364b565b9150613fa082613f39565b604082019050919050565b60006020820190508181036000830152613fc481613f88565b9050919050565b7f4d61726b6574706c616365206164647265737320616c72656164792073657400600082015250565b6000614001601f8361364b565b915061400c82613fcb565b602082019050919050565b6000602082019050818103600083015261403081613ff4565b9050919050565b7f496e73756666696369656e7420746f6b656e2062616c616e636520746f20737460008201527f616b650000000000000000000000000000000000000000000000000000000000602082015250565b600061409360238361364b565b915061409e82614037565b604082019050919050565b600060208201905081810360008301526140c281614086565b9050919050565b7f496e76616c696420726563697069656e74206164647265737300000000000000600082015250565b60006140ff60198361364b565b915061410a826140c9565b602082019050919050565b6000602082019050818103600083015261412e816140f2565b9050919050565b7f546f6b656e20616d6f756e74206d75737420626520677265617465722074686160008201527f6e207a65726f0000000000000000000000000000000000000000000000000000602082015250565b600061419160268361364b565b915061419c82614135565b604082019050919050565b600060208201905081810360008301526141c081614184565b9050919050565b7f4465706c6f7965722068617320696e73756666696369656e7420746f6b656e73600082015250565b60006141fd60208361364b565b9150614208826141c7565b602082019050919050565b6000602082019050818103600083015261422c816141f0565b9050919050565b7f4e487b7100000000000000000000000000000000000000000000000000000000600052601160045260246000fd5b600061426d82613542565b915061427883613542565b92508282019050808211156142905761428f614233565b5b92915050565b60006142a182613542565b91506142ac83613542565b92508282026142ba81613542565b915082820484148315176142d1576142d0614233565b5b5092915050565b7f4f6e6c7920746865206f776e65722063616e207472616e736665722070726f7060008201527f6572747900000000000000000000000000000000000000000000000000000000602082015250565b600061433460248361364b565b915061433f826142d8565b604082019050919050565b6000602082019050818103600083015261436381614327565b9050919050565b7f4e6577206f776e65722063616e6e6f74206265207a65726f2061646472657373600082015250565b60006143a060208361364b565b91506143ab8261436a565b602082019050919050565b600060208201905081810360008301526143cf81614393565b9050919050565b6000815190506143e58161354c565b92915050565b6000815190506143fa816135aa565b92915050565b61440981613732565b811461441457600080fd5b50565b60008151905061442681614400565b92915050565b600080600080608085870312156144465761444561353d565b5b6000614454878288016143d6565b9450506020614465878288016143d6565b9350506040614476878288016143eb565b925050606061448787828801614417565b91505092959194509250565b7f50726f70657274792069732063757272656e746c79206c697374656420666f7260008201527f2073616c65000000000000000000000000000000000000000000000000000000602082015250565b60006144ef60258361364b565b91506144fa82614493565b604082019050919050565b6000602082019050818103600083015261451e816144e2565b9050919050565b600080fd5b7f4e487b7100000000000000000000000000000000000000000000000000000000600052604160045260246000fd5b61456282613686565b810181811067ffffffffffffffff821117156145815761458061452a565b5b80604052505050565b6000614594613533565b90506145a08282614559565b919050565b600060e082840312156145bb576145ba614525565b5b6145c560e061458a565b905060006145d5848285016143d6565b60008301525060206145e9848285016143d6565b60208301525060406145fd848285016143eb565b6040830152506060614611848285016143eb565b6060830152506080614625848285016143d6565b60808301525060a0614639848285016143d6565b60a08301525060c061464d84828501614417565b60c08301525092915050565b600060e0828403121561466f5761466e61353d565b5b600061467d848285016145a5565b91505092915050565b7f50726f70657274792069732063757272656e746c79206c697374656420666f7260008201527f2072656e74000000000000000000000000000000000000000000000000000000602082015250565b60006146e260258361364b565b91506146ed82614686565b604082019050919050565b60006020820190508181036000830152614711816146d5565b9050919050565b600061472382613542565b915061472e83613542565b925082820390508181111561474657614745614233565b5b92915050565b7f4e487b7100000000000000000000000000000000000000000000000000000000600052603260045260246000fd5b7f4e487b7100000000000000000000000000000000000000000000000000000000600052603160045260246000fd5b7f53656e642065786163742045544820616d6f756e740000000000000000000000600082015250565b60006147e060158361364b565b91506147eb826147aa565b602082019050919050565b6000602082019050818103600083015261480f816147d3565b9050919050565b7f496e73756666696369656e742062616c616e6365000000000000000000000000600082015250565b600061484c60148361364b565b915061485782614816565b602082019050919050565b6000602082019050818103600083015261487b8161483f565b9050919050565b7f496e73756666696369656e7420636f6e74726163742062616c616e636520666f60008201527f7220726564656d7074696f6e0000000000000000000000000000000000000000602082015250565b60006148de602c8361364b565b91506148e982614882565b604082019050919050565b6000602082019050818103600083015261490d816148d1565b9050919050565b600081905092915050565b50565b600061492f600083614914565b915061493a8261491f565b600082019050919050565b600061495082614922565b9150819050919050565b7f526566756e64206661696c656400000000000000000000000000000000000000600082015250565b6000614990600d8361364b565b915061499b8261495a565b602082019050919050565b600060208201905081810360008301526149bf81614983565b9050919050565b7f4f6e6c79207468652052656e74616c436f6e74726163742063616e207065726660008201527f6f726d207468697320616374696f6e0000000000000000000000000000000000602082015250565b6000614a22602f8361364b565b9150614a2d826149c6565b604082019050919050565b60006020820190508181036000830152614a5181614a15565b9050919050565b7f4e6f20746f6b656e732069737375656420666f7220746869732070726f70657260008201527f7479000000000000000000000000000000000000000000000000000000000000602082015250565b6000614ab460228361364b565b9150614abf82614a58565b604082019050919050565b60006020820190508181036000830152614ae381614aa7565b9050919050565b7f5969656c6420616d6f756e74206d75737420626520677265617465722074686160008201527f6e207a65726f0000000000000000000000000000000000000000000000000000602082015250565b6000614b4660268361364b565b9150614b5182614aea565b604082019050919050565b60006020820190508181036000830152614b7581614b39565b9050919050565b7f496e73756666696369656e742052455420746f6b656e2062616c616e6365206660008201527f6f72207969656c6420646973747269627574696f6e0000000000000000000000602082015250565b6000614bd860358361364b565b9150614be382614b7c565b604082019050919050565b60006020820190508181036000830152614c0781614bcb565b9050919050565b7f4e487b7100000000000000000000000000000000000000000000000000000000600052601260045260246000fd5b6000614c4882613542565b9150614c5383613542565b925082614c6357614c62614c0e565b5b828204905092915050565b6000606082019050614c836000830186613908565b614c906020830185613616565b614c9d6040830184613616565b94935050505056fea2646970667358221220d1b06c8286c61245848a8ebdc7c381c9d40d59c0d2b2df9f575087e1ebc57c3b64736f6c634300081b0033",
  "linkReferences": {},
  "deployedLinkReferences": {}
}