{
  "_format": "hh-sol-artifact-1",
  "contractName": "Escrow",
  "sourceName": "contracts/Escrow.sol",
  "abi": [
    {
      "inputs": [
        {
          "internalType": "address",
          "name": "_utilityToken",
          "type": "address"
        },
        {
          "internalType": "address",
          "name": "_realEstateManager",
          "type": "address"
        }
      ],
      "stateMutability": "nonpayable",
      "type": "constructor"
    },
    {
      "inputs": [],
      "name": "ReentrancyGuardReentrantCall",
      "type": "error"
    },
    {
      "anonymous": false,
      "inputs": [
        {
          "indexed": true,
          "internalType": "uint256",
          "name": "escrowId",
          "type": "uint256"
        },
        {
          "indexed": false,
          "internalType": "uint256",
          "name": "propertyId",
          "type": "uint256"
        }
      ],
      "name": "EscrowCancelled",
      "type": "event"
    },
    {
      "anonymous": false,
      "inputs": [
        {
          "indexed": true,
          "internalType": "uint256",
          "name": "escrowId",
          "type": "uint256"
        },
        {
          "indexed": false,
          "internalType": "uint256",
          "name": "propertyId",
          "type": "uint256"
        }
      ],
      "name": "EscrowCompleted",
      "type": "event"
    },
    {
      "anonymous": false,
      "inputs": [
        {
          "indexed": true,
          "internalType": "uint256",
          "name": "escrowId",
          "type": "uint256"
        },
        {
          "indexed": false,
          "internalType": "enum Escrow.EscrowType",
          "name": "escrowType",
          "type": "uint8"
        },
        {
          "indexed": false,
          "internalType": "uint256",
          "name": "propertyId",
          "type": "uint256"
        },
        {
          "indexed": false,
          "internalType": "address",
          "name": "buyerOrTenant",
          "type": "address"
        },
        {
          "indexed": false,
          "internalType": "address",
          "name": "sellerOrLandlord",
          "type": "address"
        },
        {
          "indexed": false,
          "internalType": "uint256",
          "name": "amount",
          "type": "uint256"
        }
      ],
      "name": "EscrowCreated",
      "type": "event"
    },
    {
      "anonymous": false,
      "inputs": [
        {
          "indexed": true,
          "internalType": "uint256",
          "name": "escrowId",
          "type": "uint256"
        },
        {
          "indexed": false,
          "internalType": "uint256",
          "name": "propertyId",
          "type": "uint256"
        }
      ],
      "name": "EscrowDisputed",
      "type": "event"
    },
    {
      "anonymous": false,
      "inputs": [
        {
          "indexed": true,
          "internalType": "uint256",
          "name": "escrowId",
          "type": "uint256"
        },
        {
          "indexed": false,
          "internalType": "address",
          "name": "to",
          "type": "address"
        },
        {
          "indexed": false,
          "internalType": "uint256",
          "name": "amount",
          "type": "uint256"
        }
      ],
      "name": "FundsRefunded",
      "type": "event"
    },
    {
      "anonymous": false,
      "inputs": [
        {
          "indexed": true,
          "internalType": "uint256",
          "name": "escrowId",
          "type": "uint256"
        },
        {
          "indexed": false,
          "internalType": "address",
          "name": "to",
          "type": "address"
        },
        {
          "indexed": false,
          "internalType": "uint256",
          "name": "amount",
          "type": "uint256"
        }
      ],
      "name": "FundsReleased",
      "type": "event"
    },
    {
      "inputs": [],
      "name": "ESCROW_TIMEOUT",
      "outputs": [
        {
          "internalType": "uint256",
          "name": "",
          "type": "uint256"
        }
      ],
      "stateMutability": "view",
      "type": "function"
    },
    {
      "inputs": [],
      "name": "admin",
      "outputs": [
        {
          "internalType": "address",
          "name": "",
          "type": "address"
        }
      ],
      "stateMutability": "view",
      "type": "function"
    },
    {
      "inputs": [
        {
          "internalType": "uint256",
          "name": "_escrowId",
          "type": "uint256"
        }
      ],
      "name": "cancelEscrow",
      "outputs": [],
      "stateMutability": "nonpayable",
      "type": "function"
    },
    {
      "inputs": [
        {
          "internalType": "uint256",
          "name": "_escrowId",
          "type": "uint256"
        }
      ],
      "name": "completeEscrow",
      "outputs": [],
      "stateMutability": "nonpayable",
      "type": "function"
    },
    {
      "inputs": [
        {
          "internalType": "uint256",
          "name": "_propertyId",
          "type": "uint256"
        }
      ],
      "name": "createPurchaseEscrow",
      "outputs": [],
      "stateMutability": "nonpayable",
      "type": "function"
    },
    {
      "inputs": [
        {
          "internalType": "uint256",
          "name": "_propertyId",
          "type": "uint256"
        }
      ],
      "name": "createRentalEscrow",
      "outputs": [],
      "stateMutability": "nonpayable",
      "type": "function"
    },
    {
      "inputs": [
        {
          "internalType": "uint256",
          "name": "_escrowId",
          "type": "uint256"
        }
      ],
      "name": "disputeEscrow",
      "outputs": [],
      "stateMutability": "nonpayable",
      "type": "function"
    },
    {
      "inputs": [],
      "name": "escrowCount",
      "outputs": [
        {
          "internalType": "uint256",
          "name": "",
          "type": "uint256"
        }
      ],
      "stateMutability": "view",
      "type": "function"
    },
    {
      "inputs": [
        {
          "internalType": "uint256",
          "name": "",
          "type": "uint256"
        }
      ],
      "name": "escrows",
      "outputs": [
        {
          "internalType": "uint256",
          "name": "escrowId",
          "type": "uint256"
        },
        {
          "internalType": "enum Escrow.EscrowType",
          "name": "escrowType",
          "type": "uint8"
        },
        {
          "internalType": "uint256",
          "name": "propertyId",
          "type": "uint256"
        },
        {
          "internalType": "address",
          "name": "buyerOrTenant",
          "type": "address"
        },
        {
          "internalType": "address",
          "name": "sellerOrLandlord",
          "type": "address"
        },
        {
          "internalType": "uint256",
          "name": "amount",
          "type": "uint256"
        },
        {
          "internalType": "uint256",
          "name": "createdAt",
          "type": "uint256"
        },
        {
          "internalType": "uint256",
          "name": "expiresAt",
          "type": "uint256"
        },
        {
          "internalType": "enum Escrow.EscrowStatus",
          "name": "status",
          "type": "uint8"
        }
      ],
      "stateMutability": "view",
      "type": "function"
    },
    {
      "inputs": [
        {
          "internalType": "uint256",
          "name": "_escrowId",
          "type": "uint256"
        }
      ],
      "name": "getEscrowDetails",
      "outputs": [
        {
          "components": [
            {
              "internalType": "uint256",
              "name": "escrowId",
              "type": "uint256"
            },
            {
              "internalType": "enum Escrow.EscrowType",
              "name": "escrowType",
              "type": "uint8"
            },
            {
              "internalType": "uint256",
              "name": "propertyId",
              "type": "uint256"
            },
            {
              "internalType": "address",
              "name": "buyerOrTenant",
              "type": "address"
            },
            {
              "internalType": "address",
              "name": "sellerOrLandlord",
              "type": "address"
            },
            {
              "internalType": "uint256",
              "name": "amount",
              "type": "uint256"
            },
            {
              "internalType": "uint256",
              "name": "createdAt",
              "type": "uint256"
            },
            {
              "internalType": "uint256",
              "name": "expiresAt",
              "type": "uint256"
            },
            {
              "internalType": "enum Escrow.EscrowStatus",
              "name": "status",
              "type": "uint8"
            }
          ],
          "internalType": "struct Escrow.EscrowAgreement",
          "name": "",
          "type": "tuple"
        }
      ],
      "stateMutability": "view",
      "type": "function"
    },
    {
      "inputs": [],
      "name": "marketplace",
      "outputs": [
        {
          "internalType": "address",
          "name": "",
          "type": "address"
        }
      ],
      "stateMutability": "view",
      "type": "function"
    },
    {
      "inputs": [],
      "name": "realEstateManager",
      "outputs": [
        {
          "internalType": "address",
          "name": "",
          "type": "address"
        }
      ],
      "stateMutability": "view",
      "type": "function"
    },
    {
      "inputs": [],
      "name": "rentalContract",
      "outputs": [
        {
          "internalType": "address",
          "name": "",
          "type": "address"
        }
      ],
      "stateMutability": "view",
      "type": "function"
    },
    {
      "inputs": [
        {
          "internalType": "uint256",
          "name": "_escrowId",
          "type": "uint256"
        },
        {
          "internalType": "bool",
          "name": "releaseToSellerOrLandlord",
          "type": "bool"
        }
      ],
      "name": "resolveDisputedEscrow",
      "outputs": [],
      "stateMutability": "nonpayable",
      "type": "function"
    },
    {
      "inputs": [
        {
          "internalType": "address",
          "name": "_marketplace",
          "type": "address"
        }
      ],
      "name": "setMarketplace",
      "outputs": [],
      "stateMutability": "nonpayable",
      "type": "function"
    },
    {
      "inputs": [
        {
          "internalType": "address",
          "name": "_rentalContract",
          "type": "address"
        }
      ],
      "name": "setRentalContract",
      "outputs": [],
      "stateMutability": "nonpayable",
      "type": "function"
    },
    {
      "inputs": [],
      "name": "utilityToken",
      "outputs": [
        {
          "internalType": "contract IERC20",
          "name": "",
          "type": "address"
        }
      ],
      "stateMutability": "view",
      "type": "function"
    }
  ],
  "bytecode": "0x608060405234801561001057600080fd5b5060405161456238038061456283398181016040528101906100329190610245565b6001600081905550600073ffffffffffffffffffffffffffffffffffffffff168273ffffffffffffffffffffffffffffffffffffffff16036100a9576040517f08c379a00000000000000000000000000000000000000000000000000000000081526004016100a0906102e2565b60405180910390fd5b600073ffffffffffffffffffffffffffffffffffffffff168173ffffffffffffffffffffffffffffffffffffffff1603610118576040517f08c379a000000000000000000000000000000000000000000000000000000000815260040161010f90610374565b60405180910390fd5b33600160006101000a81548173ffffffffffffffffffffffffffffffffffffffff021916908373ffffffffffffffffffffffffffffffffffffffff16021790555081600260006101000a81548173ffffffffffffffffffffffffffffffffffffffff021916908373ffffffffffffffffffffffffffffffffffffffff16021790555080600360006101000a81548173ffffffffffffffffffffffffffffffffffffffff021916908373ffffffffffffffffffffffffffffffffffffffff1602179055505050610394565b600080fd5b600073ffffffffffffffffffffffffffffffffffffffff82169050919050565b6000610212826101e7565b9050919050565b61022281610207565b811461022d57600080fd5b50565b60008151905061023f81610219565b92915050565b6000806040838503121561025c5761025b6101e2565b5b600061026a85828601610230565b925050602061027b85828601610230565b9150509250929050565b600082825260208201905092915050565b7f496e76616c6964205574696c697479546f6b656e206164647265737300000000600082015250565b60006102cc601c83610285565b91506102d782610296565b602082019050919050565b600060208201905081810360008301526102fb816102bf565b9050919050565b7f496e76616c6964205265616c4573746174654d616e616765722061646472657360008201527f7300000000000000000000000000000000000000000000000000000000000000602082015250565b600061035e602183610285565b915061036982610302565b604082019050919050565b6000602082019050818103600083015261038d81610351565b9050919050565b6141bf806103a36000396000f3fe608060405234801561001057600080fd5b506004361061010b5760003560e01c8063ae86ed89116100a2578063bbc2124a11610071578063bbc2124a1461029a578063df3e0a1d146102b6578063e0182436146102d2578063e8f4e9d4146102ee578063f851a4401461030c5761010b565b8063ae86ed8914610212578063b041de6d14610230578063b563153c1461024e578063b996ec2a1461026a5761010b565b80635a63427e116100de5780635a63427e1461019e578063675ac67a146101ba57806373ad6c2d146101d8578063abc8c7af146101f45761010b565b8063012f52ee1461011057806330815eee1461014857806331b2f4d51461016657806340d93c9f14610182575b600080fd5b61012a60048036038101906101259190612d14565b61032a565b60405161013f99989796959493929190612e50565b60405180910390f35b6101506103d2565b60405161015d9190612edd565b60405180910390f35b610180600480360381019061017b9190612f30565b6103d9565b005b61019c60048036038101906101979190612d14565b610948565b005b6101b860048036038101906101b39190612f9c565b610f09565b005b6101c26110dd565b6040516101cf9190612edd565b60405180910390f35b6101f260048036038101906101ed9190612f9c565b6110e3565b005b6101fc6112b7565b6040516102099190612fc9565b60405180910390f35b61021a6112dd565b6040516102279190613043565b60405180910390f35b610238611303565b6040516102459190612fc9565b60405180910390f35b61026860048036038101906102639190612d14565b611329565b005b610284600480360381019061027f9190612d14565b61164b565b6040516102919190613151565b60405180910390f35b6102b460048036038101906102af9190612d14565b6117cd565b005b6102d060048036038101906102cb9190612d14565b611d40565b005b6102ec60048036038101906102e79190612d14565b612656565b005b6102f6612b92565b6040516103039190612fc9565b60405180910390f35b610314612bb8565b6040516103219190612fc9565b60405180910390f35b60076020528060005260406000206000915090508060000154908060010160009054906101000a900460ff16908060020154908060030160009054906101000a900473ffffffffffffffffffffffffffffffffffffffff16908060040160009054906101000a900473ffffffffffffffffffffffffffffffffffffffff16908060050154908060060154908060070154908060080160009054906101000a900460ff16905089565b62093a8081565b600160009054906101000a900473ffffffffffffffffffffffffffffffffffffffff1673ffffffffffffffffffffffffffffffffffffffff163373ffffffffffffffffffffffffffffffffffffffff1614610469576040517f08c379a0000000000000000000000000000000000000000000000000000000008152600401610460906131f0565b60405180910390fd5b610471612bde565b600060076000848152602001908152602001600020905060038081111561049b5761049a612d50565b5b8160080160009054906101000a900460ff1660038111156104bf576104be612d50565b5b146104ff576040517f08c379a00000000000000000000000000000000000000000000000000000000081526004016104f69061325c565b60405180910390fd5b8115610768576000600181111561051957610518612d50565b5b8160010160009054906101000a900460ff16600181111561053d5761053c612d50565b5b036105fa57600460009054906101000a900473ffffffffffffffffffffffffffffffffffffffff1673ffffffffffffffffffffffffffffffffffffffff1663563f0f4982600201548360030160009054906101000a900473ffffffffffffffffffffffffffffffffffffffff166040518363ffffffff1660e01b81526004016105c792919061327c565b600060405180830381600087803b1580156105e157600080fd5b505af11580156105f5573d6000803e3d6000fd5b505050505b600260009054906101000a900473ffffffffffffffffffffffffffffffffffffffff1673ffffffffffffffffffffffffffffffffffffffff1663a9059cbb8260040160009054906101000a900473ffffffffffffffffffffffffffffffffffffffff1683600501546040518363ffffffff1660e01b815260040161067f9291906132a5565b6020604051808303816000875af115801561069e573d6000803e3d6000fd5b505050506040513d601f19601f820116820180604052508101906106c291906132e3565b610701576040517f08c379a00000000000000000000000000000000000000000000000000000000081526004016106f890613382565b60405180910390fd5b827f6e3c6096795c8298a218b2cfb8bde42726ff7c9a3d27b4d3ba41ab7f74feb5fb8260040160009054906101000a900473ffffffffffffffffffffffffffffffffffffffff16836005015460405161075b9291906132a5565b60405180910390a26108d2565b600260009054906101000a900473ffffffffffffffffffffffffffffffffffffffff1673ffffffffffffffffffffffffffffffffffffffff1663a9059cbb8260030160009054906101000a900473ffffffffffffffffffffffffffffffffffffffff1683600501546040518363ffffffff1660e01b81526004016107ed9291906132a5565b6020604051808303816000875af115801561080c573d6000803e3d6000fd5b505050506040513d601f19601f8201168201806040525081019061083091906132e3565b61086f576040517f08c379a0000000000000000000000000000000000000000000000000000000008152600401610866906133ee565b60405180910390fd5b827f80b577b4fc190ab86d963549e29f496afd079c5d81a2480d61217d4b5060a28c8260030160009054906101000a900473ffffffffffffffffffffffffffffffffffffffff1683600501546040516108c99291906132a5565b60405180910390a25b60018160080160006101000a81548160ff021916908360038111156108fa576108f9612d50565b5b0217905550827ff487d4e13e32569d69ec2608b5b1530450d715b84e0c81d0077b5b7e766db1d182600201546040516109339190612edd565b60405180910390a250610944612c24565b5050565b610950612bde565b6000600560009054906101000a900473ffffffffffffffffffffffffffffffffffffffff1673ffffffffffffffffffffffffffffffffffffffff1663ac06b0d8836040518263ffffffff1660e01b81526004016109ad9190612edd565b61010060405180830381865afa1580156109cb573d6000803e3d6000fd5b505050506040513d601f19601f820116820180604052508101906109ef9190613593565b90508060c001518015610a325750600073ffffffffffffffffffffffffffffffffffffffff16816060015173ffffffffffffffffffffffffffffffffffffffff16145b610a71576040517f08c379a0000000000000000000000000000000000000000000000000000000008152600401610a6890613633565b60405180910390fd5b600260009054906101000a900473ffffffffffffffffffffffffffffffffffffffff1673ffffffffffffffffffffffffffffffffffffffff166323b872dd333084602001516040518463ffffffff1660e01b8152600401610ad493929190613653565b6020604051808303816000875af1158015610af3573d6000803e3d6000fd5b505050506040513d601f19601f82011682018060405250810190610b1791906132e3565b610b56576040517f08c379a0000000000000000000000000000000000000000000000000000000008152600401610b4d906136fc565b60405180910390fd5b600080600360009054906101000a900473ffffffffffffffffffffffffffffffffffffffff1673ffffffffffffffffffffffffffffffffffffffff1663126dbe43856040518263ffffffff1660e01b8152600401610bb49190612edd565b600060405180830381865afa158015610bd1573d6000803e3d6000fd5b505050506040513d6000823e3d601f19601f82011682018060405250810190610bfa91906137f1565b5050955095505050505080610c44576040517f08c379a0000000000000000000000000000000000000000000000000000000008152600401610c3b9061392b565b60405180910390fd5b826040015173ffffffffffffffffffffffffffffffffffffffff168273ffffffffffffffffffffffffffffffffffffffff1614610cb6576040517f08c379a0000000000000000000000000000000000000000000000000000000008152600401610cad906139bd565b60405180910390fd5b60066000815480929190610cc990613a0c565b91905055506040518061012001604052806006548152602001600180811115610cf557610cf4612d50565b5b81526020018581526020013373ffffffffffffffffffffffffffffffffffffffff168152602001846040015173ffffffffffffffffffffffffffffffffffffffff1681526020018460200151815260200142815260200162093a8042610d5b9190613a54565b815260200160006003811115610d7457610d73612d50565b5b8152506007600060065481526020019081526020016000206000820151816000015560208201518160010160006101000a81548160ff02191690836001811115610dc157610dc0612d50565b5b02179055506040820151816002015560608201518160030160006101000a81548173ffffffffffffffffffffffffffffffffffffffff021916908373ffffffffffffffffffffffffffffffffffffffff16021790555060808201518160040160006101000a81548173ffffffffffffffffffffffffffffffffffffffff021916908373ffffffffffffffffffffffffffffffffffffffff16021790555060a0820151816005015560c0820151816006015560e082015181600701556101008201518160080160006101000a81548160ff02191690836003811115610ea857610ea7612d50565b5b02179055509050506006547fc74a960fd06b8318f14905256d994e48eadab4f7e7d7686ac6970694dd7243e36001863387604001518860200151604051610ef3959493929190613a88565b60405180910390a2505050610f06612c24565b50565b600160009054906101000a900473ffffffffffffffffffffffffffffffffffffffff1673ffffffffffffffffffffffffffffffffffffffff163373ffffffffffffffffffffffffffffffffffffffff1614610f99576040517f08c379a0000000000000000000000000000000000000000000000000000000008152600401610f90906131f0565b60405180910390fd5b600073ffffffffffffffffffffffffffffffffffffffff168173ffffffffffffffffffffffffffffffffffffffff1603611008576040517f08c379a0000000000000000000000000000000000000000000000000000000008152600401610fff90613b4d565b60405180910390fd5b600073ffffffffffffffffffffffffffffffffffffffff16600560009054906101000a900473ffffffffffffffffffffffffffffffffffffffff1673ffffffffffffffffffffffffffffffffffffffff1614611099576040517f08c379a000000000000000000000000000000000000000000000000000000000815260040161109090613bdf565b60405180910390fd5b80600560006101000a81548173ffffffffffffffffffffffffffffffffffffffff021916908373ffffffffffffffffffffffffffffffffffffffff16021790555050565b60065481565b600160009054906101000a900473ffffffffffffffffffffffffffffffffffffffff1673ffffffffffffffffffffffffffffffffffffffff163373ffffffffffffffffffffffffffffffffffffffff1614611173576040517f08c379a000000000000000000000000000000000000000000000000000000000815260040161116a906131f0565b60405180910390fd5b600073ffffffffffffffffffffffffffffffffffffffff168173ffffffffffffffffffffffffffffffffffffffff16036111e2576040517f08c379a00000000000000000000000000000000000000000000000000000000081526004016111d990613c71565b60405180910390fd5b600073ffffffffffffffffffffffffffffffffffffffff16600460009054906101000a900473ffffffffffffffffffffffffffffffffffffffff1673ffffffffffffffffffffffffffffffffffffffff1614611273576040517f08c379a000000000000000000000000000000000000000000000000000000000815260040161126a90613cdd565b60405180910390fd5b80600460006101000a81548173ffffffffffffffffffffffffffffffffffffffff021916908373ffffffffffffffffffffffffffffffffffffffff16021790555050565b600460009054906101000a900473ffffffffffffffffffffffffffffffffffffffff1681565b600260009054906101000a900473ffffffffffffffffffffffffffffffffffffffff1681565b600360009054906101000a900473ffffffffffffffffffffffffffffffffffffffff1681565b8060006007600083815260200190815260200160002060405180610120016040529081600082015481526020016001820160009054906101000a900460ff16600181111561137a57611379612d50565b5b600181111561138c5761138b612d50565b5b8152602001600282015481526020016003820160009054906101000a900473ffffffffffffffffffffffffffffffffffffffff1673ffffffffffffffffffffffffffffffffffffffff1673ffffffffffffffffffffffffffffffffffffffff1681526020016004820160009054906101000a900473ffffffffffffffffffffffffffffffffffffffff1673ffffffffffffffffffffffffffffffffffffffff1673ffffffffffffffffffffffffffffffffffffffff1681526020016005820154815260200160068201548152602001600782015481526020016008820160009054906101000a900460ff16600381111561148957611488612d50565b5b600381111561149b5761149a612d50565b5b815250509050806060015173ffffffffffffffffffffffffffffffffffffffff163373ffffffffffffffffffffffffffffffffffffffff16148061150e5750806080015173ffffffffffffffffffffffffffffffffffffffff163373ffffffffffffffffffffffffffffffffffffffff16145b61154d576040517f08c379a000000000000000000000000000000000000000000000000000000000815260040161154490613d6f565b60405180910390fd5b60006007600085815260200190815260200160002090506000600381111561157857611577612d50565b5b8160080160009054906101000a900460ff16600381111561159c5761159b612d50565b5b146115dc576040517f08c379a00000000000000000000000000000000000000000000000000000000081526004016115d390613ddb565b60405180910390fd5b60038160080160006101000a81548160ff0219169083600381111561160457611603612d50565b5b0217905550837fbe5ad221473781351cbe4130a4254f5f367e12adf1b369fdee909ad35bdfd3c6826002015460405161163d9190612edd565b60405180910390a250505050565b611653612c2e565b6007600083815260200190815260200160002060405180610120016040529081600082015481526020016001820160009054906101000a900460ff1660018111156116a1576116a0612d50565b5b60018111156116b3576116b2612d50565b5b8152602001600282015481526020016003820160009054906101000a900473ffffffffffffffffffffffffffffffffffffffff1673ffffffffffffffffffffffffffffffffffffffff1673ffffffffffffffffffffffffffffffffffffffff1681526020016004820160009054906101000a900473ffffffffffffffffffffffffffffffffffffffff1673ffffffffffffffffffffffffffffffffffffffff1673ffffffffffffffffffffffffffffffffffffffff1681526020016005820154815260200160068201548152602001600782015481526020016008820160009054906101000a900460ff1660038111156117b0576117af612d50565b5b60038111156117c2576117c1612d50565b5b815250509050919050565b6117d5612bde565b6000806000600460009054906101000a900473ffffffffffffffffffffffffffffffffffffffff1673ffffffffffffffffffffffffffffffffffffffff1663db4f319e856040518263ffffffff1660e01b81526004016118359190612edd565b608060405180830381865afa158015611852573d6000803e3d6000fd5b505050506040513d601f19601f820116820180604052508101906118769190613dfb565b93509350935050806118bd576040517f08c379a00000000000000000000000000000000000000000000000000000000081526004016118b490613eae565b60405180910390fd5b600260009054906101000a900473ffffffffffffffffffffffffffffffffffffffff1673ffffffffffffffffffffffffffffffffffffffff166323b872dd3330866040518463ffffffff1660e01b815260040161191c93929190613653565b6020604051808303816000875af115801561193b573d6000803e3d6000fd5b505050506040513d601f19601f8201168201806040525081019061195f91906132e3565b61199e576040517f08c379a0000000000000000000000000000000000000000000000000000000008152600401611995906136fc565b60405180910390fd5b600080600360009054906101000a900473ffffffffffffffffffffffffffffffffffffffff1673ffffffffffffffffffffffffffffffffffffffff1663126dbe43876040518263ffffffff1660e01b81526004016119fc9190612edd565b600060405180830381865afa158015611a19573d6000803e3d6000fd5b505050506040513d6000823e3d601f19601f82011682018060405250810190611a4291906137f1565b5050955095505050505080611a8c576040517f08c379a0000000000000000000000000000000000000000000000000000000008152600401611a839061392b565b60405180910390fd5b8373ffffffffffffffffffffffffffffffffffffffff168273ffffffffffffffffffffffffffffffffffffffff1614611afa576040517f08c379a0000000000000000000000000000000000000000000000000000000008152600401611af190613f1a565b60405180910390fd5b60066000815480929190611b0d90613a0c565b9190505550604051806101200160405280600654815260200160006001811115611b3a57611b39612d50565b5b81526020018781526020013373ffffffffffffffffffffffffffffffffffffffff1681526020018573ffffffffffffffffffffffffffffffffffffffff16815260200186815260200142815260200162093a8042611b989190613a54565b815260200160006003811115611bb157611bb0612d50565b5b8152506007600060065481526020019081526020016000206000820151816000015560208201518160010160006101000a81548160ff02191690836001811115611bfe57611bfd612d50565b5b02179055506040820151816002015560608201518160030160006101000a81548173ffffffffffffffffffffffffffffffffffffffff021916908373ffffffffffffffffffffffffffffffffffffffff16021790555060808201518160040160006101000a81548173ffffffffffffffffffffffffffffffffffffffff021916908373ffffffffffffffffffffffffffffffffffffffff16021790555060a0820151816005015560c0820151816006015560e082015181600701556101008201518160080160006101000a81548160ff02191690836003811115611ce557611ce4612d50565b5b02179055509050506006547fc74a960fd06b8318f14905256d994e48eadab4f7e7d7686ac6970694dd7243e360008833888a604051611d28959493929190613a88565b60405180910390a25050505050611d3d612c24565b50565b611d48612bde565b8060006007600083815260200190815260200160002060405180610120016040529081600082015481526020016001820160009054906101000a900460ff166001811115611d9957611d98612d50565b5b6001811115611dab57611daa612d50565b5b8152602001600282015481526020016003820160009054906101000a900473ffffffffffffffffffffffffffffffffffffffff1673ffffffffffffffffffffffffffffffffffffffff1673ffffffffffffffffffffffffffffffffffffffff1681526020016004820160009054906101000a900473ffffffffffffffffffffffffffffffffffffffff1673ffffffffffffffffffffffffffffffffffffffff1673ffffffffffffffffffffffffffffffffffffffff1681526020016005820154815260200160068201548152602001600782015481526020016008820160009054906101000a900460ff166003811115611ea857611ea7612d50565b5b6003811115611eba57611eb9612d50565b5b815250509050806060015173ffffffffffffffffffffffffffffffffffffffff163373ffffffffffffffffffffffffffffffffffffffff161480611f2d5750806080015173ffffffffffffffffffffffffffffffffffffffff163373ffffffffffffffffffffffffffffffffffffffff16145b611f6c576040517f08c379a0000000000000000000000000000000000000000000000000000000008152600401611f6390613d6f565b60405180910390fd5b600060076000858152602001908152602001600020905060006003811115611f9757611f96612d50565b5b8160080160009054906101000a900460ff166003811115611fbb57611fba612d50565b5b14611ffb576040517f08c379a0000000000000000000000000000000000000000000000000000000008152600401611ff290613ddb565b60405180910390fd5b6000600181111561200f5761200e612d50565b5b8160010160009054906101000a900460ff16600181111561203357612032612d50565b5b036121fb57600460009054906101000a900473ffffffffffffffffffffffffffffffffffffffff1673ffffffffffffffffffffffffffffffffffffffff1663563f0f4982600201548360030160009054906101000a900473ffffffffffffffffffffffffffffffffffffffff166040518363ffffffff1660e01b81526004016120bd92919061327c565b600060405180830381600087803b1580156120d757600080fd5b505af11580156120eb573d6000803e3d6000fd5b50505050600260009054906101000a900473ffffffffffffffffffffffffffffffffffffffff1673ffffffffffffffffffffffffffffffffffffffff1663a9059cbb8260040160009054906101000a900473ffffffffffffffffffffffffffffffffffffffff1683600501546040518363ffffffff1660e01b81526004016121749291906132a5565b6020604051808303816000875af1158015612193573d6000803e3d6000fd5b505050506040513d601f19601f820116820180604052508101906121b791906132e3565b6121f6576040517f08c379a00000000000000000000000000000000000000000000000000000000081526004016121ed90613f86565b60405180910390fd5b612517565b60018081111561220e5761220d612d50565b5b8160010160009054906101000a900460ff16600181111561223257612231612d50565b5b03612516576000600560009054906101000a900473ffffffffffffffffffffffffffffffffffffffff16905060008173ffffffffffffffffffffffffffffffffffffffff1663ac06b0d884600201546040518263ffffffff1660e01b815260040161229d9190612edd565b61010060405180830381865afa1580156122bb573d6000803e3d6000fd5b505050506040513d601f19601f820116820180604052508101906122df9190613593565b90508060c0015180156123225750600073ffffffffffffffffffffffffffffffffffffffff16816060015173ffffffffffffffffffffffffffffffffffffffff16145b612361576040517f08c379a000000000000000000000000000000000000000000000000000000000815260040161235890613ff2565b60405180910390fd5b8173ffffffffffffffffffffffffffffffffffffffff1663cad2487e84600201548560030160009054906101000a900473ffffffffffffffffffffffffffffffffffffffff164262278d00426123b79190613a54565b88600501546040518663ffffffff1660e01b81526004016123dc959493929190614012565b600060405180830381600087803b1580156123f657600080fd5b505af115801561240a573d6000803e3d6000fd5b50505050600260009054906101000a900473ffffffffffffffffffffffffffffffffffffffff1673ffffffffffffffffffffffffffffffffffffffff1663a9059cbb600560009054906101000a900473ffffffffffffffffffffffffffffffffffffffff1685600501546040518363ffffffff1660e01b81526004016124919291906132a5565b6020604051808303816000875af11580156124b0573d6000803e3d6000fd5b505050506040513d601f19601f820116820180604052508101906124d491906132e3565b612513576040517f08c379a000000000000000000000000000000000000000000000000000000000815260040161250a906140d7565b60405180910390fd5b50505b5b60018160080160006101000a81548160ff0219169083600381111561253f5761253e612d50565b5b0217905550837ff487d4e13e32569d69ec2608b5b1530450d715b84e0c81d0077b5b7e766db1d182600201546040516125789190612edd565b60405180910390a2837f6e3c6096795c8298a218b2cfb8bde42726ff7c9a3d27b4d3ba41ab7f74feb5fb600060018111156125b6576125b5612d50565b5b8360010160009054906101000a900460ff1660018111156125da576125d9612d50565b5b1461260757600560009054906101000a900473ffffffffffffffffffffffffffffffffffffffff1661262d565b8260040160009054906101000a900473ffffffffffffffffffffffffffffffffffffffff165b83600501546040516126409291906132a5565b60405180910390a2505050612653612c24565b50565b61265e612bde565b8060006007600083815260200190815260200160002060405180610120016040529081600082015481526020016001820160009054906101000a900460ff1660018111156126af576126ae612d50565b5b60018111156126c1576126c0612d50565b5b8152602001600282015481526020016003820160009054906101000a900473ffffffffffffffffffffffffffffffffffffffff1673ffffffffffffffffffffffffffffffffffffffff1673ffffffffffffffffffffffffffffffffffffffff1681526020016004820160009054906101000a900473ffffffffffffffffffffffffffffffffffffffff1673ffffffffffffffffffffffffffffffffffffffff1673ffffffffffffffffffffffffffffffffffffffff1681526020016005820154815260200160068201548152602001600782015481526020016008820160009054906101000a900460ff1660038111156127be576127bd612d50565b5b60038111156127d0576127cf612d50565b5b815250509050806060015173ffffffffffffffffffffffffffffffffffffffff163373ffffffffffffffffffffffffffffffffffffffff1614806128435750806080015173ffffffffffffffffffffffffffffffffffffffff163373ffffffffffffffffffffffffffffffffffffffff16145b612882576040517f08c379a000000000000000000000000000000000000000000000000000000000815260040161287990613d6f565b60405180910390fd5b6000600760008581526020019081526020016000209050600060038111156128ad576128ac612d50565b5b8160080160009054906101000a900460ff1660038111156128d1576128d0612d50565b5b14612911576040517f08c379a000000000000000000000000000000000000000000000000000000000815260040161290890613ddb565b60405180910390fd5b80600701544210158061297357508060040160009054906101000a900473ffffffffffffffffffffffffffffffffffffffff1673ffffffffffffffffffffffffffffffffffffffff163373ffffffffffffffffffffffffffffffffffffffff16145b6129b2576040517f08c379a00000000000000000000000000000000000000000000000000000000081526004016129a990614169565b60405180910390fd5b600260009054906101000a900473ffffffffffffffffffffffffffffffffffffffff1673ffffffffffffffffffffffffffffffffffffffff1663a9059cbb8260030160009054906101000a900473ffffffffffffffffffffffffffffffffffffffff1683600501546040518363ffffffff1660e01b8152600401612a379291906132a5565b6020604051808303816000875af1158015612a56573d6000803e3d6000fd5b505050506040513d601f19601f82011682018060405250810190612a7a91906132e3565b612ab9576040517f08c379a0000000000000000000000000000000000000000000000000000000008152600401612ab0906133ee565b60405180910390fd5b60028160080160006101000a81548160ff02191690836003811115612ae157612ae0612d50565b5b0217905550837fdc48a08bb890bd1b8e4261212a97a5e711e80830d96ba56b362f3ac5f427d51e8260020154604051612b1a9190612edd565b60405180910390a2837f80b577b4fc190ab86d963549e29f496afd079c5d81a2480d61217d4b5060a28c8260030160009054906101000a900473ffffffffffffffffffffffffffffffffffffffff168360050154604051612b7c9291906132a5565b60405180910390a2505050612b8f612c24565b50565b600560009054906101000a900473ffffffffffffffffffffffffffffffffffffffff1681565b600160009054906101000a900473ffffffffffffffffffffffffffffffffffffffff1681565b600260005403612c1a576040517f3ee5aeb500000000000000000000000000000000000000000000000000000000815260040160405180910390fd5b6002600081905550565b6001600081905550565b6040518061012001604052806000815260200160006001811115612c5557612c54612d50565b5b815260200160008152602001600073ffffffffffffffffffffffffffffffffffffffff168152602001600073ffffffffffffffffffffffffffffffffffffffff16815260200160008152602001600081526020016000815260200160006003811115612cc457612cc3612d50565b5b81525090565b6000604051905090565b600080fd5b600080fd5b6000819050919050565b612cf181612cde565b8114612cfc57600080fd5b50565b600081359050612d0e81612ce8565b92915050565b600060208284031215612d2a57612d29612cd4565b5b6000612d3884828501612cff565b91505092915050565b612d4a81612cde565b82525050565b7f4e487b7100000000000000000000000000000000000000000000000000000000600052602160045260246000fd5b60028110612d9057612d8f612d50565b5b50565b6000819050612da182612d7f565b919050565b6000612db182612d93565b9050919050565b612dc181612da6565b82525050565b600073ffffffffffffffffffffffffffffffffffffffff82169050919050565b6000612df282612dc7565b9050919050565b612e0281612de7565b82525050565b60048110612e1957612e18612d50565b5b50565b6000819050612e2a82612e08565b919050565b6000612e3a82612e1c565b9050919050565b612e4a81612e2f565b82525050565b600061012082019050612e66600083018c612d41565b612e73602083018b612db8565b612e80604083018a612d41565b612e8d6060830189612df9565b612e9a6080830188612df9565b612ea760a0830187612d41565b612eb460c0830186612d41565b612ec160e0830185612d41565b612ecf610100830184612e41565b9a9950505050505050505050565b6000602082019050612ef26000830184612d41565b92915050565b60008115159050919050565b612f0d81612ef8565b8114612f1857600080fd5b50565b600081359050612f2a81612f04565b92915050565b60008060408385031215612f4757612f46612cd4565b5b6000612f5585828601612cff565b9250506020612f6685828601612f1b565b9150509250929050565b612f7981612de7565b8114612f8457600080fd5b50565b600081359050612f9681612f70565b92915050565b600060208284031215612fb257612fb1612cd4565b5b6000612fc084828501612f87565b91505092915050565b6000602082019050612fde6000830184612df9565b92915050565b6000819050919050565b6000613009613004612fff84612dc7565b612fe4565b612dc7565b9050919050565b600061301b82612fee565b9050919050565b600061302d82613010565b9050919050565b61303d81613022565b82525050565b60006020820190506130586000830184613034565b92915050565b61306781612cde565b82525050565b61307681612da6565b82525050565b61308581612de7565b82525050565b61309481612e2f565b82525050565b610120820160008201516130b1600085018261305e565b5060208201516130c4602085018261306d565b5060408201516130d7604085018261305e565b5060608201516130ea606085018261307c565b5060808201516130fd608085018261307c565b5060a082015161311060a085018261305e565b5060c082015161312360c085018261305e565b5060e082015161313660e085018261305e565b5061010082015161314b61010085018261308b565b50505050565b600061012082019050613167600083018461309a565b92915050565b600082825260208201905092915050565b7f4f6e6c792061646d696e2063616e20706572666f726d2074686973206163746960008201527f6f6e000000000000000000000000000000000000000000000000000000000000602082015250565b60006131da60228361316d565b91506131e58261317e565b604082019050919050565b60006020820190508181036000830152613209816131cd565b9050919050565b7f457363726f77206973206e6f7420646973707574656400000000000000000000600082015250565b600061324660168361316d565b915061325182613210565b602082019050919050565b6000602082019050818103600083015261327581613239565b9050919050565b60006040820190506132916000830185612d41565b61329e6020830184612df9565b9392505050565b60006040820190506132ba6000830185612df9565b6132c76020830184612d41565b9392505050565b6000815190506132dd81612f04565b92915050565b6000602082840312156132f9576132f8612cd4565b5b6000613307848285016132ce565b91505092915050565b7f546f6b656e207472616e7366657220746f2073656c6c65722f6c616e646c6f7260008201527f64206661696c6564000000000000000000000000000000000000000000000000602082015250565b600061336c60288361316d565b915061337782613310565b604082019050919050565b6000602082019050818103600083015261339b8161335f565b9050919050565b7f546f6b656e20726566756e64206661696c656400000000000000000000000000600082015250565b60006133d860138361316d565b91506133e3826133a2565b602082019050919050565b60006020820190508181036000830152613407816133cb565b9050919050565b600080fd5b6000601f19601f8301169050919050565b7f4e487b7100000000000000000000000000000000000000000000000000000000600052604160045260246000fd5b61345c82613413565b810181811067ffffffffffffffff8211171561347b5761347a613424565b5b80604052505050565b600061348e612cca565b905061349a8282613453565b919050565b6000815190506134ae81612ce8565b92915050565b6000815190506134c381612f70565b92915050565b600061010082840312156134e0576134df61340e565b5b6134eb610100613484565b905060006134fb8482850161349f565b600083015250602061350f8482850161349f565b6020830152506040613523848285016134b4565b6040830152506060613537848285016134b4565b606083015250608061354b8482850161349f565b60808301525060a061355f8482850161349f565b60a08301525060c0613573848285016132ce565b60c08301525060e06135878482850161349f565b60e08301525092915050565b600061010082840312156135aa576135a9612cd4565b5b60006135b8848285016134c9565b91505092915050565b7f50726f7065727479206973206e6f7420617661696c61626c6520666f7220726560008201527f6e74000000000000000000000000000000000000000000000000000000000000602082015250565b600061361d60228361316d565b9150613628826135c1565b604082019050919050565b6000602082019050818103600083015261364c81613610565b9050919050565b60006060820190506136686000830186612df9565b6136756020830185612df9565b6136826040830184612d41565b949350505050565b7f546f6b656e207472616e73666572206661696c65642e20417070726f7665204560008201527f7363726f77206669727374000000000000000000000000000000000000000000602082015250565b60006136e6602b8361316d565b91506136f18261368a565b604082019050919050565b60006020820190508181036000830152613715816136d9565b9050919050565b600080fd5b600080fd5b600067ffffffffffffffff82111561374157613740613424565b5b61374a82613413565b9050602081019050919050565b60005b8381101561377557808201518184015260208101905061375a565b60008484015250505050565b600061379461378f84613726565b613484565b9050828152602081018484840111156137b0576137af613721565b5b6137bb848285613757565b509392505050565b600082601f8301126137d8576137d761371c565b5b81516137e8848260208601613781565b91505092915050565b600080600080600080600080610100898b03121561381257613811612cd4565b5b60006138208b828c0161349f565b985050602089015167ffffffffffffffff81111561384157613840612cd9565b5b61384d8b828c016137c3565b975050604089015167ffffffffffffffff81111561386e5761386d612cd9565b5b61387a8b828c016137c3565b965050606061388b8b828c0161349f565b955050608061389c8b828c016134b4565b94505060a06138ad8b828c016132ce565b93505060c06138be8b828c016132ce565b92505060e06138cf8b828c016134b4565b9150509295985092959890939650565b7f50726f7065727479206973206e6f7420746f6b656e697a656400000000000000600082015250565b600061391560198361316d565b9150613920826138df565b602082019050919050565b6000602082019050818103600083015261394481613908565b9050919050565b7f4c616e646c6f726420646f6573206e6f74206f776e207468652070726f70657260008201527f7479000000000000000000000000000000000000000000000000000000000000602082015250565b60006139a760228361316d565b91506139b28261394b565b604082019050919050565b600060208201905081810360008301526139d68161399a565b9050919050565b7f4e487b7100000000000000000000000000000000000000000000000000000000600052601160045260246000fd5b6000613a1782612cde565b91507fffffffffffffffffffffffffffffffffffffffffffffffffffffffffffffffff8203613a4957613a486139dd565b5b600182019050919050565b6000613a5f82612cde565b9150613a6a83612cde565b9250828201905080821115613a8257613a816139dd565b5b92915050565b600060a082019050613a9d6000830188612db8565b613aaa6020830187612d41565b613ab76040830186612df9565b613ac46060830185612df9565b613ad16080830184612d41565b9695505050505050565b7f52656e74616c436f6e747261637420616464726573732063616e6e6f7420626560008201527f207a65726f000000000000000000000000000000000000000000000000000000602082015250565b6000613b3760258361316d565b9150613b4282613adb565b604082019050919050565b60006020820190508181036000830152613b6681613b2a565b9050919050565b7f52656e74616c436f6e7472616374206164647265737320616c7265616479207360008201527f6574000000000000000000000000000000000000000000000000000000000000602082015250565b6000613bc960228361316d565b9150613bd482613b6d565b604082019050919050565b60006020820190508181036000830152613bf881613bbc565b9050919050565b7f4d61726b6574706c61636520616464726573732063616e6e6f74206265207a6560008201527f726f000000000000000000000000000000000000000000000000000000000000602082015250565b6000613c5b60228361316d565b9150613c6682613bff565b604082019050919050565b60006020820190508181036000830152613c8a81613c4e565b9050919050565b7f4d61726b6574706c616365206164647265737320616c72656164792073657400600082015250565b6000613cc7601f8361316d565b9150613cd282613c91565b602082019050919050565b60006020820190508181036000830152613cf681613cba565b9050919050565b7f4f6e6c79207061727469636970616e74732063616e20706572666f726d20746860008201527f697320616374696f6e0000000000000000000000000000000000000000000000602082015250565b6000613d5960298361316d565b9150613d6482613cfd565b604082019050919050565b60006020820190508181036000830152613d8881613d4c565b9050919050565b7f457363726f77206973206e6f742070656e64696e670000000000000000000000600082015250565b6000613dc560158361316d565b9150613dd082613d8f565b602082019050919050565b60006020820190508181036000830152613df481613db8565b9050919050565b60008060008060808587031215613e1557613e14612cd4565b5b6000613e238782880161349f565b9450506020613e348782880161349f565b9350506040613e45878288016134b4565b9250506060613e56878288016132ce565b91505092959194509250565b7f50726f7065727479206973206e6f74206c697374656420666f722073616c6500600082015250565b6000613e98601f8361316d565b9150613ea382613e62565b602082019050919050565b60006020820190508181036000830152613ec781613e8b565b9050919050565b7f53656c6c657220646f6573206e6f74206f776e207468652070726f7065727479600082015250565b6000613f0460208361316d565b9150613f0f82613ece565b602082019050919050565b60006020820190508181036000830152613f3381613ef7565b9050919050565b7f546f6b656e207472616e7366657220746f2073656c6c6572206661696c656400600082015250565b6000613f70601f8361316d565b9150613f7b82613f3a565b602082019050919050565b60006020820190508181036000830152613f9f81613f63565b9050919050565b7f50726f7065727479206e6f7420617661696c61626c6520666f722072656e7400600082015250565b6000613fdc601f8361316d565b9150613fe782613fa6565b602082019050919050565b6000602082019050818103600083015261400b81613fcf565b9050919050565b600060a0820190506140276000830188612d41565b6140346020830187612df9565b6140416040830186612d41565b61404e6060830185612d41565b61405b6080830184612d41565b9695505050505050565b7f546f6b656e207472616e7366657220746f2052656e74616c436f6e747261637460008201527f206661696c656400000000000000000000000000000000000000000000000000602082015250565b60006140c160278361316d565b91506140cc82614065565b604082019050919050565b600060208201905081810360008301526140f0816140b4565b9050919050565b7f43616e206f6e6c792063616e63656c2061667465722074696d656f7574206f7260008201527f2062792073656c6c65722f6c616e646c6f726400000000000000000000000000602082015250565b600061415360338361316d565b915061415e826140f7565b604082019050919050565b6000602082019050818103600083015261418281614146565b905091905056fea2646970667358221220691b120077284465735b7c17a610911514ca56b828f6f914d11e8fe72ffbe27d64736f6c634300081b0033",
  "linkReferences": {},
  "deployedLinkReferences": {}
}