{
  "_format": "hh-sol-artifact-1",
  "contractName": "Marketplace",
  "sourceName": "contracts/MarketPlace.sol",
  "abi": [
    {
      "inputs": [
        {
          "internalType": "address",
          "name": "_realEstateManager",
          "type": "address"
        },
        {
          "internalType": "address",
          "name": "_utilityToken",
          "type": "address"
        }
      ],
      "stateMutability": "nonpayable",
      "type": "constructor"
    },
    {
      "inputs": [],
      "name": "ReentrancyGuardReentrantCall",
      "type": "error"
    },
    {
      "anonymous": false,
      "inputs": [
        {
          "indexed": true,
          "internalType": "uint256",
          "name": "propertyId",
          "type": "uint256"
        }
      ],
      "name": "ListingRemoved",
      "type": "event"
    },
    {
      "anonymous": false,
      "inputs": [
        {
          "indexed": true,
          "internalType": "uint256",
          "name": "propertyId",
          "type": "uint256"
        },
        {
          "indexed": true,
          "internalType": "address",
          "name": "seller",
          "type": "address"
        },
        {
          "indexed": false,
          "internalType": "uint256",
          "name": "price",
          "type": "uint256"
        }
      ],
      "name": "PropertyListed",
      "type": "event"
    },
    {
      "anonymous": false,
      "inputs": [
        {
          "indexed": true,
          "internalType": "uint256",
          "name": "propertyId",
          "type": "uint256"
        },
        {
          "indexed": true,
          "internalType": "address",
          "name": "seller",
          "type": "address"
        },
        {
          "indexed": true,
          "internalType": "address",
          "name": "buyer",
          "type": "address"
        },
        {
          "indexed": false,
          "internalType": "uint256",
          "name": "price",
          "type": "uint256"
        }
      ],
      "name": "PropertySold",
      "type": "event"
    },
    {
      "inputs": [
        {
          "internalType": "uint256",
          "name": "_propertyId",
          "type": "uint256"
        },
        {
          "internalType": "address",
          "name": "_newOwner",
          "type": "address"
        }
      ],
      "name": "completeEscrowPurchase",
      "outputs": [],
      "stateMutability": "nonpayable",
      "type": "function"
    },
    {
      "inputs": [],
      "name": "escrowAddress",
      "outputs": [
        {
          "internalType": "address",
          "name": "",
          "type": "address"
        }
      ],
      "stateMutability": "view",
      "type": "function"
    },
    {
      "inputs": [
        {
          "internalType": "uint256",
          "name": "_propertyId",
          "type": "uint256"
        }
      ],
      "name": "getPropertyListing",
      "outputs": [
        {
          "internalType": "uint256",
          "name": "",
          "type": "uint256"
        },
        {
          "internalType": "uint256",
          "name": "",
          "type": "uint256"
        },
        {
          "internalType": "address",
          "name": "",
          "type": "address"
        },
        {
          "internalType": "bool",
          "name": "",
          "type": "bool"
        }
      ],
      "stateMutability": "view",
      "type": "function"
    },
    {
      "inputs": [
        {
          "internalType": "uint256",
          "name": "_propertyId",
          "type": "uint256"
        },
        {
          "internalType": "uint256",
          "name": "_price",
          "type": "uint256"
        }
      ],
      "name": "listProperty",
      "outputs": [],
      "stateMutability": "nonpayable",
      "type": "function"
    },
    {
      "inputs": [],
      "name": "manager",
      "outputs": [
        {
          "internalType": "address",
          "name": "",
          "type": "address"
        }
      ],
      "stateMutability": "view",
      "type": "function"
    },
    {
      "inputs": [
        {
          "internalType": "uint256",
          "name": "",
          "type": "uint256"
        }
      ],
      "name": "propertyListings",
      "outputs": [
        {
          "internalType": "uint256",
          "name": "propertyId",
          "type": "uint256"
        },
        {
          "internalType": "uint256",
          "name": "price",
          "type": "uint256"
        },
        {
          "internalType": "address",
          "name": "seller",
          "type": "address"
        },
        {
          "internalType": "bool",
          "name": "isAvailable",
          "type": "bool"
        },
        {
          "internalType": "uint256",
          "name": "expirationTimestamp",
          "type": "uint256"
        }
      ],
      "stateMutability": "view",
      "type": "function"
    },
    {
      "inputs": [
        {
          "internalType": "uint256",
          "name": "_propertyId",
          "type": "uint256"
        }
      ],
      "name": "purchaseProperty",
      "outputs": [],
      "stateMutability": "nonpayable",
      "type": "function"
    },
    {
      "inputs": [],
      "name": "realEstateManager",
      "outputs": [
        {
          "internalType": "address",
          "name": "",
          "type": "address"
        }
      ],
      "stateMutability": "view",
      "type": "function"
    },
    {
      "inputs": [
        {
          "internalType": "uint256",
          "name": "_propertyId",
          "type": "uint256"
        }
      ],
      "name": "removeListing",
      "outputs": [],
      "stateMutability": "nonpayable",
      "type": "function"
    },
    {
      "inputs": [],
      "name": "rentalContract",
      "outputs": [
        {
          "internalType": "address",
          "name": "",
          "type": "address"
        }
      ],
      "stateMutability": "view",
      "type": "function"
    },
    {
      "inputs": [
        {
          "internalType": "address",
          "name": "_escrowAddress",
          "type": "address"
        }
      ],
      "name": "setEscrowAddress",
      "outputs": [],
      "stateMutability": "nonpayable",
      "type": "function"
    },
    {
      "inputs": [
        {
          "internalType": "address",
          "name": "_realEstateManager",
          "type": "address"
        }
      ],
      "name": "setRealEstateManager",
      "outputs": [],
      "stateMutability": "nonpayable",
      "type": "function"
    },
    {
      "inputs": [
        {
          "internalType": "address",
          "name": "_rentalContract",
          "type": "address"
        }
      ],
      "name": "setRentalContract",
      "outputs": [],
      "stateMutability": "nonpayable",
      "type": "function"
    },
    {
      "inputs": [
        {
          "internalType": "address",
          "name": "_utilityToken",
          "type": "address"
        }
      ],
      "name": "setUtilityToken",
      "outputs": [],
      "stateMutability": "nonpayable",
      "type": "function"
    },
    {
      "inputs": [],
      "name": "utilityToken",
      "outputs": [
        {
          "internalType": "contract IERC20",
          "name": "",
          "type": "address"
        }
      ],
      "stateMutability": "view",
      "type": "function"
    }
  ],
  "bytecode": "0x608060405234801561001057600080fd5b50604051612bdc380380612bdc83398181016040528101906100329190610245565b6001600081905550600073ffffffffffffffffffffffffffffffffffffffff168273ffffffffffffffffffffffffffffffffffffffff16036100a9576040517f08c379a00000000000000000000000000000000000000000000000000000000081526004016100a090610308565b60405180910390fd5b600073ffffffffffffffffffffffffffffffffffffffff168173ffffffffffffffffffffffffffffffffffffffff1603610118576040517f08c379a000000000000000000000000000000000000000000000000000000000815260040161010f90610374565b60405180910390fd5b33600160006101000a81548173ffffffffffffffffffffffffffffffffffffffff021916908373ffffffffffffffffffffffffffffffffffffffff16021790555081600260006101000a81548173ffffffffffffffffffffffffffffffffffffffff021916908373ffffffffffffffffffffffffffffffffffffffff16021790555080600460006101000a81548173ffffffffffffffffffffffffffffffffffffffff021916908373ffffffffffffffffffffffffffffffffffffffff1602179055505050610394565b600080fd5b600073ffffffffffffffffffffffffffffffffffffffff82169050919050565b6000610212826101e7565b9050919050565b61022281610207565b811461022d57600080fd5b50565b60008151905061023f81610219565b92915050565b6000806040838503121561025c5761025b6101e2565b5b600061026a85828601610230565b925050602061027b85828601610230565b9150509250929050565b600082825260208201905092915050565b7f496e76616c6964205265616c4573746174654d616e616765722061646472657360008201527f7300000000000000000000000000000000000000000000000000000000000000602082015250565b60006102f2602183610285565b91506102fd82610296565b604082019050919050565b60006020820190508181036000830152610321816102e5565b9050919050565b7f496e76616c6964205574696c697479546f6b656e206164647265737300000000600082015250565b600061035e601c83610285565b915061036982610328565b602082019050919050565b6000602082019050818103600083015261038d81610351565b9050919050565b612839806103a36000396000f3fe608060405234801561001057600080fd5b50600436106100f55760003560e01c80635a63427e11610097578063b041de6d11610066578063b041de6d1461024c578063db4f319e1461026a578063ddeb63b51461029d578063e8f4e9d4146102b9576100f5565b80635a63427e146101da57806379d9c439146101f65780639013ae0814610212578063ae86ed891461022e576100f5565b8063479ad4c3116100d3578063479ad4c314610168578063481c6a75146101845780634eda529b146101a2578063563f0f49146101be576100f5565b80630d5defa4146100fa5780631e4b4a60146101185780633782fded1461014c575b600080fd5b6101026102d7565b60405161010f919061173d565b60405180910390f35b610132600480360381019061012d91906117a2565b6102fd565b6040516101439594939291906117f9565b60405180910390f35b61016660048036038101906101619190611878565b610360565b005b610182600480360381019061017d91906117a2565b6104a3565b005b61018c6105ff565b604051610199919061173d565b60405180910390f35b6101bc60048036038101906101b791906118a5565b610625565b005b6101d860048036038101906101d391906118e5565b610ab4565b005b6101f460048036038101906101ef9190611878565b610c40565b005b610210600480360381019061020b91906117a2565b610e14565b005b61022c60048036038101906102279190611878565b611248565b005b61023661138b565b6040516102439190611984565b60405180910390f35b6102546113b1565b604051610261919061173d565b60405180910390f35b610284600480360381019061027f91906117a2565b6113d7565b604051610294949392919061199f565b60405180910390f35b6102b760048036038101906102b29190611878565b6114b2565b005b6102c1611686565b6040516102ce919061173d565b60405180910390f35b600560009054906101000a900473ffffffffffffffffffffffffffffffffffffffff1681565b60066020528060005260406000206000915090508060000154908060010154908060020160009054906101000a900473ffffffffffffffffffffffffffffffffffffffff16908060020160149054906101000a900460ff16908060030154905085565b600160009054906101000a900473ffffffffffffffffffffffffffffffffffffffff1673ffffffffffffffffffffffffffffffffffffffff163373ffffffffffffffffffffffffffffffffffffffff16146103f0576040517f08c379a00000000000000000000000000000000000000000000000000000000081526004016103e790611a67565b60405180910390fd5b600073ffffffffffffffffffffffffffffffffffffffff168173ffffffffffffffffffffffffffffffffffffffff160361045f576040517f08c379a000000000000000000000000000000000000000000000000000000000815260040161045690611af9565b60405180910390fd5b80600260006101000a81548173ffffffffffffffffffffffffffffffffffffffff021916908373ffffffffffffffffffffffffffffffffffffffff16021790555050565b803373ffffffffffffffffffffffffffffffffffffffff166006600083815260200190815260200160002060020160009054906101000a900473ffffffffffffffffffffffffffffffffffffffff1673ffffffffffffffffffffffffffffffffffffffff1614610548576040517f08c379a000000000000000000000000000000000000000000000000000000000815260040161053f90611b8b565b60405180910390fd5b60006006600084815260200190815260200160002090508060020160149054906101000a900460ff166105b0576040517f08c379a00000000000000000000000000000000000000000000000000000000081526004016105a790611bf7565b60405180910390fd5b60008160020160146101000a81548160ff021916908315150217905550827f51a9d0860a9b8ef69e7cd2cc93e90cff1b4cf1433a5cffbe7394d0aa6f994b3260405160405180910390a2505050565b600160009054906101000a900473ffffffffffffffffffffffffffffffffffffffff1681565b60008111610668576040517f08c379a000000000000000000000000000000000000000000000000000000000815260040161065f90611c63565b60405180910390fd5b60008190506000806000600260009054906101000a900473ffffffffffffffffffffffffffffffffffffffff1673ffffffffffffffffffffffffffffffffffffffff1663126dbe43876040518263ffffffff1660e01b81526004016106cd9190611c83565b600060405180830381865afa1580156106ea573d6000803e3d6000fd5b505050506040513d6000823e3d601f19601f820116820180604052508101906107139190611e55565b50509550955050505092508061075e576040517f08c379a000000000000000000000000000000000000000000000000000000000815260040161075590611f8f565b60405180910390fd5b3373ffffffffffffffffffffffffffffffffffffffff168273ffffffffffffffffffffffffffffffffffffffff16146107cc576040517f08c379a00000000000000000000000000000000000000000000000000000000081526004016107c390611ffb565b60405180910390fd5b6006600087815260200190815260200160002060020160149054906101000a900460ff1615610830576040517f08c379a000000000000000000000000000000000000000000000000000000000815260040161082790612067565b60405180910390fd5b600073ffffffffffffffffffffffffffffffffffffffff16600360009054906101000a900473ffffffffffffffffffffffffffffffffffffffff1673ffffffffffffffffffffffffffffffffffffffff1614610974576000600360009054906101000a900473ffffffffffffffffffffffffffffffffffffffff16905060008173ffffffffffffffffffffffffffffffffffffffff1663ac06b0d8896040518263ffffffff1660e01b81526004016108e89190611c83565b61010060405180830381865afa158015610906573d6000803e3d6000fd5b505050506040513d601f19601f8201168201806040525081019061092a9190612156565b90508060c0015115610971576040517f08c379a0000000000000000000000000000000000000000000000000000000008152600401610968906121d0565b60405180910390fd5b50505b6040518060a001604052808781526020018581526020013373ffffffffffffffffffffffffffffffffffffffff16815260200160011515815260200162278d00426109bf919061221f565b81525060066000888152602001908152602001600020600082015181600001556020820151816001015560408201518160020160006101000a81548173ffffffffffffffffffffffffffffffffffffffff021916908373ffffffffffffffffffffffffffffffffffffffff16021790555060608201518160020160146101000a81548160ff021916908315150217905550608082015181600301559050503373ffffffffffffffffffffffffffffffffffffffff16867f23fb658c1698b92f5fe511a079c17ecf7965cbc3f1b873328c67e2c3c0820f1f86604051610aa49190611c83565b60405180910390a3505050505050565b600560009054906101000a900473ffffffffffffffffffffffffffffffffffffffff1673ffffffffffffffffffffffffffffffffffffffff163373ffffffffffffffffffffffffffffffffffffffff1614610b44576040517f08c379a0000000000000000000000000000000000000000000000000000000008152600401610b3b9061229f565b60405180910390fd5b600260009054906101000a900473ffffffffffffffffffffffffffffffffffffffff1673ffffffffffffffffffffffffffffffffffffffff1663d40bd04c83836040518363ffffffff1660e01b8152600401610ba19291906122bf565b600060405180830381600087803b158015610bbb57600080fd5b505af1158015610bcf573d6000803e3d6000fd5b505050506006600083815260200190815260200160002060008082016000905560018201600090556002820160006101000a81549073ffffffffffffffffffffffffffffffffffffffff02191690556002820160146101000a81549060ff0219169055600382016000905550505050565b600160009054906101000a900473ffffffffffffffffffffffffffffffffffffffff1673ffffffffffffffffffffffffffffffffffffffff163373ffffffffffffffffffffffffffffffffffffffff1614610cd0576040517f08c379a0000000000000000000000000000000000000000000000000000000008152600401610cc790611a67565b60405180910390fd5b600073ffffffffffffffffffffffffffffffffffffffff168173ffffffffffffffffffffffffffffffffffffffff1603610d3f576040517f08c379a0000000000000000000000000000000000000000000000000000000008152600401610d369061235a565b60405180910390fd5b600073ffffffffffffffffffffffffffffffffffffffff16600360009054906101000a900473ffffffffffffffffffffffffffffffffffffffff1673ffffffffffffffffffffffffffffffffffffffff1614610dd0576040517f08c379a0000000000000000000000000000000000000000000000000000000008152600401610dc7906123ec565b60405180910390fd5b80600360006101000a81548173ffffffffffffffffffffffffffffffffffffffff021916908373ffffffffffffffffffffffffffffffffffffffff16021790555050565b610e1c6116ac565b60006006600083815260200190815260200160002090508060020160149054906101000a900460ff16610e84576040517f08c379a0000000000000000000000000000000000000000000000000000000008152600401610e7b9061247e565b60405180910390fd5b8060030154421115610ecb576040517f08c379a0000000000000000000000000000000000000000000000000000000008152600401610ec2906124ea565b60405180910390fd5b8060010154600460009054906101000a900473ffffffffffffffffffffffffffffffffffffffff1673ffffffffffffffffffffffffffffffffffffffff166370a08231336040518263ffffffff1660e01b8152600401610f2b919061173d565b602060405180830381865afa158015610f48573d6000803e3d6000fd5b505050506040513d601f19601f82011682018060405250810190610f6c919061250a565b1015610fad576040517f08c379a0000000000000000000000000000000000000000000000000000000008152600401610fa490612583565b60405180910390fd5b600460009054906101000a900473ffffffffffffffffffffffffffffffffffffffff1673ffffffffffffffffffffffffffffffffffffffff166323b872dd338360020160009054906101000a900473ffffffffffffffffffffffffffffffffffffffff1684600101546040518463ffffffff1660e01b8152600401611034939291906125a3565b6020604051808303816000875af1158015611053573d6000803e3d6000fd5b505050506040513d601f19601f8201168201806040525081019061107791906125da565b6110b6576040517f08c379a00000000000000000000000000000000000000000000000000000000081526004016110ad90612679565b60405180910390fd5b3373ffffffffffffffffffffffffffffffffffffffff168160020160009054906101000a900473ffffffffffffffffffffffffffffffffffffffff1673ffffffffffffffffffffffffffffffffffffffff16837fddd64180d9701c7ede08673ac8106484ff983a472929330d4fbde4e35d65cb06846001015460405161113c9190611c83565b60405180910390a46006600083815260200190815260200160002060008082016000905560018201600090556002820160006101000a81549073ffffffffffffffffffffffffffffffffffffffff02191690556002820160146101000a81549060ff021916905560038201600090555050600260009054906101000a900473ffffffffffffffffffffffffffffffffffffffff1673ffffffffffffffffffffffffffffffffffffffff1663d40bd04c83336040518363ffffffff1660e01b815260040161120a9291906122bf565b600060405180830381600087803b15801561122457600080fd5b505af1158015611238573d6000803e3d6000fd5b50505050506112456116f2565b50565b600160009054906101000a900473ffffffffffffffffffffffffffffffffffffffff1673ffffffffffffffffffffffffffffffffffffffff163373ffffffffffffffffffffffffffffffffffffffff16146112d8576040517f08c379a00000000000000000000000000000000000000000000000000000000081526004016112cf90611a67565b60405180910390fd5b600073ffffffffffffffffffffffffffffffffffffffff168173ffffffffffffffffffffffffffffffffffffffff1603611347576040517f08c379a000000000000000000000000000000000000000000000000000000000815260040161133e9061270b565b60405180910390fd5b80600460006101000a81548173ffffffffffffffffffffffffffffffffffffffff021916908373ffffffffffffffffffffffffffffffffffffffff16021790555050565b600460009054906101000a900473ffffffffffffffffffffffffffffffffffffffff1681565b600260009054906101000a900473ffffffffffffffffffffffffffffffffffffffff1681565b6000806000806000600660008781526020019081526020016000206040518060a001604052908160008201548152602001600182015481526020016002820160009054906101000a900473ffffffffffffffffffffffffffffffffffffffff1673ffffffffffffffffffffffffffffffffffffffff1673ffffffffffffffffffffffffffffffffffffffff1681526020016002820160149054906101000a900460ff16151515158152602001600382015481525050905080600001518160200151826040015183606001519450945094509450509193509193565b600160009054906101000a900473ffffffffffffffffffffffffffffffffffffffff1673ffffffffffffffffffffffffffffffffffffffff163373ffffffffffffffffffffffffffffffffffffffff1614611542576040517f08c379a000000000000000000000000000000000000000000000000000000000815260040161153990611a67565b60405180910390fd5b600073ffffffffffffffffffffffffffffffffffffffff168173ffffffffffffffffffffffffffffffffffffffff16036115b1576040517f08c379a00000000000000000000000000000000000000000000000000000000081526004016115a890612777565b60405180910390fd5b600073ffffffffffffffffffffffffffffffffffffffff16600560009054906101000a900473ffffffffffffffffffffffffffffffffffffffff1673ffffffffffffffffffffffffffffffffffffffff1614611642576040517f08c379a0000000000000000000000000000000000000000000000000000000008152600401611639906127e3565b60405180910390fd5b80600560006101000a81548173ffffffffffffffffffffffffffffffffffffffff021916908373ffffffffffffffffffffffffffffffffffffffff16021790555050565b600360009054906101000a900473ffffffffffffffffffffffffffffffffffffffff1681565b6002600054036116e8576040517f3ee5aeb500000000000000000000000000000000000000000000000000000000815260040160405180910390fd5b6002600081905550565b6001600081905550565b600073ffffffffffffffffffffffffffffffffffffffff82169050919050565b6000611727826116fc565b9050919050565b6117378161171c565b82525050565b6000602082019050611752600083018461172e565b92915050565b6000604051905090565b600080fd5b600080fd5b6000819050919050565b61177f8161176c565b811461178a57600080fd5b50565b60008135905061179c81611776565b92915050565b6000602082840312156117b8576117b7611762565b5b60006117c68482850161178d565b91505092915050565b6117d88161176c565b82525050565b60008115159050919050565b6117f3816117de565b82525050565b600060a08201905061180e60008301886117cf565b61181b60208301876117cf565b611828604083018661172e565b61183560608301856117ea565b61184260808301846117cf565b9695505050505050565b6118558161171c565b811461186057600080fd5b50565b6000813590506118728161184c565b92915050565b60006020828403121561188e5761188d611762565b5b600061189c84828501611863565b91505092915050565b600080604083850312156118bc576118bb611762565b5b60006118ca8582860161178d565b92505060206118db8582860161178d565b9150509250929050565b600080604083850312156118fc576118fb611762565b5b600061190a8582860161178d565b925050602061191b85828601611863565b9150509250929050565b6000819050919050565b600061194a611945611940846116fc565b611925565b6116fc565b9050919050565b600061195c8261192f565b9050919050565b600061196e82611951565b9050919050565b61197e81611963565b82525050565b60006020820190506119996000830184611975565b92915050565b60006080820190506119b460008301876117cf565b6119c160208301866117cf565b6119ce604083018561172e565b6119db60608301846117ea565b95945050505050565b600082825260208201905092915050565b7f4f6e6c79206d616e616765722063616e20706572666f726d207468697320616360008201527f74696f6e00000000000000000000000000000000000000000000000000000000602082015250565b6000611a516024836119e4565b9150611a5c826119f5565b604082019050919050565b60006020820190508181036000830152611a8081611a44565b9050919050565b7f5265616c4573746174654d616e6167657220616464726573732063616e6e6f7460008201527f206265207a65726f000000000000000000000000000000000000000000000000602082015250565b6000611ae36028836119e4565b9150611aee82611a87565b604082019050919050565b60006020820190508181036000830152611b1281611ad6565b9050919050565b7f4f6e6c792073656c6c65722063616e20706572666f726d20746869732061637460008201527f696f6e0000000000000000000000000000000000000000000000000000000000602082015250565b6000611b756023836119e4565b9150611b8082611b19565b604082019050919050565b60006020820190508181036000830152611ba481611b68565b9050919050565b7f4c697374696e6720697320616c726561647920696e6163746976650000000000600082015250565b6000611be1601b836119e4565b9150611bec82611bab565b602082019050919050565b60006020820190508181036000830152611c1081611bd4565b9050919050565b7f5072696365206d7573742062652067726561746572207468616e207a65726f00600082015250565b6000611c4d601f836119e4565b9150611c5882611c17565b602082019050919050565b60006020820190508181036000830152611c7c81611c40565b9050919050565b6000602082019050611c9860008301846117cf565b92915050565b600081519050611cad81611776565b92915050565b600080fd5b600080fd5b6000601f19601f8301169050919050565b7f4e487b7100000000000000000000000000000000000000000000000000000000600052604160045260246000fd5b611d0682611cbd565b810181811067ffffffffffffffff82111715611d2557611d24611cce565b5b80604052505050565b6000611d38611758565b9050611d448282611cfd565b919050565b600067ffffffffffffffff821115611d6457611d63611cce565b5b611d6d82611cbd565b9050602081019050919050565b60005b83811015611d98578082015181840152602081019050611d7d565b60008484015250505050565b6000611db7611db284611d49565b611d2e565b905082815260208101848484011115611dd357611dd2611cb8565b5b611dde848285611d7a565b509392505050565b600082601f830112611dfb57611dfa611cb3565b5b8151611e0b848260208601611da4565b91505092915050565b600081519050611e238161184c565b92915050565b611e32816117de565b8114611e3d57600080fd5b50565b600081519050611e4f81611e29565b92915050565b600080600080600080600080610100898b031215611e7657611e75611762565b5b6000611e848b828c01611c9e565b985050602089015167ffffffffffffffff811115611ea557611ea4611767565b5b611eb18b828c01611de6565b975050604089015167ffffffffffffffff811115611ed257611ed1611767565b5b611ede8b828c01611de6565b9650506060611eef8b828c01611c9e565b9550506080611f008b828c01611e14565b94505060a0611f118b828c01611e40565b93505060c0611f228b828c01611e40565b92505060e0611f338b828c01611e14565b9150509295985092959890939650565b7f50726f7065727479206973206e6f7420746f6b656e697a656400000000000000600082015250565b6000611f796019836119e4565b9150611f8482611f43565b602082019050919050565b60006020820190508181036000830152611fa881611f6c565b9050919050565b7f43616c6c6572206973206e6f7420746865206f776e6572000000000000000000600082015250565b6000611fe56017836119e4565b9150611ff082611faf565b602082019050919050565b6000602082019050818103600083015261201481611fd8565b9050919050565b7f50726f706572747920697320616c7265616479206c6973746564000000000000600082015250565b6000612051601a836119e4565b915061205c8261201b565b602082019050919050565b6000602082019050818103600083015261208081612044565b9050919050565b600080fd5b600061010082840312156120a3576120a2612087565b5b6120ae610100611d2e565b905060006120be84828501611c9e565b60008301525060206120d284828501611c9e565b60208301525060406120e684828501611e14565b60408301525060606120fa84828501611e14565b606083015250608061210e84828501611c9e565b60808301525060a061212284828501611c9e565b60a08301525060c061213684828501611e40565b60c08301525060e061214a84828501611c9e565b60e08301525092915050565b6000610100828403121561216d5761216c611762565b5b600061217b8482850161208c565b91505092915050565b7f50726f70657274792069732063757272656e746c792072656e74656400000000600082015250565b60006121ba601c836119e4565b91506121c582612184565b602082019050919050565b600060208201905081810360008301526121e9816121ad565b9050919050565b7f4e487b7100000000000000000000000000000000000000000000000000000000600052601160045260246000fd5b600061222a8261176c565b91506122358361176c565b925082820190508082111561224d5761224c6121f0565b5b92915050565b7f4f6e6c7920657363726f772063616e2063616c6c000000000000000000000000600082015250565b60006122896014836119e4565b915061229482612253565b602082019050919050565b600060208201905081810360008301526122b88161227c565b9050919050565b60006040820190506122d460008301856117cf565b6122e1602083018461172e565b9392505050565b7f52656e74616c436f6e747261637420616464726573732063616e6e6f7420626560008201527f207a65726f000000000000000000000000000000000000000000000000000000602082015250565b60006123446025836119e4565b915061234f826122e8565b604082019050919050565b6000602082019050818103600083015261237381612337565b9050919050565b7f52656e74616c436f6e7472616374206164647265737320616c7265616479207360008201527f6574000000000000000000000000000000000000000000000000000000000000602082015250565b60006123d66022836119e4565b91506123e18261237a565b604082019050919050565b60006020820190508181036000830152612405816123c9565b9050919050565b7f50726f7065727479206973206e6f7420617661696c61626c6520666f7220736160008201527f6c65000000000000000000000000000000000000000000000000000000000000602082015250565b60006124686022836119e4565b91506124738261240c565b604082019050919050565b600060208201905081810360008301526124978161245b565b9050919050565b7f4c697374696e6720686173206578706972656400000000000000000000000000600082015250565b60006124d46013836119e4565b91506124df8261249e565b602082019050919050565b60006020820190508181036000830152612503816124c7565b9050919050565b6000602082840312156125205761251f611762565b5b600061252e84828501611c9e565b91505092915050565b7f496e73756666696369656e7420746f6b656e2062616c616e6365000000000000600082015250565b600061256d601a836119e4565b915061257882612537565b602082019050919050565b6000602082019050818103600083015261259c81612560565b9050919050565b60006060820190506125b8600083018661172e565b6125c5602083018561172e565b6125d260408301846117cf565b949350505050565b6000602082840312156125f0576125ef611762565b5b60006125fe84828501611e40565b91505092915050565b7f546f6b656e207472616e73666572206661696c65642e20417070726f7665204d60008201527f61726b6574706c61636520666972737400000000000000000000000000000000602082015250565b60006126636030836119e4565b915061266e82612607565b604082019050919050565b6000602082019050818103600083015261269281612656565b9050919050565b7f5574696c697479546f6b656e20616464726573732063616e6e6f74206265207a60008201527f65726f0000000000000000000000000000000000000000000000000000000000602082015250565b60006126f56023836119e4565b915061270082612699565b604082019050919050565b60006020820190508181036000830152612724816126e8565b9050919050565b7f457363726f7720616464726573732063616e6e6f74206265207a65726f000000600082015250565b6000612761601d836119e4565b915061276c8261272b565b602082019050919050565b6000602082019050818103600083015261279081612754565b9050919050565b7f457363726f77206164647265737320616c726561647920736574000000000000600082015250565b60006127cd601a836119e4565b91506127d882612797565b602082019050919050565b600060208201905081810360008301526127fc816127c0565b905091905056fea26469706673582212209c3a6c17f7413b60932d0714a2ca3ca665067e877bc5cbe8969db08114c4cc3664736f6c634300081b0033",
  "linkReferences": {},
  "deployedLinkReferences": {}
}