{
  "_format": "hh-sol-artifact-1",
  "contractName": "RentalContract",
  "sourceName": "contracts/RentalContract.sol",
  "abi": [
    {
      "inputs": [
        {
          "internalType": "address",
          "name": "_utilityToken",
          "type": "address"
        },
        {
          "internalType": "address",
          "name": "_realEstateManager",
          "type": "address"
        }
      ],
      "stateMutability": "nonpayable",
      "type": "constructor"
    },
    {
      "inputs": [],
      "name": "ReentrancyGuardReentrantCall",
      "type": "error"
    },
    {
      "anonymous": false,
      "inputs": [
        {
          "indexed": true,
          "internalType": "uint256",
          "name": "propertyId",
          "type": "uint256"
        },
        {
          "indexed": true,
          "internalType": "address",
          "name": "landlord",
          "type": "address"
        },
        {
          "indexed": false,
          "internalType": "uint256",
          "name": "rentalPrice",
          "type": "uint256"
        }
      ],
      "name": "PropertyListedForRent",
      "type": "event"
    },
    {
      "anonymous": false,
      "inputs": [
        {
          "indexed": true,
          "internalType": "uint256",
          "name": "propertyId",
          "type": "uint256"
        }
      ],
      "name": "RentalAgreementEnded",
      "type": "event"
    },
    {
      "anonymous": false,
      "inputs": [
        {
          "indexed": true,
          "internalType": "uint256",
          "name": "propertyId",
          "type": "uint256"
        },
        {
          "indexed": true,
          "internalType": "address",
          "name": "landlord",
          "type": "address"
        },
        {
          "indexed": false,
          "internalType": "uint256",
          "name": "totalIncome",
          "type": "uint256"
        }
      ],
      "name": "RentalIncomeDistributed",
      "type": "event"
    },
    {
      "anonymous": false,
      "inputs": [
        {
          "indexed": true,
          "internalType": "uint256",
          "name": "propertyId",
          "type": "uint256"
        },
        {
          "indexed": true,
          "internalType": "address",
          "name": "tenant",
          "type": "address"
        },
        {
          "indexed": false,
          "internalType": "uint256",
          "name": "amount",
          "type": "uint256"
        }
      ],
      "name": "RentalPaymentMade",
      "type": "event"
    },
    {
      "inputs": [
        {
          "internalType": "uint256",
          "name": "_propertyId",
          "type": "uint256"
        }
      ],
      "name": "distributeRentalIncome",
      "outputs": [],
      "stateMutability": "nonpayable",
      "type": "function"
    },
    {
      "inputs": [
        {
          "internalType": "uint256",
          "name": "_propertyId",
          "type": "uint256"
        }
      ],
      "name": "endRentalAgreement",
      "outputs": [],
      "stateMutability": "nonpayable",
      "type": "function"
    },
    {
      "inputs": [],
      "name": "escrowAddress",
      "outputs": [
        {
          "internalType": "address",
          "name": "",
          "type": "address"
        }
      ],
      "stateMutability": "view",
      "type": "function"
    },
    {
      "inputs": [
        {
          "internalType": "uint256",
          "name": "_propertyId",
          "type": "uint256"
        },
        {
          "internalType": "uint256",
          "name": "_rentalPrice",
          "type": "uint256"
        },
        {
          "internalType": "uint256",
          "name": "_duration",
          "type": "uint256"
        }
      ],
      "name": "listForRent",
      "outputs": [],
      "stateMutability": "nonpayable",
      "type": "function"
    },
    {
      "inputs": [],
      "name": "manager",
      "outputs": [
        {
          "internalType": "address",
          "name": "",
          "type": "address"
        }
      ],
      "stateMutability": "view",
      "type": "function"
    },
    {
      "inputs": [],
      "name": "marketplace",
      "outputs": [
        {
          "internalType": "address",
          "name": "",
          "type": "address"
        }
      ],
      "stateMutability": "view",
      "type": "function"
    },
    {
      "inputs": [],
      "name": "realEstateManager",
      "outputs": [
        {
          "internalType": "address",
          "name": "",
          "type": "address"
        }
      ],
      "stateMutability": "view",
      "type": "function"
    },
    {
      "inputs": [
        {
          "internalType": "uint256",
          "name": "_propertyId",
          "type": "uint256"
        }
      ],
      "name": "renewRentalAgreement",
      "outputs": [],
      "stateMutability": "nonpayable",
      "type": "function"
    },
    {
      "inputs": [
        {
          "internalType": "uint256",
          "name": "_propertyId",
          "type": "uint256"
        }
      ],
      "name": "rentProperty",
      "outputs": [],
      "stateMutability": "nonpayable",
      "type": "function"
    },
    {
      "inputs": [
        {
          "internalType": "uint256",
          "name": "",
          "type": "uint256"
        }
      ],
      "name": "rentalAgreements",
      "outputs": [
        {
          "internalType": "uint256",
          "name": "propertyId",
          "type": "uint256"
        },
        {
          "internalType": "uint256",
          "name": "rentalPrice",
          "type": "uint256"
        },
        {
          "internalType": "address",
          "name": "landlord",
          "type": "address"
        },
        {
          "internalType": "address",
          "name": "tenant",
          "type": "address"
        },
        {
          "internalType": "uint256",
          "name": "startDate",
          "type": "uint256"
        },
        {
          "internalType": "uint256",
          "name": "endDate",
          "type": "uint256"
        },
        {
          "internalType": "bool",
          "name": "isActive",
          "type": "bool"
        },
        {
          "internalType": "uint256",
          "name": "totalRentCollected",
          "type": "uint256"
        }
      ],
      "stateMutability": "view",
      "type": "function"
    },
    {
      "inputs": [
        {
          "internalType": "address",
          "name": "_escrowAddress",
          "type": "address"
        }
      ],
      "name": "setEscrowAddress",
      "outputs": [],
      "stateMutability": "nonpayable",
      "type": "function"
    },
    {
      "inputs": [
        {
          "internalType": "address",
          "name": "_marketplace",
          "type": "address"
        }
      ],
      "name": "setMarketplace",
      "outputs": [],
      "stateMutability": "nonpayable",
      "type": "function"
    },
    {
      "inputs": [
        {
          "internalType": "address",
          "name": "_realEstateManager",
          "type": "address"
        }
      ],
      "name": "setRealEstateManager",
      "outputs": [],
      "stateMutability": "nonpayable",
      "type": "function"
    },
    {
      "inputs": [
        {
          "internalType": "address",
          "name": "_utilityToken",
          "type": "address"
        }
      ],
      "name": "setUtilityToken",
      "outputs": [],
      "stateMutability": "nonpayable",
      "type": "function"
    },
    {
      "inputs": [
        {
          "internalType": "uint256",
          "name": "_propertyId",
          "type": "uint256"
        },
        {
          "internalType": "address",
          "name": "_tenant",
          "type": "address"
        },
        {
          "internalType": "uint256",
          "name": "_startDate",
          "type": "uint256"
        },
        {
          "internalType": "uint256",
          "name": "_endDate",
          "type": "uint256"
        },
        {
          "internalType": "uint256",
          "name": "_rentAmount",
          "type": "uint256"
        }
      ],
      "name": "updateRentalAgreement",
      "outputs": [],
      "stateMutability": "nonpayable",
      "type": "function"
    },
    {
      "inputs": [],
      "name": "utilityToken",
      "outputs": [
        {
          "internalType": "contract IERC20",
          "name": "",
          "type": "address"
        }
      ],
      "stateMutability": "view",
      "type": "function"
    }
  ],
  "bytecode": "0x608060405234801561001057600080fd5b5060405161353738038061353783398181016040528101906100329190610245565b6001600081905550600073ffffffffffffffffffffffffffffffffffffffff168273ffffffffffffffffffffffffffffffffffffffff16036100a9576040517f08c379a00000000000000000000000000000000000000000000000000000000081526004016100a0906102e2565b60405180910390fd5b600073ffffffffffffffffffffffffffffffffffffffff168173ffffffffffffffffffffffffffffffffffffffff1603610118576040517f08c379a000000000000000000000000000000000000000000000000000000000815260040161010f90610374565b60405180910390fd5b81600260006101000a81548173ffffffffffffffffffffffffffffffffffffffff021916908373ffffffffffffffffffffffffffffffffffffffff16021790555080600360006101000a81548173ffffffffffffffffffffffffffffffffffffffff021916908373ffffffffffffffffffffffffffffffffffffffff16021790555033600160006101000a81548173ffffffffffffffffffffffffffffffffffffffff021916908373ffffffffffffffffffffffffffffffffffffffff1602179055505050610394565b600080fd5b600073ffffffffffffffffffffffffffffffffffffffff82169050919050565b6000610212826101e7565b9050919050565b61022281610207565b811461022d57600080fd5b50565b60008151905061023f81610219565b92915050565b6000806040838503121561025c5761025b6101e2565b5b600061026a85828601610230565b925050602061027b85828601610230565b9150509250929050565b600082825260208201905092915050565b7f496e76616c6964205574696c697479546f6b656e206164647265737300000000600082015250565b60006102cc601c83610285565b91506102d782610296565b602082019050919050565b600060208201905081810360008301526102fb816102bf565b9050919050565b7f496e76616c6964205265616c4573746174654d616e616765722061646472657360008201527f7300000000000000000000000000000000000000000000000000000000000000602082015250565b600061035e602183610285565b915061036982610302565b604082019050919050565b6000602082019050818103600083015261038d81610351565b9050919050565b613194806103a36000396000f3fe608060405234801561001057600080fd5b50600436106101005760003560e01c80639d36ab6c11610097578063b041de6d11610066578063b041de6d14610278578063cad2487e14610296578063db43919b146102b2578063ddeb63b5146102ce57610100565b80639d36ab6c146101e9578063abc8c7af14610205578063ac06b0d814610223578063ae86ed891461025a57610100565b806373ad6c2d116100d357806373ad6c2d146101795780639013ae0814610195578063945ec30e146101b15780639afe8471146101cd57610100565b80630d5defa4146101055780633782fded14610123578063481c6a751461013f57806356d5c50b1461015d575b600080fd5b61010d6102ea565b60405161011a9190611ff4565b60405180910390f35b61013d6004803603810190610138919061204f565b610310565b005b610147610453565b6040516101549190611ff4565b60405180910390f35b610177600480360381019061017291906120b2565b610479565b005b610193600480360381019061018e919061204f565b610619565b005b6101af60048036038101906101aa919061204f565b6107ed565b005b6101cb60048036038101906101c691906120df565b610930565b005b6101e760048036038101906101e291906120b2565b610e75565b005b61020360048036038101906101fe91906120b2565b6112e0565b005b61020d611734565b60405161021a9190611ff4565b60405180910390f35b61023d600480360381019061023891906120b2565b61175a565b60405161025198979695949392919061215c565b60405180910390f35b6102626117ef565b60405161026f9190612239565b60405180910390f35b610280611815565b60405161028d9190611ff4565b60405180910390f35b6102b060048036038101906102ab9190612254565b61183b565b005b6102cc60048036038101906102c791906120b2565b611ae5565b005b6102e860048036038101906102e3919061204f565b611d8f565b005b600560009054906101000a900473ffffffffffffffffffffffffffffffffffffffff1681565b600160009054906101000a900473ffffffffffffffffffffffffffffffffffffffff1673ffffffffffffffffffffffffffffffffffffffff163373ffffffffffffffffffffffffffffffffffffffff16146103a0576040517f08c379a000000000000000000000000000000000000000000000000000000000815260040161039790612352565b60405180910390fd5b600073ffffffffffffffffffffffffffffffffffffffff168173ffffffffffffffffffffffffffffffffffffffff160361040f576040517f08c379a0000000000000000000000000000000000000000000000000000000008152600401610406906123e4565b60405180910390fd5b80600360006101000a81548173ffffffffffffffffffffffffffffffffffffffff021916908373ffffffffffffffffffffffffffffffffffffffff16021790555050565b600160009054906101000a900473ffffffffffffffffffffffffffffffffffffffff1681565b803373ffffffffffffffffffffffffffffffffffffffff166006600083815260200190815260200160002060020160009054906101000a900473ffffffffffffffffffffffffffffffffffffffff1673ffffffffffffffffffffffffffffffffffffffff161461051e576040517f08c379a000000000000000000000000000000000000000000000000000000000815260040161051590612476565b60405180910390fd5b60006006600084815260200190815260200160002090508060060160009054906101000a900460ff16610586576040517f08c379a000000000000000000000000000000000000000000000000000000000815260040161057d906124e2565b60405180910390fd5b60008160060160006101000a81548160ff02191690831515021790555060008160030160006101000a81548173ffffffffffffffffffffffffffffffffffffffff021916908373ffffffffffffffffffffffffffffffffffffffff160217905550827f773e046b0c9c81ac9a2384ad959533cf2a7cf65fd33219938c08ade02a180a4e60405160405180910390a2505050565b600160009054906101000a900473ffffffffffffffffffffffffffffffffffffffff1673ffffffffffffffffffffffffffffffffffffffff163373ffffffffffffffffffffffffffffffffffffffff16146106a9576040517f08c379a00000000000000000000000000000000000000000000000000000000081526004016106a090612352565b60405180910390fd5b600073ffffffffffffffffffffffffffffffffffffffff168173ffffffffffffffffffffffffffffffffffffffff1603610718576040517f08c379a000000000000000000000000000000000000000000000000000000000815260040161070f90612574565b60405180910390fd5b600073ffffffffffffffffffffffffffffffffffffffff16600460009054906101000a900473ffffffffffffffffffffffffffffffffffffffff1673ffffffffffffffffffffffffffffffffffffffff16146107a9576040517f08c379a00000000000000000000000000000000000000000000000000000000081526004016107a0906125e0565b60405180910390fd5b80600460006101000a81548173ffffffffffffffffffffffffffffffffffffffff021916908373ffffffffffffffffffffffffffffffffffffffff16021790555050565b600160009054906101000a900473ffffffffffffffffffffffffffffffffffffffff1673ffffffffffffffffffffffffffffffffffffffff163373ffffffffffffffffffffffffffffffffffffffff161461087d576040517f08c379a000000000000000000000000000000000000000000000000000000000815260040161087490612352565b60405180910390fd5b600073ffffffffffffffffffffffffffffffffffffffff168173ffffffffffffffffffffffffffffffffffffffff16036108ec576040517f08c379a00000000000000000000000000000000000000000000000000000000081526004016108e390612672565b60405180910390fd5b80600260006101000a81548173ffffffffffffffffffffffffffffffffffffffff021916908373ffffffffffffffffffffffffffffffffffffffff16021790555050565b60008211610973576040517f08c379a000000000000000000000000000000000000000000000000000000000815260040161096a90612704565b60405180910390fd5b600081116109b6576040517f08c379a00000000000000000000000000000000000000000000000000000000081526004016109ad90612796565b60405180910390fd5b6006600084815260200190815260200160002060060160009054906101000a900460ff1615610a1a576040517f08c379a0000000000000000000000000000000000000000000000000000000008152600401610a1190612802565b60405180910390fd5b6000806000600360009054906101000a900473ffffffffffffffffffffffffffffffffffffffff1673ffffffffffffffffffffffffffffffffffffffff1663126dbe43876040518263ffffffff1660e01b8152600401610a7a9190612822565b600060405180830381865afa158015610a97573d6000803e3d6000fd5b505050506040513d6000823e3d601f19601f82011682018060405250810190610ac091906129f4565b505095509550505050925080610b0b576040517f08c379a0000000000000000000000000000000000000000000000000000000008152600401610b0290612b2e565b60405180910390fd5b3373ffffffffffffffffffffffffffffffffffffffff168273ffffffffffffffffffffffffffffffffffffffff1614610b79576040517f08c379a0000000000000000000000000000000000000000000000000000000008152600401610b7090612b9a565b60405180910390fd5b600073ffffffffffffffffffffffffffffffffffffffff16600460009054906101000a900473ffffffffffffffffffffffffffffffffffffffff1673ffffffffffffffffffffffffffffffffffffffff1614610cb5576000600460009054906101000a900473ffffffffffffffffffffffffffffffffffffffff1673ffffffffffffffffffffffffffffffffffffffff1663db4f319e886040518263ffffffff1660e01b8152600401610c2c9190612822565b608060405180830381865afa158015610c49573d6000803e3d6000fd5b505050506040513d601f19601f82011682018060405250810190610c6d9190612bba565b93505050508015610cb3576040517f08c379a0000000000000000000000000000000000000000000000000000000008152600401610caa90612c6d565b60405180910390fd5b505b60008590506040518061010001604052808881526020018281526020013373ffffffffffffffffffffffffffffffffffffffff168152602001600073ffffffffffffffffffffffffffffffffffffffff1681526020016000815260200160008152602001600115158152602001600081525060066000898152602001908152602001600020600082015181600001556020820151816001015560408201518160020160006101000a81548173ffffffffffffffffffffffffffffffffffffffff021916908373ffffffffffffffffffffffffffffffffffffffff16021790555060608201518160030160006101000a81548173ffffffffffffffffffffffffffffffffffffffff021916908373ffffffffffffffffffffffffffffffffffffffff1602179055506080820151816004015560a0820151816005015560c08201518160060160006101000a81548160ff02191690831515021790555060e082015181600701559050503373ffffffffffffffffffffffffffffffffffffffff16877f0d5951ac096ee1198890b4d297ce9d8b6643c9b37e8be8fb61e5b6d83e20b79e83604051610e649190612822565b60405180910390a350505050505050565b803373ffffffffffffffffffffffffffffffffffffffff166006600083815260200190815260200160002060030160009054906101000a900473ffffffffffffffffffffffffffffffffffffffff1673ffffffffffffffffffffffffffffffffffffffff1614610f1a576040517f08c379a0000000000000000000000000000000000000000000000000000000008152600401610f1190612cff565b60405180910390fd5b610f22611f63565b60006006600084815260200190815260200160002090508060060160009054906101000a900460ff16610f8a576040517f08c379a0000000000000000000000000000000000000000000000000000000008152600401610f81906124e2565b60405180910390fd5b8060050154421015610fd1576040517f08c379a0000000000000000000000000000000000000000000000000000000008152600401610fc890612d6b565b60405180910390fd5b8060010154600260009054906101000a900473ffffffffffffffffffffffffffffffffffffffff1673ffffffffffffffffffffffffffffffffffffffff166370a08231336040518263ffffffff1660e01b81526004016110319190611ff4565b602060405180830381865afa15801561104e573d6000803e3d6000fd5b505050506040513d601f19601f820116820180604052508101906110729190612d8b565b10156110b3576040517f08c379a00000000000000000000000000000000000000000000000000000000081526004016110aa90612e04565b60405180910390fd5b6000600260009054906101000a900473ffffffffffffffffffffffffffffffffffffffff1673ffffffffffffffffffffffffffffffffffffffff166370a08231306040518263ffffffff1660e01b81526004016111109190611ff4565b602060405180830381865afa15801561112d573d6000803e3d6000fd5b505050506040513d601f19601f820116820180604052508101906111519190612d8b565b90508160010154816111639190612e53565b600260009054906101000a900473ffffffffffffffffffffffffffffffffffffffff1673ffffffffffffffffffffffffffffffffffffffff166370a08231306040518263ffffffff1660e01b81526004016111be9190611ff4565b602060405180830381865afa1580156111db573d6000803e3d6000fd5b505050506040513d601f19601f820116820180604052508101906111ff9190612d8b565b1015611240576040517f08c379a000000000000000000000000000000000000000000000000000000000815260040161123790612ed3565b60405180910390fd5b42826004018190555062278d00426112589190612e53565b826005018190555081600101548260070160008282546112789190612e53565b925050819055503373ffffffffffffffffffffffffffffffffffffffff16847f6353575b57ab630c7329952efcf5e768d038d72735555b8295b3af5813b35bab84600101546040516112ca9190612822565b60405180910390a350506112dc611fa9565b5050565b6112e8611f63565b60006006600083815260200190815260200160002090508060060160009054906101000a900460ff16611350576040517f08c379a000000000000000000000000000000000000000000000000000000000815260040161134790612f65565b60405180910390fd5b600073ffffffffffffffffffffffffffffffffffffffff168160030160009054906101000a900473ffffffffffffffffffffffffffffffffffffffff1673ffffffffffffffffffffffffffffffffffffffff16146113e3576040517f08c379a00000000000000000000000000000000000000000000000000000000081526004016113da90612802565b60405180910390fd5b8060010154600260009054906101000a900473ffffffffffffffffffffffffffffffffffffffff1673ffffffffffffffffffffffffffffffffffffffff166370a08231336040518263ffffffff1660e01b81526004016114439190611ff4565b602060405180830381865afa158015611460573d6000803e3d6000fd5b505050506040513d601f19601f820116820180604052508101906114849190612d8b565b10156114c5576040517f08c379a00000000000000000000000000000000000000000000000000000000081526004016114bc90612e04565b60405180910390fd5b6000600260009054906101000a900473ffffffffffffffffffffffffffffffffffffffff1673ffffffffffffffffffffffffffffffffffffffff166370a08231306040518263ffffffff1660e01b81526004016115229190611ff4565b602060405180830381865afa15801561153f573d6000803e3d6000fd5b505050506040513d601f19601f820116820180604052508101906115639190612d8b565b90508160010154816115759190612e53565b600260009054906101000a900473ffffffffffffffffffffffffffffffffffffffff1673ffffffffffffffffffffffffffffffffffffffff166370a08231306040518263ffffffff1660e01b81526004016115d09190611ff4565b602060405180830381865afa1580156115ed573d6000803e3d6000fd5b505050506040513d601f19601f820116820180604052508101906116119190612d8b565b1015611652576040517f08c379a000000000000000000000000000000000000000000000000000000000815260040161164990612ed3565b60405180910390fd5b338260030160006101000a81548173ffffffffffffffffffffffffffffffffffffffff021916908373ffffffffffffffffffffffffffffffffffffffff16021790555042826004018190555062278d00426116ad9190612e53565b826005018190555081600101548260070160008282546116cd9190612e53565b925050819055503373ffffffffffffffffffffffffffffffffffffffff16837f6353575b57ab630c7329952efcf5e768d038d72735555b8295b3af5813b35bab846001015460405161171f9190612822565b60405180910390a35050611731611fa9565b50565b600460009054906101000a900473ffffffffffffffffffffffffffffffffffffffff1681565b60066020528060005260406000206000915090508060000154908060010154908060020160009054906101000a900473ffffffffffffffffffffffffffffffffffffffff16908060030160009054906101000a900473ffffffffffffffffffffffffffffffffffffffff16908060040154908060050154908060060160009054906101000a900460ff16908060070154905088565b600260009054906101000a900473ffffffffffffffffffffffffffffffffffffffff1681565b600360009054906101000a900473ffffffffffffffffffffffffffffffffffffffff1681565b600560009054906101000a900473ffffffffffffffffffffffffffffffffffffffff1673ffffffffffffffffffffffffffffffffffffffff163373ffffffffffffffffffffffffffffffffffffffff1614806118e45750600160009054906101000a900473ffffffffffffffffffffffffffffffffffffffff1673ffffffffffffffffffffffffffffffffffffffff163373ffffffffffffffffffffffffffffffffffffffff16145b611923576040517f08c379a000000000000000000000000000000000000000000000000000000000815260040161191a90612fd1565b60405180910390fd5b60006006600087815260200190815260200160002090508060060160009054906101000a900460ff1661198b576040517f08c379a0000000000000000000000000000000000000000000000000000000008152600401611982906124e2565b60405180910390fd5b600073ffffffffffffffffffffffffffffffffffffffff168160030160009054906101000a900473ffffffffffffffffffffffffffffffffffffffff1673ffffffffffffffffffffffffffffffffffffffff1614611a1e576040517f08c379a0000000000000000000000000000000000000000000000000000000008152600401611a1590612802565b60405180910390fd5b848160030160006101000a81548173ffffffffffffffffffffffffffffffffffffffff021916908373ffffffffffffffffffffffffffffffffffffffff16021790555083816004018190555082816005018190555081816007016000828254611a879190612e53565b925050819055508473ffffffffffffffffffffffffffffffffffffffff16867f6353575b57ab630c7329952efcf5e768d038d72735555b8295b3af5813b35bab84604051611ad59190612822565b60405180910390a3505050505050565b611aed611f63565b60006006600083815260200190815260200160002090508060060160009054906101000a900460ff16611b55576040517f08c379a0000000000000000000000000000000000000000000000000000000008152600401611b4c906124e2565b60405180910390fd5b8060050154421015611b9c576040517f08c379a0000000000000000000000000000000000000000000000000000000008152600401611b9390612d6b565b60405180910390fd5b60008160070154905060008111611be8576040517f08c379a0000000000000000000000000000000000000000000000000000000008152600401611bdf9061303d565b60405180910390fd5b600260009054906101000a900473ffffffffffffffffffffffffffffffffffffffff1673ffffffffffffffffffffffffffffffffffffffff1663f007e9d584836040518363ffffffff1660e01b8152600401611c4592919061305d565b600060405180830381600087803b158015611c5f57600080fd5b505af1158015611c73573d6000803e3d6000fd5b5050505060008260060160006101000a81548160ff02191690831515021790555060008260030160006101000a81548173ffffffffffffffffffffffffffffffffffffffff021916908373ffffffffffffffffffffffffffffffffffffffff160217905550600082600701819055508160020160009054906101000a900473ffffffffffffffffffffffffffffffffffffffff1673ffffffffffffffffffffffffffffffffffffffff16837f0420fd32e5d5c6c28739438147fbb3da298dab4fd62c99bbb5ed7cfd481afb0c83604051611d4d9190612822565b60405180910390a3827f773e046b0c9c81ac9a2384ad959533cf2a7cf65fd33219938c08ade02a180a4e60405160405180910390a25050611d8c611fa9565b50565b600160009054906101000a900473ffffffffffffffffffffffffffffffffffffffff1673ffffffffffffffffffffffffffffffffffffffff163373ffffffffffffffffffffffffffffffffffffffff1614611e1f576040517f08c379a0000000000000000000000000000000000000000000000000000000008152600401611e1690612352565b60405180910390fd5b600073ffffffffffffffffffffffffffffffffffffffff168173ffffffffffffffffffffffffffffffffffffffff1603611e8e576040517f08c379a0000000000000000000000000000000000000000000000000000000008152600401611e85906130d2565b60405180910390fd5b600073ffffffffffffffffffffffffffffffffffffffff16600560009054906101000a900473ffffffffffffffffffffffffffffffffffffffff1673ffffffffffffffffffffffffffffffffffffffff1614611f1f576040517f08c379a0000000000000000000000000000000000000000000000000000000008152600401611f169061313e565b60405180910390fd5b80600560006101000a81548173ffffffffffffffffffffffffffffffffffffffff021916908373ffffffffffffffffffffffffffffffffffffffff16021790555050565b600260005403611f9f576040517f3ee5aeb500000000000000000000000000000000000000000000000000000000815260040160405180910390fd5b6002600081905550565b6001600081905550565b600073ffffffffffffffffffffffffffffffffffffffff82169050919050565b6000611fde82611fb3565b9050919050565b611fee81611fd3565b82525050565b60006020820190506120096000830184611fe5565b92915050565b6000604051905090565b600080fd5b600080fd5b61202c81611fd3565b811461203757600080fd5b50565b60008135905061204981612023565b92915050565b60006020828403121561206557612064612019565b5b60006120738482850161203a565b91505092915050565b6000819050919050565b61208f8161207c565b811461209a57600080fd5b50565b6000813590506120ac81612086565b92915050565b6000602082840312156120c8576120c7612019565b5b60006120d68482850161209d565b91505092915050565b6000806000606084860312156120f8576120f7612019565b5b60006121068682870161209d565b93505060206121178682870161209d565b92505060406121288682870161209d565b9150509250925092565b61213b8161207c565b82525050565b60008115159050919050565b61215681612141565b82525050565b600061010082019050612172600083018b612132565b61217f602083018a612132565b61218c6040830189611fe5565b6121996060830188611fe5565b6121a66080830187612132565b6121b360a0830186612132565b6121c060c083018561214d565b6121cd60e0830184612132565b9998505050505050505050565b6000819050919050565b60006121ff6121fa6121f584611fb3565b6121da565b611fb3565b9050919050565b6000612211826121e4565b9050919050565b600061222382612206565b9050919050565b61223381612218565b82525050565b600060208201905061224e600083018461222a565b92915050565b600080600080600060a086880312156122705761226f612019565b5b600061227e8882890161209d565b955050602061228f8882890161203a565b94505060406122a08882890161209d565b93505060606122b18882890161209d565b92505060806122c28882890161209d565b9150509295509295909350565b600082825260208201905092915050565b7f4f6e6c79206d616e616765722063616e20706572666f726d207468697320616360008201527f74696f6e00000000000000000000000000000000000000000000000000000000602082015250565b600061233c6024836122cf565b9150612347826122e0565b604082019050919050565b6000602082019050818103600083015261236b8161232f565b9050919050565b7f5265616c4573746174654d616e6167657220616464726573732063616e6e6f7460008201527f206265207a65726f000000000000000000000000000000000000000000000000602082015250565b60006123ce6028836122cf565b91506123d982612372565b604082019050919050565b600060208201905081810360008301526123fd816123c1565b9050919050565b7f4f6e6c79206c616e646c6f72642063616e20706572666f726d2074686973206160008201527f6374696f6e000000000000000000000000000000000000000000000000000000602082015250565b60006124606025836122cf565b915061246b82612404565b604082019050919050565b6000602082019050818103600083015261248f81612453565b9050919050565b7f52656e74616c2061677265656d656e74206973206e6f74206163746976650000600082015250565b60006124cc601e836122cf565b91506124d782612496565b602082019050919050565b600060208201905081810360008301526124fb816124bf565b9050919050565b7f4d61726b6574706c61636520616464726573732063616e6e6f74206265207a6560008201527f726f000000000000000000000000000000000000000000000000000000000000602082015250565b600061255e6022836122cf565b915061256982612502565b604082019050919050565b6000602082019050818103600083015261258d81612551565b9050919050565b7f4d61726b6574706c616365206164647265737320616c72656164792073657400600082015250565b60006125ca601f836122cf565b91506125d582612594565b602082019050919050565b600060208201905081810360008301526125f9816125bd565b9050919050565b7f5574696c697479546f6b656e20616464726573732063616e6e6f74206265207a60008201527f65726f0000000000000000000000000000000000000000000000000000000000602082015250565b600061265c6023836122cf565b915061266782612600565b604082019050919050565b6000602082019050818103600083015261268b8161264f565b9050919050565b7f52656e74616c207072696365206d75737420626520677265617465722074686160008201527f6e207a65726f0000000000000000000000000000000000000000000000000000602082015250565b60006126ee6026836122cf565b91506126f982612692565b604082019050919050565b6000602082019050818103600083015261271d816126e1565b9050919050565b7f4475726174696f6e206d7573742062652067726561746572207468616e207a6560008201527f726f000000000000000000000000000000000000000000000000000000000000602082015250565b60006127806022836122cf565b915061278b82612724565b604082019050919050565b600060208201905081810360008301526127af81612773565b9050919050565b7f50726f706572747920697320616c72656164792072656e746564000000000000600082015250565b60006127ec601a836122cf565b91506127f7826127b6565b602082019050919050565b6000602082019050818103600083015261281b816127df565b9050919050565b60006020820190506128376000830184612132565b92915050565b60008151905061284c81612086565b92915050565b600080fd5b600080fd5b6000601f19601f8301169050919050565b7f4e487b7100000000000000000000000000000000000000000000000000000000600052604160045260246000fd5b6128a58261285c565b810181811067ffffffffffffffff821117156128c4576128c361286d565b5b80604052505050565b60006128d761200f565b90506128e3828261289c565b919050565b600067ffffffffffffffff8211156129035761290261286d565b5b61290c8261285c565b9050602081019050919050565b60005b8381101561293757808201518184015260208101905061291c565b60008484015250505050565b6000612956612951846128e8565b6128cd565b90508281526020810184848401111561297257612971612857565b5b61297d848285612919565b509392505050565b600082601f83011261299a57612999612852565b5b81516129aa848260208601612943565b91505092915050565b6000815190506129c281612023565b92915050565b6129d181612141565b81146129dc57600080fd5b50565b6000815190506129ee816129c8565b92915050565b600080600080600080600080610100898b031215612a1557612a14612019565b5b6000612a238b828c0161283d565b985050602089015167ffffffffffffffff811115612a4457612a4361201e565b5b612a508b828c01612985565b975050604089015167ffffffffffffffff811115612a7157612a7061201e565b5b612a7d8b828c01612985565b9650506060612a8e8b828c0161283d565b9550506080612a9f8b828c016129b3565b94505060a0612ab08b828c016129df565b93505060c0612ac18b828c016129df565b92505060e0612ad28b828c016129b3565b9150509295985092959890939650565b7f50726f7065727479206973206e6f7420746f6b656e697a656400000000000000600082015250565b6000612b186019836122cf565b9150612b2382612ae2565b602082019050919050565b60006020820190508181036000830152612b4781612b0b565b9050919050565b7f43616c6c6572206973206e6f7420746865206f776e6572000000000000000000600082015250565b6000612b846017836122cf565b9150612b8f82612b4e565b602082019050919050565b60006020820190508181036000830152612bb381612b77565b9050919050565b60008060008060808587031215612bd457612bd3612019565b5b6000612be28782880161283d565b9450506020612bf38782880161283d565b9350506040612c04878288016129b3565b9250506060612c15878288016129df565b91505092959194509250565b7f50726f7065727479206973206c697374656420666f722073616c650000000000600082015250565b6000612c57601b836122cf565b9150612c6282612c21565b602082019050919050565b60006020820190508181036000830152612c8681612c4a565b9050919050565b7f4f6e6c792074656e616e742063616e20706572666f726d20746869732061637460008201527f696f6e0000000000000000000000000000000000000000000000000000000000602082015250565b6000612ce96023836122cf565b9150612cf482612c8d565b604082019050919050565b60006020820190508181036000830152612d1881612cdc565b9050919050565b7f52656e74616c20706572696f6420686173206e6f7420656e6465640000000000600082015250565b6000612d55601b836122cf565b9150612d6082612d1f565b602082019050919050565b60006020820190508181036000830152612d8481612d48565b9050919050565b600060208284031215612da157612da0612019565b5b6000612daf8482850161283d565b91505092915050565b7f496e73756666696369656e7420746f6b656e2062616c616e6365000000000000600082015250565b6000612dee601a836122cf565b9150612df982612db8565b602082019050919050565b60006020820190508181036000830152612e1d81612de1565b9050919050565b7f4e487b7100000000000000000000000000000000000000000000000000000000600052601160045260246000fd5b6000612e5e8261207c565b9150612e698361207c565b9250828201905080821115612e8157612e80612e24565b5b92915050565b7f53656e6420746f6b656e7320746f20636f6e7472616374206669727374000000600082015250565b6000612ebd601d836122cf565b9150612ec882612e87565b602082019050919050565b60006020820190508181036000830152612eec81612eb0565b9050919050565b7f50726f7065727479206973206e6f7420617661696c61626c6520666f7220726560008201527f6e74000000000000000000000000000000000000000000000000000000000000602082015250565b6000612f4f6022836122cf565b9150612f5a82612ef3565b604082019050919050565b60006020820190508181036000830152612f7e81612f42565b9050919050565b7f4f6e6c7920657363726f77206f72206d616e616765722063616e2063616c6c00600082015250565b6000612fbb601f836122cf565b9150612fc682612f85565b602082019050919050565b60006020820190508181036000830152612fea81612fae565b9050919050565b7f4e6f2072656e7420636f6c6c6563746564000000000000000000000000000000600082015250565b60006130276011836122cf565b915061303282612ff1565b602082019050919050565b600060208201905081810360008301526130568161301a565b9050919050565b60006040820190506130726000830185612132565b61307f6020830184612132565b9392505050565b7f457363726f7720616464726573732063616e6e6f74206265207a65726f000000600082015250565b60006130bc601d836122cf565b91506130c782613086565b602082019050919050565b600060208201905081810360008301526130eb816130af565b9050919050565b7f457363726f77206164647265737320616c726561647920736574000000000000600082015250565b6000613128601a836122cf565b9150613133826130f2565b602082019050919050565b600060208201905081810360008301526131578161311b565b905091905056fea2646970667358221220af51da7b3fcf066f7b1d7ae4d82d9c5feefaf8aa3a8683f6157844ee58c73b7764736f6c634300081b0033",
  "linkReferences": {},
  "deployedLinkReferences": {}
}